{
  "abi": [
    {
      "inputs": [
        {
          "internalType": "address",
          "name": "_proveToken",
          "type": "address"
        },
        {
          "internalType": "address",
          "name": "_admin",
          "type": "address"
        }
      ],
      "stateMutability": "nonpayable",
      "type": "constructor"
    },
    {
      "anonymous": false,
      "inputs": [
        {
          "indexed": false,
          "internalType": "address",
          "name": "token",
          "type": "address"
        },
        {
          "indexed": false,
          "internalType": "uint256",
          "name": "amount",
          "type": "uint256"
        },
        {
          "indexed": false,
          "internalType": "address",
          "name": "receiver",
          "type": "address"
        }
      ],
      "name": "Erc20TokensWithdrawn",
      "type": "event"
    },
    {
      "anonymous": false,
      "inputs": [
        {
          "indexed": true,
          "internalType": "address",
          "name": "account",
          "type": "address"
        }
      ],
      "name": "InvestorAdded",
      "type": "event"
    },
    {
      "anonymous": false,
      "inputs": [
        {
          "indexed": true,
          "internalType": "address",
          "name": "account",
          "type": "address"
        }
      ],
      "name": "InvestorRemoved",
      "type": "event"
    },
    {
      "anonymous": false,
      "inputs": [
        {
          "indexed": true,
          "internalType": "address",
          "name": "previousOwner",
          "type": "address"
        },
        {
          "indexed": true,
          "internalType": "address",
          "name": "newOwner",
          "type": "address"
        }
      ],
      "name": "OwnershipTransferred",
      "type": "event"
    },
    {
      "anonymous": false,
      "inputs": [
        {
          "indexed": false,
          "internalType": "address",
          "name": "account",
          "type": "address"
        },
        {
          "indexed": false,
          "internalType": "uint256",
          "name": "amountClaimed",
          "type": "uint256"
        }
      ],
      "name": "ProveClaimed",
      "type": "event"
    },
    {
      "anonymous": false,
      "inputs": [],
      "name": "VestingEnabled",
      "type": "event"
    },
    {
      "inputs": [
        {
          "internalType": "address",
          "name": "_account",
          "type": "address"
        },
        {
          "internalType": "uint256",
          "name": "_tokensToVest",
          "type": "uint256"
        }
      ],
      "name": "addInvestor",
      "outputs": [],
      "stateMutability": "nonpayable",
      "type": "function"
    },
    {
      "inputs": [],
      "name": "claim",
      "outputs": [],
      "stateMutability": "nonpayable",
      "type": "function"
    },
    {
      "inputs": [],
      "name": "enableVesting",
      "outputs": [],
      "stateMutability": "nonpayable",
      "type": "function"
    },
    {
      "inputs": [
        {
          "internalType": "address",
          "name": "_account",
          "type": "address"
        }
      ],
      "name": "getAmountClaimed",
      "outputs": [
        {
          "internalType": "uint256",
          "name": "",
          "type": "uint256"
        }
      ],
      "stateMutability": "view",
      "type": "function"
    },
    {
      "inputs": [
        {
          "internalType": "address",
          "name": "_account",
          "type": "address"
        }
      ],
      "name": "getAmountToClaim",
      "outputs": [
        {
          "internalType": "uint256",
          "name": "",
          "type": "uint256"
        }
      ],
      "stateMutability": "view",
      "type": "function"
    },
    {
      "inputs": [],
      "name": "getInvestorLibrary",
      "outputs": [
        {
          "components": [
            {
              "internalType": "address",
              "name": "account",
              "type": "address"
            },
            {
              "internalType": "uint256",
              "name": "tokensToVest",
              "type": "uint256"
            },
            {
              "internalType": "uint256",
              "name": "tokensClaimed",
              "type": "uint256"
            }
          ],
          "internalType": "struct Vesting.Investor[]",
          "name": "",
          "type": "tuple[]"
        }
      ],
      "stateMutability": "view",
      "type": "function"
    },
    {
      "inputs": [
        {
          "internalType": "address",
          "name": "_account",
          "type": "address"
        }
      ],
      "name": "getTokensToVest",
      "outputs": [
        {
          "internalType": "uint256",
          "name": "",
          "type": "uint256"
        }
      ],
      "stateMutability": "view",
      "type": "function"
    },
    {
      "inputs": [
        {
          "internalType": "address",
          "name": "",
          "type": "address"
        }
      ],
      "name": "investors",
      "outputs": [
        {
          "internalType": "bool",
          "name": "",
          "type": "bool"
        }
      ],
      "stateMutability": "view",
      "type": "function"
    },
    {
      "inputs": [
        {
          "internalType": "uint256",
          "name": "time",
          "type": "uint256"
        }
      ],
      "name": "lock",
      "outputs": [],
      "stateMutability": "nonpayable",
      "type": "function"
    },
    {
      "inputs": [],
      "name": "owner",
      "outputs": [
        {
          "internalType": "address",
          "name": "",
          "type": "address"
        }
      ],
      "stateMutability": "view",
      "type": "function"
    },
    {
      "inputs": [],
      "name": "proveToken",
      "outputs": [
        {
          "internalType": "address",
          "name": "",
          "type": "address"
        }
      ],
      "stateMutability": "view",
      "type": "function"
    },
    {
      "inputs": [
        {
          "internalType": "address",
          "name": "_account",
          "type": "address"
        }
      ],
      "name": "removeInvestor",
      "outputs": [],
      "stateMutability": "nonpayable",
      "type": "function"
    },
    {
      "inputs": [],
      "name": "renounceOwnership",
      "outputs": [],
      "stateMutability": "nonpayable",
      "type": "function"
    },
    {
      "inputs": [
        {
          "internalType": "address",
          "name": "newOwner",
          "type": "address"
        }
      ],
      "name": "transferOwnership",
      "outputs": [],
      "stateMutability": "nonpayable",
      "type": "function"
    },
    {
      "inputs": [],
      "name": "vestingEnabled",
      "outputs": [
        {
          "internalType": "bool",
          "name": "",
          "type": "bool"
        }
      ],
      "stateMutability": "view",
      "type": "function"
    },
    {
      "inputs": [],
      "name": "vestingStartUnix",
      "outputs": [
        {
          "internalType": "uint256",
          "name": "",
          "type": "uint256"
        }
      ],
      "stateMutability": "view",
      "type": "function"
    },
    {
      "inputs": [
        {
          "internalType": "address",
          "name": "token",
          "type": "address"
        }
      ],
      "name": "withdrawErc20",
      "outputs": [],
      "stateMutability": "nonpayable",
      "type": "function"
    }
  ],
  "bytecode": {
    "object": "0x60a06040523480156200001157600080fd5b506040516200191b3803806200191b8339810160408190526200003491620001b2565b600080546001600160a01b03191633908117825560405190918291600080516020620018fb833981519152908290a3506001600160a01b0382166080526200007c8162000084565b5050620001ea565b6000546001600160a01b03163314620000e45760405162461bcd60e51b815260206004820181905260248201527f4f776e61626c653a2063616c6c6572206973206e6f7420746865206f776e657260448201526064015b60405180910390fd5b6001600160a01b0381166200014b5760405162461bcd60e51b815260206004820152602660248201527f4f776e61626c653a206e6577206f776e657220697320746865207a65726f206160448201526564647265737360d01b6064820152608401620000db565b600080546040516001600160a01b0380851693921691600080516020620018fb83398151915291a3600080546001600160a01b0319166001600160a01b0392909216919091179055565b80516001600160a01b0381168114620001ad57600080fd5b919050565b60008060408385031215620001c657600080fd5b620001d18362000195565b9150620001e16020840162000195565b90509250929050565b6080516116e762000214600039600081816101bd0152818161080f0152610bc201526116e76000f3fe608060405234801561001057600080fd5b506004361061010b5760003560e01c806385d4cad3116100a2578063d36862e811610071578063d36862e81461022e578063dd46706414610241578063ec20b45714610254578063f02c6d8f14610267578063f2fde38b1461027057600080fd5b806385d4cad3146101b857806388a772ef146101f75780638da5cb5b1461020a578063c7e42b1b1461021b57600080fd5b80635b904cb7116100de5780635b904cb7146101685780636f7bc9be14610170578063715018a6146101a35780637f87bbd6146101ab57600080fd5b80630bca8bcd1461011057806342714978146101365780634e71d92d1461014b57806350ad827a14610153575b600080fd5b61012361011e3660046114ba565b610283565b6040519081526020015b60405180910390f35b6101496101443660046114ba565b6103fb565b005b610149610689565b61015b610966565b60405161012d91906114dc565b6101496109e8565b61019361017e3660046114ba565b60066020526000908152604090205460ff1681565b604051901515815260200161012d565b610149610ac7565b6004546101939060ff1681565b6101df7f000000000000000000000000000000000000000000000000000000000000000081565b6040516001600160a01b03909116815260200161012d565b6101236102053660046114ba565b610b3b565b6000546001600160a01b03166101df565b6101496102293660046114ba565b610b96565b61012361023c3660046114ba565b610f28565b61014961024f36600461153e565b610f83565b610149610262366004611557565b61101a565b61012360035481565b61014961027e3660046114ba565b6112bb565b6001600160a01b03811660009081526006602052604081205460ff1680156102ad575060045460ff165b156103ee5760006102bd836113a5565b905060006102ca84610b3b565b905080600583815481106102e0576102e0611581565b90600052602060002090600302016002015410610301575060009392505050565b60006224ea006003544261031591906115ad565b61031f91906115c6565b9050600060646103308460086115e8565b61033a91906115c6565b61034490836115e8565b606461035185600c6115e8565b61035b91906115c6565b61036591906115ff565b9050828111806103765750600b8210155b156103b2576005848154811061038e5761038e611581565b906000526020600020906003020160020154836103ab91906115ad565b90506103e5565b600584815481106103c5576103c5611581565b906000526020600020906003020160020154816103e291906115ad565b90505b95945050505050565b506000919050565b919050565b6000546001600160a01b0316331461042e5760405162461bcd60e51b815260040161042590611612565b60405180910390fd5b6001600160a01b0381166104aa5760405162461bcd60e51b815260206004820152603a60248201527f56657374696e672e736f6c3a3a72656d6f7665496e766573746f72282920616360448201527f636f756e742063616e6e6f7420626520616464726573732830290000000000006064820152608401610425565b60006104b5826113a5565b90506000600582815481106104cc576104cc611581565b600091825260209182902060408051606081018252600390930290910180546001600160a01b03168352600180820154948401949094526002015490820152600580549193509161051c916115ad565b8154811061052c5761052c611581565b90600052602060002090600302016005838154811061054d5761054d611581565b60009182526020909120825460039092020180546001600160a01b0319166001600160a01b039092169190911781556001808301548183015560029283015492909101919091556005805483926105a3916115ad565b815481106105b3576105b3611581565b600091825260209182902083516003929092020180546001600160a01b0319166001600160a01b03909216919091178155908201516001820155604090910151600290910155600580548061060a5761060a611647565b6000828152602080822060036000199094019384020180546001600160a01b031916815560018101839055600201829055919092556001600160a01b03851680835260069091526040808320805460ff191690555190917fba0013628ccb89af5bb18edf764d3a7b35c07b894848b8e6fd3434719de39c7d91a2505050565b3360009081526006602052604090205460ff1615156001146107135760405162461bcd60e51b815260206004820152603a60248201527f56657374696e672e736f6c3a3a6f6e6c79496e766573746f722829206d73672e60448201527f73656e646572206d75737420626520616e20696e766573746f720000000000006064820152608401610425565b60045460ff166107795760405162461bcd60e51b815260206004820152602b60248201527f56657374696e672e736f6c3a3a636c61696d28292076657374696e672069732060448201526a1b9bdd08195b98589b195960aa1b6064820152608401610425565b600061078433610283565b9050600081116107f35760405162461bcd60e51b815260206004820152603460248201527f56657374696e672e736f6c3a3a636c61696d282920696e766573746f7220686160448201527373206e6f20746f6b656e7320746f20636c61696d60601b6064820152608401610425565b60405163a9059cbb60e01b8152336004820152602481018290527f00000000000000000000000000000000000000000000000000000000000000006001600160a01b03169063a9059cbb906044016020604051808303816000875af1158015610860573d6000803e3d6000fd5b505050506040513d601f19601f82011682018060405250810190610884919061165d565b6108e35760405162461bcd60e51b815260206004820152602a60248201527f56657374696e672e736f6c3a3a636c61696d2829207472616e7366657220756e6044820152691cdd58d8d95cdcd99d5b60b21b6064820152608401610425565b60006108ee336113a5565b9050816005828154811061090457610904611581565b9060005260206000209060030201600201600082825461092491906115ff565b909155505060408051338152602081018490527fc9ff33ee3842ec05cab3a4e2b17aa19694b6c461ea543be5752366f912a6539d910160405180910390a15050565b60606005805480602002602001604051908101604052809291908181526020016000905b828210156109df576000848152602090819020604080516060810182526003860290920180546001600160a01b031683526001808201548486015260029091015491830191909152908352909201910161098a565b50505050905090565b6000546001600160a01b03163314610a125760405162461bcd60e51b815260040161042590611612565b60045460ff1615610a8b5760405162461bcd60e51b815260206004820152603760248201527f56657374696e672e736f6c3a3a656e61626c6556657374696e6728292076657360448201527f74696e6720697320616c726561647920656e61626c65640000000000000000006064820152608401610425565b6004805460ff19166001179055426003556040517ff78a71daf05bb8e3a2ef9c526b1bb785285cdb83a6130cd12a3bbd5c99c15fa390600090a1565b6000546001600160a01b03163314610af15760405162461bcd60e51b815260040161042590611612565b600080546040516001600160a01b03909116907f8be0079c531659141344cd1fd0a4f28419497f9722a3daafe3b4186f6b6457e0908390a3600080546001600160a01b0319169055565b6001600160a01b03811660009081526006602052604081205460ff16156103ee576000610b67836113a5565b905060058181548110610b7c57610b7c611581565b906000526020600020906003020160010154915050919050565b6000546001600160a01b03163314610bc05760405162461bcd60e51b815260040161042590611612565b7f00000000000000000000000000000000000000000000000000000000000000006001600160a01b0316816001600160a01b031603610c675760405162461bcd60e51b815260206004820152603960248201527f56657374696e672e736f6c3a3a7769746864726177457263323028292063616e60448201527f6e6f74207769746864726177202450524f564520746f6b656e000000000000006064820152608401610425565b6001600160a01b038116610ce35760405162461bcd60e51b815260206004820152603760248201527f56657374696e672e736f6c3a3a77697468647261774572633230282920746f6b60448201527f656e2063616e6e6f7420626520616464726573732830290000000000000000006064820152608401610425565b6040516370a0823160e01b81523060048201526000906001600160a01b038316906370a0823190602401602060405180830381865afa158015610d2a573d6000803e3d6000fd5b505050506040513d601f19601f82011682018060405250810190610d4e919061167f565b905060008111610dc65760405162461bcd60e51b815260206004820152603760248201527f56657374696e672e736f6c3a3a77697468647261774572633230282920696e7360448201527f756666696369656e7420746f6b656e2062616c616e63650000000000000000006064820152608401610425565b6000826001600160a01b031663a9059cbb610de96000546001600160a01b031690565b6040516001600160e01b031960e084901b1681526001600160a01b039091166004820152602481018590526044016020604051808303816000875af1158015610e36573d6000803e3d6000fd5b505050506040513d601f19601f82011682018060405250810190610e5a919061165d565b905080610ec45760405162461bcd60e51b815260206004820152603260248201527f56657374696e672e736f6c3a3a776974686472617745726332302829207472616044820152711b9cd9995c881d5b9cdd58d8d95cdcd99d5b60721b6064820152608401610425565b7f3ff9434501bb42cce78344c3420ec1273f8b404aba16aaae994c0d413b91bb4f8383610ef96000546001600160a01b031690565b604080516001600160a01b039485168152602081019390935292168183015290519081900360600190a1505050565b6001600160a01b03811660009081526006602052604081205460ff16156103ee576000610f54836113a5565b905060058181548110610f6957610f69611581565b906000526020600020906003020160020154915050919050565b6000546001600160a01b03163314610fad5760405162461bcd60e51b815260040161042590611612565b60008054600180546001600160a01b03199081166001600160a01b03841617909155169055610fdc81426115ff565b600255600080546040516001600160a01b03909116907f8be0079c531659141344cd1fd0a4f28419497f9722a3daafe3b4186f6b6457e0908390a350565b6000546001600160a01b031633146110445760405162461bcd60e51b815260040161042590611612565b6001600160a01b03821660009081526006602052604090205460ff16156110ca5760405162461bcd60e51b815260206004820152603460248201527f56657374696e672e736f6c3a3a616464496e766573746f72282920696e7665736044820152731d1bdc881a5cc8185b1c9958591e48185919195960621b6064820152608401610425565b6001600160a01b0382166111465760405162461bcd60e51b815260206004820152603860248201527f56657374696e672e736f6c3a3a616464496e766573746f722829205f6163636f60448201527f756e742063616e6e6f74206265206164647265737328302900000000000000006064820152608401610425565b600081116111b45760405162461bcd60e51b815260206004820152603560248201527f56657374696e672e736f6c3a3a616464496e766573746f722829205f746f6b6560448201527406e73546f56657374206d757374206265206774203605c1b6064820152608401610425565b6001600160a01b0382811660008181526006602090815260408083208054600160ff1990911681179091558151606081018352858152928301878152838301858152600580549384018155865293517f036b6384b5eca791c62761152d0c79bb0604c104a5fb6f4eb0703f3154bb3db0600390930292830180546001600160a01b031916919098161790965594517f036b6384b5eca791c62761152d0c79bb0604c104a5fb6f4eb0703f3154bb3db186015590517f036b6384b5eca791c62761152d0c79bb0604c104a5fb6f4eb0703f3154bb3db290940193909355915190917f62e6a5118be03f9bfedb79b0ed7ed75ee4a9e15fc4c69d2c4976acde26fa2d5f91a25050565b6000546001600160a01b031633146112e55760405162461bcd60e51b815260040161042590611612565b6001600160a01b03811661134a5760405162461bcd60e51b815260206004820152602660248201527f4f776e61626c653a206e6577206f776e657220697320746865207a65726f206160448201526564647265737360d01b6064820152608401610425565b600080546040516001600160a01b03808516939216917f8be0079c531659141344cd1fd0a4f28419497f9722a3daafe3b4186f6b6457e091a3600080546001600160a01b0319166001600160a01b0392909216919091179055565b6001600160a01b03811660009081526006602052604081205460ff1615156001146114385760405162461bcd60e51b815260206004820152603860248201527f56657374696e672e736f6c3a3a6c6f63617465496e766573746f72282920616360448201527f636f756e74206973206e6f7420616e20696e766573746f7200000000000000006064820152608401610425565b6000805b60055481101561149c57836001600160a01b03166005828154811061146357611463611581565b60009182526020909120600390910201546001600160a01b03160361148a5780915061149c565b8061149481611698565b91505061143c565b5092915050565b80356001600160a01b03811681146103f657600080fd5b6000602082840312156114cc57600080fd5b6114d5826114a3565b9392505050565b602080825282518282018190526000919060409081850190868401855b8281101561153157815180516001600160a01b03168552868101518786015285015185850152606090930192908501906001016114f9565b5091979650505050505050565b60006020828403121561155057600080fd5b5035919050565b6000806040838503121561156a57600080fd5b611573836114a3565b946020939093013593505050565b634e487b7160e01b600052603260045260246000fd5b634e487b7160e01b600052601160045260246000fd5b818103818111156115c0576115c0611597565b92915050565b6000826115e357634e487b7160e01b600052601260045260246000fd5b500490565b80820281158282048414176115c0576115c0611597565b808201808211156115c0576115c0611597565b6020808252818101527f4f776e61626c653a2063616c6c6572206973206e6f7420746865206f776e6572604082015260600190565b634e487b7160e01b600052603160045260246000fd5b60006020828403121561166f57600080fd5b815180151581146114d557600080fd5b60006020828403121561169157600080fd5b5051919050565b6000600182016116aa576116aa611597565b506001019056fea2646970667358221220157b3eae9a1ae2e7d7cc252855d7fcf62c788bb02ed633aa778f7e49daee3f3f64736f6c634300081100338be0079c531659141344cd1fd0a4f28419497f9722a3daafe3b4186f6b6457e0",
    "linkReferences": {}
  },
  "methodIdentifiers": {
    "addInvestor(address,uint256)": "ec20b457",
    "claim()": "4e71d92d",
    "enableVesting()": "5b904cb7",
    "getAmountClaimed(address)": "d36862e8",
    "getAmountToClaim(address)": "0bca8bcd",
    "getInvestorLibrary()": "50ad827a",
    "getTokensToVest(address)": "88a772ef",
    "investors(address)": "6f7bc9be",
    "lock(uint256)": "dd467064",
    "owner()": "8da5cb5b",
    "proveToken()": "85d4cad3",
    "removeInvestor(address)": "42714978",
    "renounceOwnership()": "715018a6",
    "transferOwnership(address)": "f2fde38b",
    "vestingEnabled()": "7f87bbd6",
    "vestingStartUnix()": "f02c6d8f",
    "withdrawErc20(address)": "c7e42b1b"
  },
  "id": 16
}