{
  "abi": [
    {
      "inputs": [
        {
          "internalType": "address",
          "name": "_proveToken",
          "type": "address"
        },
        {
          "internalType": "address",
          "name": "_admin",
          "type": "address"
        }
      ],
      "stateMutability": "nonpayable",
      "type": "constructor"
    },
    {
      "anonymous": false,
      "inputs": [
        {
          "indexed": false,
          "internalType": "address",
          "name": "token",
          "type": "address"
        },
        {
          "indexed": false,
          "internalType": "uint256",
          "name": "amount",
          "type": "uint256"
        },
        {
          "indexed": false,
          "internalType": "address",
          "name": "receiver",
          "type": "address"
        }
      ],
      "name": "Erc20TokensWithdrawn",
      "type": "event"
    },
    {
      "anonymous": false,
      "inputs": [
        {
          "indexed": true,
          "internalType": "address",
          "name": "account",
          "type": "address"
        }
      ],
      "name": "InvestorAdded",
      "type": "event"
    },
    {
      "anonymous": false,
      "inputs": [
        {
          "indexed": true,
          "internalType": "address",
          "name": "account",
          "type": "address"
        }
      ],
      "name": "InvestorRemoved",
      "type": "event"
    },
    {
      "anonymous": false,
      "inputs": [
        {
          "indexed": true,
          "internalType": "address",
          "name": "previousOwner",
          "type": "address"
        },
        {
          "indexed": true,
          "internalType": "address",
          "name": "newOwner",
          "type": "address"
        }
      ],
      "name": "OwnershipTransferred",
      "type": "event"
    },
    {
      "anonymous": false,
      "inputs": [
        {
          "indexed": false,
          "internalType": "address",
          "name": "account",
          "type": "address"
        },
        {
          "indexed": false,
          "internalType": "uint256",
          "name": "amountClaimed",
          "type": "uint256"
        }
      ],
      "name": "ProveClaimed",
      "type": "event"
    },
    {
      "anonymous": false,
      "inputs": [],
      "name": "VestingEnabled",
      "type": "event"
    },
    {
      "inputs": [
        {
          "internalType": "address",
          "name": "_account",
          "type": "address"
        },
        {
          "internalType": "uint256",
          "name": "_tokensToVest",
          "type": "uint256"
        }
      ],
      "name": "addInvestor",
      "outputs": [],
      "stateMutability": "nonpayable",
      "type": "function"
    },
    {
      "inputs": [],
      "name": "claim",
      "outputs": [],
      "stateMutability": "nonpayable",
      "type": "function"
    },
    {
      "inputs": [],
      "name": "enableVesting",
      "outputs": [],
      "stateMutability": "nonpayable",
      "type": "function"
    },
    {
      "inputs": [],
      "name": "getAllVestedTokens",
      "outputs": [
        {
          "internalType": "uint256",
          "name": "",
          "type": "uint256"
        }
      ],
      "stateMutability": "view",
      "type": "function"
    },
    {
      "inputs": [
        {
          "internalType": "address",
          "name": "_account",
          "type": "address"
        }
      ],
      "name": "getAmountClaimed",
      "outputs": [
        {
          "internalType": "uint256",
          "name": "",
          "type": "uint256"
        }
      ],
      "stateMutability": "view",
      "type": "function"
    },
    {
      "inputs": [
        {
          "internalType": "address",
          "name": "_account",
          "type": "address"
        }
      ],
      "name": "getAmountToClaim",
      "outputs": [
        {
          "internalType": "uint256",
          "name": "",
          "type": "uint256"
        }
      ],
      "stateMutability": "view",
      "type": "function"
    },
    {
      "inputs": [],
      "name": "getInvestorLibrary",
      "outputs": [
        {
          "components": [
            {
              "internalType": "address",
              "name": "account",
              "type": "address"
            },
            {
              "internalType": "uint256",
              "name": "tokensToVest",
              "type": "uint256"
            },
            {
              "internalType": "uint256",
              "name": "tokensClaimed",
              "type": "uint256"
            }
          ],
          "internalType": "struct Vesting.Investor[]",
          "name": "",
          "type": "tuple[]"
        }
      ],
      "stateMutability": "view",
      "type": "function"
    },
    {
      "inputs": [
        {
          "internalType": "address",
          "name": "_account",
          "type": "address"
        }
      ],
      "name": "getTokensToVest",
      "outputs": [
        {
          "internalType": "uint256",
          "name": "",
          "type": "uint256"
        }
      ],
      "stateMutability": "view",
      "type": "function"
    },
    {
      "inputs": [
        {
          "internalType": "address",
          "name": "",
          "type": "address"
        }
      ],
      "name": "investors",
      "outputs": [
        {
          "internalType": "bool",
          "name": "",
          "type": "bool"
        }
      ],
      "stateMutability": "view",
      "type": "function"
    },
    {
      "inputs": [
        {
          "internalType": "uint256",
          "name": "time",
          "type": "uint256"
        }
      ],
      "name": "lock",
      "outputs": [],
      "stateMutability": "nonpayable",
      "type": "function"
    },
    {
      "inputs": [],
      "name": "owner",
      "outputs": [
        {
          "internalType": "address",
          "name": "",
          "type": "address"
        }
      ],
      "stateMutability": "view",
      "type": "function"
    },
    {
      "inputs": [],
      "name": "proveToken",
      "outputs": [
        {
          "internalType": "address",
          "name": "",
          "type": "address"
        }
      ],
      "stateMutability": "view",
      "type": "function"
    },
    {
      "inputs": [
        {
          "internalType": "address",
          "name": "_account",
          "type": "address"
        }
      ],
      "name": "removeInvestor",
      "outputs": [],
      "stateMutability": "nonpayable",
      "type": "function"
    },
    {
      "inputs": [],
      "name": "renounceOwnership",
      "outputs": [],
      "stateMutability": "nonpayable",
      "type": "function"
    },
    {
      "inputs": [],
      "name": "totalTokensToVest",
      "outputs": [
        {
          "internalType": "uint256",
          "name": "",
          "type": "uint256"
        }
      ],
      "stateMutability": "view",
      "type": "function"
    },
    {
      "inputs": [
        {
          "internalType": "address",
          "name": "newOwner",
          "type": "address"
        }
      ],
      "name": "transferOwnership",
      "outputs": [],
      "stateMutability": "nonpayable",
      "type": "function"
    },
    {
      "inputs": [],
      "name": "vestingEnabled",
      "outputs": [
        {
          "internalType": "bool",
          "name": "",
          "type": "bool"
        }
      ],
      "stateMutability": "view",
      "type": "function"
    },
    {
      "inputs": [],
      "name": "vestingStartUnix",
      "outputs": [
        {
          "internalType": "uint256",
          "name": "",
          "type": "uint256"
        }
      ],
      "stateMutability": "view",
      "type": "function"
    },
    {
      "inputs": [
        {
          "internalType": "address",
          "name": "token",
          "type": "address"
        }
      ],
      "name": "withdrawErc20",
      "outputs": [],
      "stateMutability": "nonpayable",
      "type": "function"
    }
  ],
  "bytecode": {
    "object": "0x60a06040523480156200001157600080fd5b5060405162001962380380620019628339810160408190526200003491620001b2565b600080546001600160a01b0319163390811782556040519091829160008051602062001942833981519152908290a3506001600160a01b0382166080526200007c8162000084565b5050620001ea565b6000546001600160a01b03163314620000e45760405162461bcd60e51b815260206004820181905260248201527f4f776e61626c653a2063616c6c6572206973206e6f7420746865206f776e657260448201526064015b60405180910390fd5b6001600160a01b0381166200014b5760405162461bcd60e51b815260206004820152602660248201527f4f776e61626c653a206e6577206f776e657220697320746865207a65726f206160448201526564647265737360d01b6064820152608401620000db565b600080546040516001600160a01b03808516939216916000805160206200194283398151915291a3600080546001600160a01b0319166001600160a01b0392909216919091179055565b80516001600160a01b0381168114620001ad57600080fd5b919050565b60008060408385031215620001c657600080fd5b620001d18362000195565b9150620001e16020840162000195565b90509250929050565b60805161172e62000214600039600081816101d7015281816108320152610be5015261172e6000f3fe608060405234801561001057600080fd5b50600436106101215760003560e01c806385d4cad3116100ad578063d36862e811610071578063d36862e814610251578063dd46706414610264578063ec20b45714610277578063f02c6d8f1461028a578063f2fde38b1461029357600080fd5b806385d4cad3146101d257806388a772ef146102115780638da5cb5b14610224578063a145f1b514610235578063c7e42b1b1461023e57600080fd5b806350ad827a116100f457806350ad827a1461016d5780635b904cb7146101825780636f7bc9be1461018a578063715018a6146101bd5780637f87bbd6146101c557600080fd5b806308ac7624146101265780630bca8bcd1461013d57806342714978146101505780634e71d92d14610165575b600080fd5b6005545b6040519081526020015b60405180910390f35b61012a61014b366004611501565b6102a6565b61016361015e366004611501565b61041e565b005b6101636106ac565b610175610989565b6040516101349190611523565b610163610a0b565b6101ad610198366004611501565b60076020526000908152604090205460ff1681565b6040519015158152602001610134565b610163610aea565b6004546101ad9060ff1681565b6101f97f000000000000000000000000000000000000000000000000000000000000000081565b6040516001600160a01b039091168152602001610134565b61012a61021f366004611501565b610b5e565b6000546001600160a01b03166101f9565b61012a60055481565b61016361024c366004611501565b610bb9565b61012a61025f366004611501565b610f4b565b610163610272366004611585565b610fa6565b61016361028536600461159e565b61103d565b61012a60035481565b6101636102a1366004611501565b611302565b6001600160a01b03811660009081526007602052604081205460ff1680156102d0575060045460ff165b156104115760006102e0836113ec565b905060006102ed84610b5e565b90508060068381548110610303576103036115c8565b90600052602060002090600302016002015410610324575060009392505050565b60006224ea006003544261033891906115f4565b610342919061160d565b90506000606461035384600861162f565b61035d919061160d565b610367908361162f565b606461037485600c61162f565b61037e919061160d565b6103889190611646565b9050828111806103995750600b8210155b156103d557600684815481106103b1576103b16115c8565b906000526020600020906003020160020154836103ce91906115f4565b9050610408565b600684815481106103e8576103e86115c8565b9060005260206000209060030201600201548161040591906115f4565b90505b95945050505050565b506000919050565b919050565b6000546001600160a01b031633146104515760405162461bcd60e51b815260040161044890611659565b60405180910390fd5b6001600160a01b0381166104cd5760405162461bcd60e51b815260206004820152603a60248201527f56657374696e672e736f6c3a3a72656d6f7665496e766573746f72282920616360448201527f636f756e742063616e6e6f7420626520616464726573732830290000000000006064820152608401610448565b60006104d8826113ec565b90506000600682815481106104ef576104ef6115c8565b600091825260209182902060408051606081018252600390930290910180546001600160a01b03168352600180820154948401949094526002015490820152600680549193509161053f916115f4565b8154811061054f5761054f6115c8565b906000526020600020906003020160068381548110610570576105706115c8565b60009182526020909120825460039092020180546001600160a01b0319166001600160a01b039092169190911781556001808301548183015560029283015492909101919091556006805483926105c6916115f4565b815481106105d6576105d66115c8565b600091825260209182902083516003929092020180546001600160a01b0319166001600160a01b03909216919091178155908201516001820155604090910151600290910155600680548061062d5761062d61168e565b6000828152602080822060036000199094019384020180546001600160a01b031916815560018101839055600201829055919092556001600160a01b03851680835260079091526040808320805460ff191690555190917fba0013628ccb89af5bb18edf764d3a7b35c07b894848b8e6fd3434719de39c7d91a2505050565b3360009081526007602052604090205460ff1615156001146107365760405162461bcd60e51b815260206004820152603a60248201527f56657374696e672e736f6c3a3a6f6e6c79496e766573746f722829206d73672e60448201527f73656e646572206d75737420626520616e20696e766573746f720000000000006064820152608401610448565b60045460ff1661079c5760405162461bcd60e51b815260206004820152602b60248201527f56657374696e672e736f6c3a3a636c61696d28292076657374696e672069732060448201526a1b9bdd08195b98589b195960aa1b6064820152608401610448565b60006107a7336102a6565b9050600081116108165760405162461bcd60e51b815260206004820152603460248201527f56657374696e672e736f6c3a3a636c61696d282920696e766573746f7220686160448201527373206e6f20746f6b656e7320746f20636c61696d60601b6064820152608401610448565b60405163a9059cbb60e01b8152336004820152602481018290527f00000000000000000000000000000000000000000000000000000000000000006001600160a01b03169063a9059cbb906044016020604051808303816000875af1158015610883573d6000803e3d6000fd5b505050506040513d601f19601f820116820180604052508101906108a791906116a4565b6109065760405162461bcd60e51b815260206004820152602a60248201527f56657374696e672e736f6c3a3a636c61696d2829207472616e7366657220756e6044820152691cdd58d8d95cdcd99d5b60b21b6064820152608401610448565b6000610911336113ec565b90508160068281548110610927576109276115c8565b906000526020600020906003020160020160008282546109479190611646565b909155505060408051338152602081018490527fc9ff33ee3842ec05cab3a4e2b17aa19694b6c461ea543be5752366f912a6539d910160405180910390a15050565b60606006805480602002602001604051908101604052809291908181526020016000905b82821015610a02576000848152602090819020604080516060810182526003860290920180546001600160a01b03168352600180820154848601526002909101549183019190915290835290920191016109ad565b50505050905090565b6000546001600160a01b03163314610a355760405162461bcd60e51b815260040161044890611659565b60045460ff1615610aae5760405162461bcd60e51b815260206004820152603760248201527f56657374696e672e736f6c3a3a656e61626c6556657374696e6728292076657360448201527f74696e6720697320616c726561647920656e61626c65640000000000000000006064820152608401610448565b6004805460ff19166001179055426003556040517ff78a71daf05bb8e3a2ef9c526b1bb785285cdb83a6130cd12a3bbd5c99c15fa390600090a1565b6000546001600160a01b03163314610b145760405162461bcd60e51b815260040161044890611659565b600080546040516001600160a01b03909116907f8be0079c531659141344cd1fd0a4f28419497f9722a3daafe3b4186f6b6457e0908390a3600080546001600160a01b0319169055565b6001600160a01b03811660009081526007602052604081205460ff1615610411576000610b8a836113ec565b905060068181548110610b9f57610b9f6115c8565b906000526020600020906003020160010154915050919050565b6000546001600160a01b03163314610be35760405162461bcd60e51b815260040161044890611659565b7f00000000000000000000000000000000000000000000000000000000000000006001600160a01b0316816001600160a01b031603610c8a5760405162461bcd60e51b815260206004820152603960248201527f56657374696e672e736f6c3a3a7769746864726177457263323028292063616e60448201527f6e6f74207769746864726177202450524f564520746f6b656e000000000000006064820152608401610448565b6001600160a01b038116610d065760405162461bcd60e51b815260206004820152603760248201527f56657374696e672e736f6c3a3a77697468647261774572633230282920746f6b60448201527f656e2063616e6e6f7420626520616464726573732830290000000000000000006064820152608401610448565b6040516370a0823160e01b81523060048201526000906001600160a01b038316906370a0823190602401602060405180830381865afa158015610d4d573d6000803e3d6000fd5b505050506040513d601f19601f82011682018060405250810190610d7191906116c6565b905060008111610de95760405162461bcd60e51b815260206004820152603760248201527f56657374696e672e736f6c3a3a77697468647261774572633230282920696e7360448201527f756666696369656e7420746f6b656e2062616c616e63650000000000000000006064820152608401610448565b6000826001600160a01b031663a9059cbb610e0c6000546001600160a01b031690565b6040516001600160e01b031960e084901b1681526001600160a01b039091166004820152602481018590526044016020604051808303816000875af1158015610e59573d6000803e3d6000fd5b505050506040513d601f19601f82011682018060405250810190610e7d91906116a4565b905080610ee75760405162461bcd60e51b815260206004820152603260248201527f56657374696e672e736f6c3a3a776974686472617745726332302829207472616044820152711b9cd9995c881d5b9cdd58d8d95cdcd99d5b60721b6064820152608401610448565b7f3ff9434501bb42cce78344c3420ec1273f8b404aba16aaae994c0d413b91bb4f8383610f1c6000546001600160a01b031690565b604080516001600160a01b039485168152602081019390935292168183015290519081900360600190a1505050565b6001600160a01b03811660009081526007602052604081205460ff1615610411576000610f77836113ec565b905060068181548110610f8c57610f8c6115c8565b906000526020600020906003020160020154915050919050565b6000546001600160a01b03163314610fd05760405162461bcd60e51b815260040161044890611659565b60008054600180546001600160a01b03199081166001600160a01b03841617909155169055610fff8142611646565b600255600080546040516001600160a01b03909116907f8be0079c531659141344cd1fd0a4f28419497f9722a3daafe3b4186f6b6457e0908390a350565b6000546001600160a01b031633146110675760405162461bcd60e51b815260040161044890611659565b6001600160a01b03821660009081526007602052604090205460ff16156110ed5760405162461bcd60e51b815260206004820152603460248201527f56657374696e672e736f6c3a3a616464496e766573746f72282920696e7665736044820152731d1bdc881a5cc8185b1c9958591e48185919195960621b6064820152608401610448565b6001600160a01b0382166111695760405162461bcd60e51b815260206004820152603860248201527f56657374696e672e736f6c3a3a616464496e766573746f722829205f6163636f60448201527f756e742063616e6e6f74206265206164647265737328302900000000000000006064820152608401610448565b600081116111d75760405162461bcd60e51b815260206004820152603560248201527f56657374696e672e736f6c3a3a616464496e766573746f722829205f746f6b6560448201527406e73546f56657374206d757374206265206774203605c1b6064820152608401610448565b6001600160a01b0382811660008181526007602090815260408083208054600160ff1990911681179091558151606081018352948552918401868152908401838152600680549384018155845293517ff652222313e28459528d920b65115c16c04f3efc82aaedc97be59f3f377c0d3f600390930292830180546001600160a01b031916919096161790945592517ff652222313e28459528d920b65115c16c04f3efc82aaedc97be59f3f377c0d4084015590517ff652222313e28459528d920b65115c16c04f3efc82aaedc97be59f3f377c0d4190920191909155600580548392906112c5908490611646565b90915550506040516001600160a01b038316907f62e6a5118be03f9bfedb79b0ed7ed75ee4a9e15fc4c69d2c4976acde26fa2d5f90600090a25050565b6000546001600160a01b0316331461132c5760405162461bcd60e51b815260040161044890611659565b6001600160a01b0381166113915760405162461bcd60e51b815260206004820152602660248201527f4f776e61626c653a206e6577206f776e657220697320746865207a65726f206160448201526564647265737360d01b6064820152608401610448565b600080546040516001600160a01b03808516939216917f8be0079c531659141344cd1fd0a4f28419497f9722a3daafe3b4186f6b6457e091a3600080546001600160a01b0319166001600160a01b0392909216919091179055565b6001600160a01b03811660009081526007602052604081205460ff16151560011461147f5760405162461bcd60e51b815260206004820152603860248201527f56657374696e672e736f6c3a3a6c6f63617465496e766573746f72282920616360448201527f636f756e74206973206e6f7420616e20696e766573746f7200000000000000006064820152608401610448565b6000805b6006548110156114e357836001600160a01b0316600682815481106114aa576114aa6115c8565b60009182526020909120600390910201546001600160a01b0316036114d1578091506114e3565b806114db816116df565b915050611483565b5092915050565b80356001600160a01b038116811461041957600080fd5b60006020828403121561151357600080fd5b61151c826114ea565b9392505050565b602080825282518282018190526000919060409081850190868401855b8281101561157857815180516001600160a01b0316855286810151878601528501518585015260609093019290850190600101611540565b5091979650505050505050565b60006020828403121561159757600080fd5b5035919050565b600080604083850312156115b157600080fd5b6115ba836114ea565b946020939093013593505050565b634e487b7160e01b600052603260045260246000fd5b634e487b7160e01b600052601160045260246000fd5b81810381811115611607576116076115de565b92915050565b60008261162a57634e487b7160e01b600052601260045260246000fd5b500490565b8082028115828204841417611607576116076115de565b80820180821115611607576116076115de565b6020808252818101527f4f776e61626c653a2063616c6c6572206973206e6f7420746865206f776e6572604082015260600190565b634e487b7160e01b600052603160045260246000fd5b6000602082840312156116b657600080fd5b8151801515811461151c57600080fd5b6000602082840312156116d857600080fd5b5051919050565b6000600182016116f1576116f16115de565b506001019056fea2646970667358221220d2355449aa619c52df97b3ae1052a171b8fa5fa41104c173bef64d6cc1fd6c1b64736f6c634300081100338be0079c531659141344cd1fd0a4f28419497f9722a3daafe3b4186f6b6457e0",
    "linkReferences": {}
  },
  "methodIdentifiers": {
    "addInvestor(address,uint256)": "ec20b457",
    "claim()": "4e71d92d",
    "enableVesting()": "5b904cb7",
    "getAllVestedTokens()": "08ac7624",
    "getAmountClaimed(address)": "d36862e8",
    "getAmountToClaim(address)": "0bca8bcd",
    "getInvestorLibrary()": "50ad827a",
    "getTokensToVest(address)": "88a772ef",
    "investors(address)": "6f7bc9be",
    "lock(uint256)": "dd467064",
    "owner()": "8da5cb5b",
    "proveToken()": "85d4cad3",
    "removeInvestor(address)": "42714978",
    "renounceOwnership()": "715018a6",
    "totalTokensToVest()": "a145f1b5",
    "transferOwnership(address)": "f2fde38b",
    "vestingEnabled()": "7f87bbd6",
    "vestingStartUnix()": "f02c6d8f",
    "withdrawErc20(address)": "c7e42b1b"
  },
  "id": 18
}