{
  "abi": [
    {
      "inputs": [
        {
          "internalType": "address",
          "name": "_proveToken",
          "type": "address"
        },
        {
          "internalType": "address",
          "name": "_admin",
          "type": "address"
        }
      ],
      "stateMutability": "nonpayable",
      "type": "constructor"
    },
    {
      "anonymous": false,
      "inputs": [
        {
          "indexed": false,
          "internalType": "address",
          "name": "token",
          "type": "address"
        },
        {
          "indexed": false,
          "internalType": "uint256",
          "name": "amount",
          "type": "uint256"
        },
        {
          "indexed": false,
          "internalType": "address",
          "name": "receiver",
          "type": "address"
        }
      ],
      "name": "Erc20TokensWithdrawn",
      "type": "event"
    },
    {
      "anonymous": false,
      "inputs": [
        {
          "indexed": true,
          "internalType": "address",
          "name": "previousOwner",
          "type": "address"
        },
        {
          "indexed": true,
          "internalType": "address",
          "name": "newOwner",
          "type": "address"
        }
      ],
      "name": "OwnershipTransferred",
      "type": "event"
    },
    {
      "anonymous": false,
      "inputs": [
        {
          "indexed": false,
          "internalType": "address",
          "name": "account",
          "type": "address"
        },
        {
          "indexed": false,
          "internalType": "uint256",
          "name": "amountClaimed",
          "type": "uint256"
        }
      ],
      "name": "ProveClaimed",
      "type": "event"
    },
    {
      "anonymous": false,
      "inputs": [],
      "name": "VestingEnabled",
      "type": "event"
    },
    {
      "anonymous": false,
      "inputs": [
        {
          "indexed": false,
          "internalType": "address",
          "name": "account",
          "type": "address"
        }
      ],
      "name": "investorAdded",
      "type": "event"
    },
    {
      "inputs": [
        {
          "internalType": "address",
          "name": "_account",
          "type": "address"
        },
        {
          "internalType": "uint256",
          "name": "_tokensToVest",
          "type": "uint256"
        }
      ],
      "name": "addInvestor",
      "outputs": [],
      "stateMutability": "nonpayable",
      "type": "function"
    },
    {
      "inputs": [],
      "name": "claim",
      "outputs": [],
      "stateMutability": "nonpayable",
      "type": "function"
    },
    {
      "inputs": [],
      "name": "enableVesting",
      "outputs": [],
      "stateMutability": "nonpayable",
      "type": "function"
    },
    {
      "inputs": [
        {
          "internalType": "address",
          "name": "account",
          "type": "address"
        }
      ],
      "name": "getAmountClaimed",
      "outputs": [
        {
          "internalType": "uint256",
          "name": "",
          "type": "uint256"
        }
      ],
      "stateMutability": "view",
      "type": "function"
    },
    {
      "inputs": [
        {
          "internalType": "address",
          "name": "account",
          "type": "address"
        }
      ],
      "name": "getAmountToClaim",
      "outputs": [
        {
          "internalType": "uint256",
          "name": "",
          "type": "uint256"
        }
      ],
      "stateMutability": "view",
      "type": "function"
    },
    {
      "inputs": [],
      "name": "getInvestorLibrary",
      "outputs": [
        {
          "components": [
            {
              "internalType": "address",
              "name": "account",
              "type": "address"
            },
            {
              "internalType": "uint256",
              "name": "tokensToVest",
              "type": "uint256"
            },
            {
              "internalType": "uint256",
              "name": "tokensClaimed",
              "type": "uint256"
            }
          ],
          "internalType": "struct Vesting.Investor[]",
          "name": "",
          "type": "tuple[]"
        }
      ],
      "stateMutability": "view",
      "type": "function"
    },
    {
      "inputs": [
        {
          "internalType": "address",
          "name": "",
          "type": "address"
        }
      ],
      "name": "investors",
      "outputs": [
        {
          "internalType": "bool",
          "name": "",
          "type": "bool"
        }
      ],
      "stateMutability": "view",
      "type": "function"
    },
    {
      "inputs": [
        {
          "internalType": "uint256",
          "name": "time",
          "type": "uint256"
        }
      ],
      "name": "lock",
      "outputs": [],
      "stateMutability": "nonpayable",
      "type": "function"
    },
    {
      "inputs": [],
      "name": "owner",
      "outputs": [
        {
          "internalType": "address",
          "name": "",
          "type": "address"
        }
      ],
      "stateMutability": "view",
      "type": "function"
    },
    {
      "inputs": [],
      "name": "proveToken",
      "outputs": [
        {
          "internalType": "address",
          "name": "",
          "type": "address"
        }
      ],
      "stateMutability": "view",
      "type": "function"
    },
    {
      "inputs": [
        {
          "internalType": "address",
          "name": "_account",
          "type": "address"
        }
      ],
      "name": "removeInvestor",
      "outputs": [],
      "stateMutability": "nonpayable",
      "type": "function"
    },
    {
      "inputs": [],
      "name": "renounceOwnership",
      "outputs": [],
      "stateMutability": "nonpayable",
      "type": "function"
    },
    {
      "inputs": [
        {
          "internalType": "address",
          "name": "newOwner",
          "type": "address"
        }
      ],
      "name": "transferOwnership",
      "outputs": [],
      "stateMutability": "nonpayable",
      "type": "function"
    },
    {
      "inputs": [],
      "name": "vestingEnabled",
      "outputs": [
        {
          "internalType": "bool",
          "name": "",
          "type": "bool"
        }
      ],
      "stateMutability": "view",
      "type": "function"
    },
    {
      "inputs": [],
      "name": "vestingStartUnix",
      "outputs": [
        {
          "internalType": "uint256",
          "name": "",
          "type": "uint256"
        }
      ],
      "stateMutability": "view",
      "type": "function"
    },
    {
      "inputs": [
        {
          "internalType": "address",
          "name": "token",
          "type": "address"
        }
      ],
      "name": "withdrawErc20",
      "outputs": [],
      "stateMutability": "nonpayable",
      "type": "function"
    }
  ],
  "bytecode": {
    "object": "0x60a06040523480156200001157600080fd5b5060405162001400380380620014008339810160408190526200003491620001b2565b600080546001600160a01b03191633908117825560405190918291600080516020620013e0833981519152908290a3506001600160a01b0382166080526200007c8162000084565b5050620001ea565b6000546001600160a01b03163314620000e45760405162461bcd60e51b815260206004820181905260248201527f4f776e61626c653a2063616c6c6572206973206e6f7420746865206f776e657260448201526064015b60405180910390fd5b6001600160a01b0381166200014b5760405162461bcd60e51b815260206004820152602660248201527f4f776e61626c653a206e6577206f776e657220697320746865207a65726f206160448201526564647265737360d01b6064820152608401620000db565b600080546040516001600160a01b0380851693921691600080516020620013e083398151915291a3600080546001600160a01b0319166001600160a01b0392909216919091179055565b80516001600160a01b0381168114620001ad57600080fd5b919050565b60008060408385031215620001c657600080fd5b620001d18362000195565b9150620001e16020840162000195565b90509250929050565b6080516111d36200020d600039600081816101b3015261083201526111d36000f3fe608060405234801561001057600080fd5b50600436106101005760003560e01c806385d4cad311610097578063dd46706411610066578063dd46706414610211578063ec20b45714610224578063f02c6d8f14610237578063f2fde38b1461024057600080fd5b806385d4cad3146101ae5780638da5cb5b146101ed578063c7e42b1b146101fe578063d36862e81461010557600080fd5b80635b904cb7116100d35780635b904cb71461015e5780636f7bc9be14610166578063715018a6146101995780637f87bbd6146101a157600080fd5b80630bca8bcd14610105578063427149781461012c5780634e71d92d1461014157806350ad827a14610149575b600080fd5b610119610113366004610fdf565b50600090565b6040519081526020015b60405180910390f35b61013f61013a366004610fdf565b610253565b005b61013f6105a5565b610151610631565b6040516101239190611001565b61013f6106b3565b610189610174366004610fdf565b60066020526000908152604090205460ff1681565b6040519015158152602001610123565b61013f610792565b6004546101899060ff1681565b6101d57f000000000000000000000000000000000000000000000000000000000000000081565b6040516001600160a01b039091168152602001610123565b6000546001600160a01b03166101d5565b61013f61020c366004610fdf565b610806565b61013f61021f366004611063565b610b98565b61013f61023236600461107c565b610c2f565b61011960035481565b61013f61024e366004610fdf565b610ed9565b6000546001600160a01b031633146102865760405162461bcd60e51b815260040161027d906110a6565b60405180910390fd5b6001600160a01b0381166103025760405162461bcd60e51b815260206004820152603a60248201527f56657374696e672e736f6c3a3a72656d6f7665496e766573746f72282920616360448201527f636f756e742063616e6e6f742062652061646472657373283029000000000000606482015260840161027d565b6001600160a01b03811660009081526006602052604090205460ff1615156001146103955760405162461bcd60e51b815260206004820152603860248201527f56657374696e672e736f6c3a3a72656d6f7665496e766573746f72282920616360448201527f636f756e74206973206e6f7420616e20696e766573746f720000000000000000606482015260840161027d565b6000805b6005548110156103f957826001600160a01b0316600582815481106103c0576103c06110db565b60009182526020909120600390910201546001600160a01b0316036103e7578091506103f9565b806103f181611107565b915050610399565b5060006005828154811061040f5761040f6110db565b600091825260209182902060408051606081018252600390930290910180546001600160a01b03168352600180820154948401949094526002015490820152600580549193509161045f91611120565b8154811061046f5761046f6110db565b906000526020600020906003020160058381548110610490576104906110db565b60009182526020909120825460039092020180546001600160a01b0319166001600160a01b039092169190911781556001808301548183015560029283015492909101919091556005805483926104e691611120565b815481106104f6576104f66110db565b600091825260209182902083516003929092020180546001600160a01b0319166001600160a01b03909216919091178155908201516001820155604090910151600290910155600580548061054d5761054d611139565b6000828152602080822060036000199094019384020180546001600160a01b031916815560018101839055600201829055919092556001600160a01b039490941681526006909352505060409020805460ff19169055565b3360009081526006602052604090205460ff16151560011461062f5760405162461bcd60e51b815260206004820152603a60248201527f56657374696e672e736f6c3a3a6f6e6c79496e766573746f722829206d73672e60448201527f73656e646572206d75737420626520616e20696e766573746f72000000000000606482015260840161027d565b565b60606005805480602002602001604051908101604052809291908181526020016000905b828210156106aa576000848152602090819020604080516060810182526003860290920180546001600160a01b0316835260018082015484860152600290910154918301919091529083529092019101610655565b50505050905090565b6000546001600160a01b031633146106dd5760405162461bcd60e51b815260040161027d906110a6565b60045460ff16156107565760405162461bcd60e51b815260206004820152603760248201527f56657374696e672e736f6c3a3a656e61626c6556657374696e6728292076657360448201527f74696e6720697320616c726561647920656e61626c6564000000000000000000606482015260840161027d565b6004805460ff19166001179055426003556040517ff78a71daf05bb8e3a2ef9c526b1bb785285cdb83a6130cd12a3bbd5c99c15fa390600090a1565b6000546001600160a01b031633146107bc5760405162461bcd60e51b815260040161027d906110a6565b600080546040516001600160a01b03909116907f8be0079c531659141344cd1fd0a4f28419497f9722a3daafe3b4186f6b6457e0908390a3600080546001600160a01b0319169055565b6000546001600160a01b031633146108305760405162461bcd60e51b815260040161027d906110a6565b7f00000000000000000000000000000000000000000000000000000000000000006001600160a01b0316816001600160a01b0316036108d75760405162461bcd60e51b815260206004820152603960248201527f56657374696e672e736f6c3a3a7769746864726177457263323028292063616e60448201527f6e6f74207769746864726177202450524f564520746f6b656e00000000000000606482015260840161027d565b6001600160a01b0381166109535760405162461bcd60e51b815260206004820152603760248201527f56657374696e672e736f6c3a3a77697468647261774572633230282920746f6b60448201527f656e2063616e6e6f742062652061646472657373283029000000000000000000606482015260840161027d565b6040516370a0823160e01b81523060048201526000906001600160a01b038316906370a0823190602401602060405180830381865afa15801561099a573d6000803e3d6000fd5b505050506040513d601f19601f820116820180604052508101906109be919061114f565b905060008111610a365760405162461bcd60e51b815260206004820152603760248201527f56657374696e672e736f6c3a3a77697468647261774572633230282920696e7360448201527f756666696369656e7420746f6b656e2062616c616e6365000000000000000000606482015260840161027d565b6000826001600160a01b031663a9059cbb610a596000546001600160a01b031690565b6040516001600160e01b031960e084901b1681526001600160a01b039091166004820152602481018590526044016020604051808303816000875af1158015610aa6573d6000803e3d6000fd5b505050506040513d601f19601f82011682018060405250810190610aca9190611168565b905080610b345760405162461bcd60e51b815260206004820152603260248201527f56657374696e672e736f6c3a3a776974686472617745726332302829207472616044820152711b9cd9995c881d5b9cdd58d8d95cdcd99d5b60721b606482015260840161027d565b7f3ff9434501bb42cce78344c3420ec1273f8b404aba16aaae994c0d413b91bb4f8383610b696000546001600160a01b031690565b604080516001600160a01b039485168152602081019390935292168183015290519081900360600190a1505050565b6000546001600160a01b03163314610bc25760405162461bcd60e51b815260040161027d906110a6565b60008054600180546001600160a01b03199081166001600160a01b03841617909155169055610bf1814261118a565b600255600080546040516001600160a01b03909116907f8be0079c531659141344cd1fd0a4f28419497f9722a3daafe3b4186f6b6457e0908390a350565b6000546001600160a01b03163314610c595760405162461bcd60e51b815260040161027d906110a6565b6001600160a01b03821660009081526006602052604090205460ff1615610cdf5760405162461bcd60e51b815260206004820152603460248201527f56657374696e672e736f6c3a3a616464496e766573746f72282920696e7665736044820152731d1bdc881a5cc8185b1c9958591e48185919195960621b606482015260840161027d565b6001600160a01b038216610d5b5760405162461bcd60e51b815260206004820152603860248201527f56657374696e672e736f6c3a3a616464496e766573746f722829205f6163636f60448201527f756e742063616e6e6f7420626520616464726573732830290000000000000000606482015260840161027d565b60008111610dc95760405162461bcd60e51b815260206004820152603560248201527f56657374696e672e736f6c3a3a616464496e766573746f722829205f746f6b6560448201527406e73546f56657374206d757374206265206774203605c1b606482015260840161027d565b6001600160a01b0382811660008181526006602090815260408083208054600160ff199091168117909155815160608101835285815280840188815281840186815260058054948501815590965290517f036b6384b5eca791c62761152d0c79bb0604c104a5fb6f4eb0703f3154bb3db0600390930292830180546001600160a01b031916919098161790965594517f036b6384b5eca791c62761152d0c79bb0604c104a5fb6f4eb0703f3154bb3db186015591517f036b6384b5eca791c62761152d0c79bb0604c104a5fb6f4eb0703f3154bb3db290940193909355519081527f2c385ad016af1d5b8f4eefb8aef02929aa692e7f6d846488519f2513bd7170e0910160405180910390a15050565b6000546001600160a01b03163314610f035760405162461bcd60e51b815260040161027d906110a6565b6001600160a01b038116610f685760405162461bcd60e51b815260206004820152602660248201527f4f776e61626c653a206e6577206f776e657220697320746865207a65726f206160448201526564647265737360d01b606482015260840161027d565b600080546040516001600160a01b03808516939216917f8be0079c531659141344cd1fd0a4f28419497f9722a3daafe3b4186f6b6457e091a3600080546001600160a01b0319166001600160a01b0392909216919091179055565b80356001600160a01b0381168114610fda57600080fd5b919050565b600060208284031215610ff157600080fd5b610ffa82610fc3565b9392505050565b602080825282518282018190526000919060409081850190868401855b8281101561105657815180516001600160a01b031685528681015187860152850151858501526060909301929085019060010161101e565b5091979650505050505050565b60006020828403121561107557600080fd5b5035919050565b6000806040838503121561108f57600080fd5b61109883610fc3565b946020939093013593505050565b6020808252818101527f4f776e61626c653a2063616c6c6572206973206e6f7420746865206f776e6572604082015260600190565b634e487b7160e01b600052603260045260246000fd5b634e487b7160e01b600052601160045260246000fd5b600060018201611119576111196110f1565b5060010190565b81810381811115611133576111336110f1565b92915050565b634e487b7160e01b600052603160045260246000fd5b60006020828403121561116157600080fd5b5051919050565b60006020828403121561117a57600080fd5b81518015158114610ffa57600080fd5b80820180821115611133576111336110f156fea2646970667358221220dcc365cae599661a7c6c6acec1c64c4ec7d1139e86509937c82fe475653464f664736f6c634300081100338be0079c531659141344cd1fd0a4f28419497f9722a3daafe3b4186f6b6457e0",
    "linkReferences": {}
  },
  "methodIdentifiers": {
    "addInvestor(address,uint256)": "ec20b457",
    "claim()": "4e71d92d",
    "enableVesting()": "5b904cb7",
    "getAmountClaimed(address)": "d36862e8",
    "getAmountToClaim(address)": "0bca8bcd",
    "getInvestorLibrary()": "50ad827a",
    "investors(address)": "6f7bc9be",
    "lock(uint256)": "dd467064",
    "owner()": "8da5cb5b",
    "proveToken()": "85d4cad3",
    "removeInvestor(address)": "42714978",
    "renounceOwnership()": "715018a6",
    "transferOwnership(address)": "f2fde38b",
    "vestingEnabled()": "7f87bbd6",
    "vestingStartUnix()": "f02c6d8f",
    "withdrawErc20(address)": "c7e42b1b"
  },
  "id": 14
}