{
  "abi": [
    {
      "inputs": [
        {
          "internalType": "address",
          "name": "_proveToken",
          "type": "address"
        },
        {
          "internalType": "address",
          "name": "_admin",
          "type": "address"
        }
      ],
      "stateMutability": "nonpayable",
      "type": "constructor"
    },
    {
      "anonymous": false,
      "inputs": [
        {
          "indexed": false,
          "internalType": "address",
          "name": "token",
          "type": "address"
        },
        {
          "indexed": false,
          "internalType": "uint256",
          "name": "amount",
          "type": "uint256"
        },
        {
          "indexed": false,
          "internalType": "address",
          "name": "receiver",
          "type": "address"
        }
      ],
      "name": "Erc20TokensWithdrawn",
      "type": "event"
    },
    {
      "anonymous": false,
      "inputs": [
        {
          "indexed": true,
          "internalType": "address",
          "name": "previousOwner",
          "type": "address"
        },
        {
          "indexed": true,
          "internalType": "address",
          "name": "newOwner",
          "type": "address"
        }
      ],
      "name": "OwnershipTransferred",
      "type": "event"
    },
    {
      "anonymous": false,
      "inputs": [
        {
          "indexed": false,
          "internalType": "address",
          "name": "account",
          "type": "address"
        },
        {
          "indexed": false,
          "internalType": "uint256",
          "name": "amountClaimed",
          "type": "uint256"
        }
      ],
      "name": "ProveClaimed",
      "type": "event"
    },
    {
      "anonymous": false,
      "inputs": [],
      "name": "VestingEnabled",
      "type": "event"
    },
    {
      "anonymous": false,
      "inputs": [
        {
          "indexed": false,
          "internalType": "address",
          "name": "account",
          "type": "address"
        }
      ],
      "name": "investorAdded",
      "type": "event"
    },
    {
      "inputs": [
        {
          "internalType": "address",
          "name": "account",
          "type": "address"
        },
        {
          "internalType": "uint256",
          "name": "_tokensToVest",
          "type": "uint256"
        }
      ],
      "name": "addInvestor",
      "outputs": [],
      "stateMutability": "nonpayable",
      "type": "function"
    },
    {
      "inputs": [],
      "name": "claim",
      "outputs": [],
      "stateMutability": "nonpayable",
      "type": "function"
    },
    {
      "inputs": [],
      "name": "enableVesting",
      "outputs": [],
      "stateMutability": "nonpayable",
      "type": "function"
    },
    {
      "inputs": [
        {
          "internalType": "address",
          "name": "account",
          "type": "address"
        }
      ],
      "name": "getAmountClaimed",
      "outputs": [
        {
          "internalType": "uint256",
          "name": "",
          "type": "uint256"
        }
      ],
      "stateMutability": "view",
      "type": "function"
    },
    {
      "inputs": [
        {
          "internalType": "address",
          "name": "account",
          "type": "address"
        }
      ],
      "name": "getAmountToClaim",
      "outputs": [
        {
          "internalType": "uint256",
          "name": "",
          "type": "uint256"
        }
      ],
      "stateMutability": "view",
      "type": "function"
    },
    {
      "inputs": [
        {
          "internalType": "address",
          "name": "",
          "type": "address"
        }
      ],
      "name": "investors",
      "outputs": [
        {
          "internalType": "bool",
          "name": "",
          "type": "bool"
        }
      ],
      "stateMutability": "view",
      "type": "function"
    },
    {
      "inputs": [
        {
          "internalType": "address",
          "name": "account",
          "type": "address"
        }
      ],
      "name": "isInvestor",
      "outputs": [
        {
          "internalType": "bool",
          "name": "",
          "type": "bool"
        }
      ],
      "stateMutability": "view",
      "type": "function"
    },
    {
      "inputs": [
        {
          "internalType": "uint256",
          "name": "time",
          "type": "uint256"
        }
      ],
      "name": "lock",
      "outputs": [],
      "stateMutability": "nonpayable",
      "type": "function"
    },
    {
      "inputs": [],
      "name": "owner",
      "outputs": [
        {
          "internalType": "address",
          "name": "",
          "type": "address"
        }
      ],
      "stateMutability": "view",
      "type": "function"
    },
    {
      "inputs": [],
      "name": "proveToken",
      "outputs": [
        {
          "internalType": "address",
          "name": "",
          "type": "address"
        }
      ],
      "stateMutability": "view",
      "type": "function"
    },
    {
      "inputs": [
        {
          "internalType": "address",
          "name": "account",
          "type": "address"
        }
      ],
      "name": "removeInvestor",
      "outputs": [],
      "stateMutability": "nonpayable",
      "type": "function"
    },
    {
      "inputs": [],
      "name": "renounceOwnership",
      "outputs": [],
      "stateMutability": "nonpayable",
      "type": "function"
    },
    {
      "inputs": [
        {
          "internalType": "address",
          "name": "",
          "type": "address"
        }
      ],
      "name": "tokensClaimed",
      "outputs": [
        {
          "internalType": "uint256",
          "name": "",
          "type": "uint256"
        }
      ],
      "stateMutability": "view",
      "type": "function"
    },
    {
      "inputs": [
        {
          "internalType": "address",
          "name": "",
          "type": "address"
        }
      ],
      "name": "tokensToVest",
      "outputs": [
        {
          "internalType": "uint256",
          "name": "",
          "type": "uint256"
        }
      ],
      "stateMutability": "view",
      "type": "function"
    },
    {
      "inputs": [
        {
          "internalType": "address",
          "name": "newOwner",
          "type": "address"
        }
      ],
      "name": "transferOwnership",
      "outputs": [],
      "stateMutability": "nonpayable",
      "type": "function"
    },
    {
      "inputs": [],
      "name": "vestingEnabled",
      "outputs": [
        {
          "internalType": "bool",
          "name": "",
          "type": "bool"
        }
      ],
      "stateMutability": "view",
      "type": "function"
    },
    {
      "inputs": [],
      "name": "vestingStartUnix",
      "outputs": [
        {
          "internalType": "uint256",
          "name": "",
          "type": "uint256"
        }
      ],
      "stateMutability": "view",
      "type": "function"
    },
    {
      "inputs": [
        {
          "internalType": "address",
          "name": "token",
          "type": "address"
        }
      ],
      "name": "withdrawErc20",
      "outputs": [],
      "stateMutability": "nonpayable",
      "type": "function"
    }
  ],
  "bytecode": {
    "object": "0x60a060405234801561001057600080fd5b50604051610e50380380610e5083398101604081905261002f916101a4565b600080546001600160a01b03191633908117825560405190918291600080516020610e30833981519152908290a3506001600160a01b0382166080526100748161007b565b50506101d7565b6000546001600160a01b031633146100da5760405162461bcd60e51b815260206004820181905260248201527f4f776e61626c653a2063616c6c6572206973206e6f7420746865206f776e657260448201526064015b60405180910390fd5b6001600160a01b03811661013f5760405162461bcd60e51b815260206004820152602660248201527f4f776e61626c653a206e6577206f776e657220697320746865207a65726f206160448201526564647265737360d01b60648201526084016100d1565b600080546040516001600160a01b0380851693921691600080516020610e3083398151915291a3600080546001600160a01b0319166001600160a01b0392909216919091179055565b80516001600160a01b038116811461019f57600080fd5b919050565b600080604083850312156101b757600080fd5b6101c083610188565b91506101ce60208401610188565b90509250929050565b608051610c376101f9600039600081816101f401526104e30152610c376000f3fe608060405234801561001057600080fd5b50600436106101165760003560e01c806385d4cad3116100a2578063d36862e811610071578063d36862e81461011b578063dd46706414610260578063ec20b45714610273578063f02c6d8f14610286578063f2fde38b1461028f57600080fd5b806385d4cad3146101ef5780638da5cb5b1461022e578063c7e42b1b1461023f578063cee2a9cf1461025257600080fd5b80635b904cb7116100e95780635b904cb71461017f578063624601b6146101875780636f7bc9be146101a7578063715018a6146101da5780637f87bbd6146101e257600080fd5b80630bca8bcd1461011b57806342714978146101425780634e71d92d1461015757806354aa1ca11461015f575b600080fd5b61012f610129366004610b05565b50600090565b6040519081526020015b60405180910390f35b610155610150366004610b05565b6102a2565b005b6101556102d8565b61012f61016d366004610b05565b60076020526000908152604090205481565b610155610364565b61012f610195366004610b05565b60086020526000908152604090205481565b6101ca6101b5366004610b05565b60066020526000908152604090205460ff1681565b6040519015158152602001610139565b610155610443565b6004546101ca9060ff1681565b6102167f000000000000000000000000000000000000000000000000000000000000000081565b6040516001600160a01b039091168152602001610139565b6000546001600160a01b0316610216565b61015561024d366004610b05565b6104b7565b6101ca610129366004610b05565b61015561026e366004610b27565b610849565b610155610281366004610b40565b6108e0565b61012f60035481565b61015561029d366004610b05565b6109ff565b6000546001600160a01b031633146102d55760405162461bcd60e51b81526004016102cc90610b6a565b60405180910390fd5b50565b3360009081526006602052604090205460ff1615156001146103625760405162461bcd60e51b815260206004820152603a60248201527f56657374696e672e736f6c3a3a6f6e6c79496e766573746f722829206d73672e60448201527f73656e646572206d75737420626520616e20696e766573746f7200000000000060648201526084016102cc565b565b6000546001600160a01b0316331461038e5760405162461bcd60e51b81526004016102cc90610b6a565b60045460ff16156104075760405162461bcd60e51b815260206004820152603760248201527f56657374696e672e736f6c3a3a656e61626c6556657374696e6728292076657360448201527f74696e6720697320616c726561647920656e61626c656400000000000000000060648201526084016102cc565b6004805460ff19166001179055426003556040517ff78a71daf05bb8e3a2ef9c526b1bb785285cdb83a6130cd12a3bbd5c99c15fa390600090a1565b6000546001600160a01b0316331461046d5760405162461bcd60e51b81526004016102cc90610b6a565b600080546040516001600160a01b03909116907f8be0079c531659141344cd1fd0a4f28419497f9722a3daafe3b4186f6b6457e0908390a3600080546001600160a01b0319169055565b6000546001600160a01b031633146104e15760405162461bcd60e51b81526004016102cc90610b6a565b7f00000000000000000000000000000000000000000000000000000000000000006001600160a01b0316816001600160a01b0316036105885760405162461bcd60e51b815260206004820152603960248201527f56657374696e672e736f6c3a3a7769746864726177457263323028292063616e60448201527f6e6f74207769746864726177202450524f564520746f6b656e0000000000000060648201526084016102cc565b6001600160a01b0381166106045760405162461bcd60e51b815260206004820152603760248201527f56657374696e672e736f6c3a3a77697468647261774572633230282920746f6b60448201527f656e2063616e6e6f74206265206164647265737328302900000000000000000060648201526084016102cc565b6040516370a0823160e01b81523060048201526000906001600160a01b038316906370a0823190602401602060405180830381865afa15801561064b573d6000803e3d6000fd5b505050506040513d601f19601f8201168201806040525081019061066f9190610b9f565b9050600081116106e75760405162461bcd60e51b815260206004820152603760248201527f56657374696e672e736f6c3a3a77697468647261774572633230282920696e7360448201527f756666696369656e7420746f6b656e2062616c616e636500000000000000000060648201526084016102cc565b6000826001600160a01b031663a9059cbb61070a6000546001600160a01b031690565b6040516001600160e01b031960e084901b1681526001600160a01b039091166004820152602481018590526044016020604051808303816000875af1158015610757573d6000803e3d6000fd5b505050506040513d601f19601f8201168201806040525081019061077b9190610bb8565b9050806107e55760405162461bcd60e51b815260206004820152603260248201527f56657374696e672e736f6c3a3a776974686472617745726332302829207472616044820152711b9cd9995c881d5b9cdd58d8d95cdcd99d5b60721b60648201526084016102cc565b7f3ff9434501bb42cce78344c3420ec1273f8b404aba16aaae994c0d413b91bb4f838361081a6000546001600160a01b031690565b604080516001600160a01b039485168152602081019390935292168183015290519081900360600190a1505050565b6000546001600160a01b031633146108735760405162461bcd60e51b81526004016102cc90610b6a565b60008054600180546001600160a01b03199081166001600160a01b038416179091551690556108a28142610bda565b600255600080546040516001600160a01b03909116907f8be0079c531659141344cd1fd0a4f28419497f9722a3daafe3b4186f6b6457e0908390a350565b6000546001600160a01b0316331461090a5760405162461bcd60e51b81526004016102cc90610b6a565b6001600160a01b03821660009081526006602052604090205460ff16156109905760405162461bcd60e51b815260206004820152603460248201527f56657374696e672e736f6c3a3a616464496e766573746f72282920696e7665736044820152731d1bdc881a5cc8185b1c9958591e48185919195960621b60648201526084016102cc565b6001600160a01b0382166000818152600660209081526040808320805460ff1916600117905560078252808320859055600882528083209290925590519182527f2c385ad016af1d5b8f4eefb8aef02929aa692e7f6d846488519f2513bd7170e0910160405180910390a15050565b6000546001600160a01b03163314610a295760405162461bcd60e51b81526004016102cc90610b6a565b6001600160a01b038116610a8e5760405162461bcd60e51b815260206004820152602660248201527f4f776e61626c653a206e6577206f776e657220697320746865207a65726f206160448201526564647265737360d01b60648201526084016102cc565b600080546040516001600160a01b03808516939216917f8be0079c531659141344cd1fd0a4f28419497f9722a3daafe3b4186f6b6457e091a3600080546001600160a01b0319166001600160a01b0392909216919091179055565b80356001600160a01b0381168114610b0057600080fd5b919050565b600060208284031215610b1757600080fd5b610b2082610ae9565b9392505050565b600060208284031215610b3957600080fd5b5035919050565b60008060408385031215610b5357600080fd5b610b5c83610ae9565b946020939093013593505050565b6020808252818101527f4f776e61626c653a2063616c6c6572206973206e6f7420746865206f776e6572604082015260600190565b600060208284031215610bb157600080fd5b5051919050565b600060208284031215610bca57600080fd5b81518015158114610b2057600080fd5b80820180821115610bfb57634e487b7160e01b600052601160045260246000fd5b9291505056fea2646970667358221220f1701ec9570e08919212b0cbf79e3c666af46db32dfd64843fa808d5b21b9ac064736f6c634300081100338be0079c531659141344cd1fd0a4f28419497f9722a3daafe3b4186f6b6457e0",
    "linkReferences": {}
  },
  "methodIdentifiers": {
    "addInvestor(address,uint256)": "ec20b457",
    "claim()": "4e71d92d",
    "enableVesting()": "5b904cb7",
    "getAmountClaimed(address)": "d36862e8",
    "getAmountToClaim(address)": "0bca8bcd",
    "investors(address)": "6f7bc9be",
    "isInvestor(address)": "cee2a9cf",
    "lock(uint256)": "dd467064",
    "owner()": "8da5cb5b",
    "proveToken()": "85d4cad3",
    "removeInvestor(address)": "42714978",
    "renounceOwnership()": "715018a6",
    "tokensClaimed(address)": "624601b6",
    "tokensToVest(address)": "54aa1ca1",
    "transferOwnership(address)": "f2fde38b",
    "vestingEnabled()": "7f87bbd6",
    "vestingStartUnix()": "f02c6d8f",
    "withdrawErc20(address)": "c7e42b1b"
  },
  "id": 16
}