{
  "abi": [
    {
      "inputs": [
        {
          "internalType": "address",
          "name": "_proveToken",
          "type": "address"
        },
        {
          "internalType": "address",
          "name": "_admin",
          "type": "address"
        }
      ],
      "stateMutability": "nonpayable",
      "type": "constructor"
    },
    {
      "anonymous": false,
      "inputs": [
        {
          "indexed": false,
          "internalType": "address",
          "name": "token",
          "type": "address"
        },
        {
          "indexed": false,
          "internalType": "uint256",
          "name": "amount",
          "type": "uint256"
        },
        {
          "indexed": false,
          "internalType": "address",
          "name": "receiver",
          "type": "address"
        }
      ],
      "name": "Erc20TokensWithdrawn",
      "type": "event"
    },
    {
      "anonymous": false,
      "inputs": [
        {
          "indexed": true,
          "internalType": "address",
          "name": "previousOwner",
          "type": "address"
        },
        {
          "indexed": true,
          "internalType": "address",
          "name": "newOwner",
          "type": "address"
        }
      ],
      "name": "OwnershipTransferred",
      "type": "event"
    },
    {
      "anonymous": false,
      "inputs": [
        {
          "indexed": false,
          "internalType": "address",
          "name": "account",
          "type": "address"
        },
        {
          "indexed": false,
          "internalType": "uint256",
          "name": "amountClaimed",
          "type": "uint256"
        }
      ],
      "name": "ProveClaimed",
      "type": "event"
    },
    {
      "anonymous": false,
      "inputs": [],
      "name": "VestingEnabled",
      "type": "event"
    },
    {
      "anonymous": false,
      "inputs": [
        {
          "indexed": false,
          "internalType": "address",
          "name": "account",
          "type": "address"
        }
      ],
      "name": "investorAdded",
      "type": "event"
    },
    {
      "inputs": [
        {
          "internalType": "address",
          "name": "account",
          "type": "address"
        },
        {
          "internalType": "uint256",
          "name": "tokensToVest",
          "type": "uint256"
        }
      ],
      "name": "addInvestor",
      "outputs": [],
      "stateMutability": "nonpayable",
      "type": "function"
    },
    {
      "inputs": [],
      "name": "claim",
      "outputs": [],
      "stateMutability": "nonpayable",
      "type": "function"
    },
    {
      "inputs": [],
      "name": "enableVesting",
      "outputs": [],
      "stateMutability": "nonpayable",
      "type": "function"
    },
    {
      "inputs": [
        {
          "internalType": "address",
          "name": "account",
          "type": "address"
        }
      ],
      "name": "getAmountClaimed",
      "outputs": [
        {
          "internalType": "uint256",
          "name": "",
          "type": "uint256"
        }
      ],
      "stateMutability": "view",
      "type": "function"
    },
    {
      "inputs": [
        {
          "internalType": "address",
          "name": "account",
          "type": "address"
        }
      ],
      "name": "getAmountToClaim",
      "outputs": [
        {
          "internalType": "uint256",
          "name": "",
          "type": "uint256"
        }
      ],
      "stateMutability": "view",
      "type": "function"
    },
    {
      "inputs": [
        {
          "internalType": "address",
          "name": "account",
          "type": "address"
        }
      ],
      "name": "isInvestor",
      "outputs": [
        {
          "internalType": "bool",
          "name": "",
          "type": "bool"
        },
        {
          "internalType": "uint256",
          "name": "",
          "type": "uint256"
        }
      ],
      "stateMutability": "view",
      "type": "function"
    },
    {
      "inputs": [
        {
          "internalType": "uint256",
          "name": "time",
          "type": "uint256"
        }
      ],
      "name": "lock",
      "outputs": [],
      "stateMutability": "nonpayable",
      "type": "function"
    },
    {
      "inputs": [],
      "name": "owner",
      "outputs": [
        {
          "internalType": "address",
          "name": "",
          "type": "address"
        }
      ],
      "stateMutability": "view",
      "type": "function"
    },
    {
      "inputs": [],
      "name": "proveToken",
      "outputs": [
        {
          "internalType": "address",
          "name": "",
          "type": "address"
        }
      ],
      "stateMutability": "view",
      "type": "function"
    },
    {
      "inputs": [
        {
          "internalType": "address",
          "name": "account",
          "type": "address"
        }
      ],
      "name": "removeInvestor",
      "outputs": [],
      "stateMutability": "nonpayable",
      "type": "function"
    },
    {
      "inputs": [],
      "name": "renounceOwnership",
      "outputs": [],
      "stateMutability": "nonpayable",
      "type": "function"
    },
    {
      "inputs": [
        {
          "internalType": "address",
          "name": "newOwner",
          "type": "address"
        }
      ],
      "name": "transferOwnership",
      "outputs": [],
      "stateMutability": "nonpayable",
      "type": "function"
    },
    {
      "inputs": [],
      "name": "vestingEnabled",
      "outputs": [
        {
          "internalType": "bool",
          "name": "",
          "type": "bool"
        }
      ],
      "stateMutability": "view",
      "type": "function"
    },
    {
      "inputs": [],
      "name": "vestingStartUnix",
      "outputs": [
        {
          "internalType": "uint256",
          "name": "",
          "type": "uint256"
        }
      ],
      "stateMutability": "view",
      "type": "function"
    },
    {
      "inputs": [
        {
          "internalType": "address",
          "name": "token",
          "type": "address"
        }
      ],
      "name": "withdrawErc20",
      "outputs": [],
      "stateMutability": "nonpayable",
      "type": "function"
    }
  ],
  "bytecode": {
    "object": "0x60a060405234801561001057600080fd5b50604051610c65380380610c6583398101604081905261002f916101a4565b600080546001600160a01b03191633908117825560405190918291600080516020610c45833981519152908290a3506001600160a01b0382166080526100748161007b565b50506101d7565b6000546001600160a01b031633146100da5760405162461bcd60e51b815260206004820181905260248201527f4f776e61626c653a2063616c6c6572206973206e6f7420746865206f776e657260448201526064015b60405180910390fd5b6001600160a01b03811661013f5760405162461bcd60e51b815260206004820152602660248201527f4f776e61626c653a206e6577206f776e657220697320746865207a65726f206160448201526564647265737360d01b60648201526084016100d1565b600080546040516001600160a01b0380851693921691600080516020610c4583398151915291a3600080546001600160a01b0319166001600160a01b0392909216919091179055565b80516001600160a01b038116811461019f57600080fd5b919050565b600080604083850312156101b757600080fd5b6101c083610188565b91506101ce60208401610188565b90509250929050565b608051610a4c6101f96000396000818161016801526103ea0152610a4c6000f3fe608060405234801561001057600080fd5b50600436106100f55760003560e01c80638da5cb5b11610097578063dd46706411610066578063dd467064146101f3578063ec20b45714610206578063f02c6d8f14610219578063f2fde38b1461022257600080fd5b80638da5cb5b146101a2578063c7e42b1b146101b3578063cee2a9cf146101c6578063d36862e8146100fa57600080fd5b80635b904cb7116100d35780635b904cb714610136578063715018a61461013e5780637f87bbd61461014657806385d4cad31461016357600080fd5b80630bca8bcd146100fa57806342714978146101215780634e71d92d14610134575b600080fd5b61010e61010836600461091b565b50600090565b6040519081526020015b60405180910390f35b61013461012f36600461091b565b610235565b005b61013461026b565b61013461034a565b6004546101539060ff1681565b6040519015158152602001610118565b61018a7f000000000000000000000000000000000000000000000000000000000000000081565b6040516001600160a01b039091168152602001610118565b6000546001600160a01b031661018a565b6101346101c136600461091b565b6103be565b6101dc6101d436600461091b565b600080915091565b604080519215158352602083019190915201610118565b61013461020136600461093d565b610750565b610134610214366004610956565b6107e7565b61010e60035481565b61013461023036600461091b565b610815565b6000546001600160a01b031633146102685760405162461bcd60e51b815260040161025f90610980565b60405180910390fd5b50565b6000546001600160a01b031633146102955760405162461bcd60e51b815260040161025f90610980565b60045460ff161561030e5760405162461bcd60e51b815260206004820152603760248201527f56657374696e672e736f6c3a3a656e61626c6556657374696e6728292076657360448201527f74696e6720697320616c726561647920656e61626c6564000000000000000000606482015260840161025f565b6004805460ff19166001179055426003556040517ff78a71daf05bb8e3a2ef9c526b1bb785285cdb83a6130cd12a3bbd5c99c15fa390600090a1565b6000546001600160a01b031633146103745760405162461bcd60e51b815260040161025f90610980565b600080546040516001600160a01b03909116907f8be0079c531659141344cd1fd0a4f28419497f9722a3daafe3b4186f6b6457e0908390a3600080546001600160a01b0319169055565b6000546001600160a01b031633146103e85760405162461bcd60e51b815260040161025f90610980565b7f00000000000000000000000000000000000000000000000000000000000000006001600160a01b0316816001600160a01b03160361048f5760405162461bcd60e51b815260206004820152603960248201527f56657374696e672e736f6c3a3a7769746864726177457263323028292063616e60448201527f6e6f74207769746864726177202450524f564520746f6b656e00000000000000606482015260840161025f565b6001600160a01b03811661050b5760405162461bcd60e51b815260206004820152603760248201527f56657374696e672e736f6c3a3a77697468647261774572633230282920746f6b60448201527f656e2063616e6e6f742062652061646472657373283029000000000000000000606482015260840161025f565b6040516370a0823160e01b81523060048201526000906001600160a01b038316906370a0823190602401602060405180830381865afa158015610552573d6000803e3d6000fd5b505050506040513d601f19601f8201168201806040525081019061057691906109b5565b9050600081116105ee5760405162461bcd60e51b815260206004820152603760248201527f56657374696e672e736f6c3a3a77697468647261774572633230282920696e7360448201527f756666696369656e7420746f6b656e2062616c616e6365000000000000000000606482015260840161025f565b6000826001600160a01b031663a9059cbb6106116000546001600160a01b031690565b6040516001600160e01b031960e084901b1681526001600160a01b039091166004820152602481018590526044016020604051808303816000875af115801561065e573d6000803e3d6000fd5b505050506040513d601f19601f8201168201806040525081019061068291906109ce565b9050806106ec5760405162461bcd60e51b815260206004820152603260248201527f56657374696e672e736f6c3a3a776974686472617745726332302829207472616044820152711b9cd9995c881d5b9cdd58d8d95cdcd99d5b60721b606482015260840161025f565b7f3ff9434501bb42cce78344c3420ec1273f8b404aba16aaae994c0d413b91bb4f83836107216000546001600160a01b031690565b604080516001600160a01b039485168152602081019390935292168183015290519081900360600190a1505050565b6000546001600160a01b0316331461077a5760405162461bcd60e51b815260040161025f90610980565b60008054600180546001600160a01b03199081166001600160a01b038416179091551690556107a981426109f0565b600255600080546040516001600160a01b03909116907f8be0079c531659141344cd1fd0a4f28419497f9722a3daafe3b4186f6b6457e0908390a350565b6000546001600160a01b031633146108115760405162461bcd60e51b815260040161025f90610980565b5050565b6000546001600160a01b0316331461083f5760405162461bcd60e51b815260040161025f90610980565b6001600160a01b0381166108a45760405162461bcd60e51b815260206004820152602660248201527f4f776e61626c653a206e6577206f776e657220697320746865207a65726f206160448201526564647265737360d01b606482015260840161025f565b600080546040516001600160a01b03808516939216917f8be0079c531659141344cd1fd0a4f28419497f9722a3daafe3b4186f6b6457e091a3600080546001600160a01b0319166001600160a01b0392909216919091179055565b80356001600160a01b038116811461091657600080fd5b919050565b60006020828403121561092d57600080fd5b610936826108ff565b9392505050565b60006020828403121561094f57600080fd5b5035919050565b6000806040838503121561096957600080fd5b610972836108ff565b946020939093013593505050565b6020808252818101527f4f776e61626c653a2063616c6c6572206973206e6f7420746865206f776e6572604082015260600190565b6000602082840312156109c757600080fd5b5051919050565b6000602082840312156109e057600080fd5b8151801515811461093657600080fd5b60008219821115610a1157634e487b7160e01b600052601160045260246000fd5b50019056fea264697066735822122088219a24839274a5f21441687c8be63231e0af6db61ac6a433a4d2425055f2bc64736f6c634300080f00338be0079c531659141344cd1fd0a4f28419497f9722a3daafe3b4186f6b6457e0",
    "linkReferences": {}
  },
  "methodIdentifiers": {
    "addInvestor(address,uint256)": "ec20b457",
    "claim()": "4e71d92d",
    "enableVesting()": "5b904cb7",
    "getAmountClaimed(address)": "d36862e8",
    "getAmountToClaim(address)": "0bca8bcd",
    "isInvestor(address)": "cee2a9cf",
    "lock(uint256)": "dd467064",
    "owner()": "8da5cb5b",
    "proveToken()": "85d4cad3",
    "removeInvestor(address)": "42714978",
    "renounceOwnership()": "715018a6",
    "transferOwnership(address)": "f2fde38b",
    "vestingEnabled()": "7f87bbd6",
    "vestingStartUnix()": "f02c6d8f",
    "withdrawErc20(address)": "c7e42b1b"
  },
  "id": 14
}