{
  "abi": [
    {
      "inputs": [
        {
          "internalType": "address",
          "name": "_proveToken",
          "type": "address"
        },
        {
          "internalType": "address",
          "name": "_admin",
          "type": "address"
        }
      ],
      "stateMutability": "nonpayable",
      "type": "constructor"
    },
    {
      "anonymous": false,
      "inputs": [
        {
          "indexed": false,
          "internalType": "address",
          "name": "token",
          "type": "address"
        },
        {
          "indexed": false,
          "internalType": "uint256",
          "name": "amount",
          "type": "uint256"
        },
        {
          "indexed": false,
          "internalType": "address",
          "name": "receiver",
          "type": "address"
        }
      ],
      "name": "Erc20TokensWithdrawn",
      "type": "event"
    },
    {
      "anonymous": false,
      "inputs": [
        {
          "indexed": true,
          "internalType": "address",
          "name": "account",
          "type": "address"
        }
      ],
      "name": "InvestorAdded",
      "type": "event"
    },
    {
      "anonymous": false,
      "inputs": [
        {
          "indexed": true,
          "internalType": "address",
          "name": "account",
          "type": "address"
        }
      ],
      "name": "InvestorRemoved",
      "type": "event"
    },
    {
      "anonymous": false,
      "inputs": [
        {
          "indexed": true,
          "internalType": "address",
          "name": "previousOwner",
          "type": "address"
        },
        {
          "indexed": true,
          "internalType": "address",
          "name": "newOwner",
          "type": "address"
        }
      ],
      "name": "OwnershipTransferred",
      "type": "event"
    },
    {
      "anonymous": false,
      "inputs": [
        {
          "indexed": false,
          "internalType": "address",
          "name": "account",
          "type": "address"
        },
        {
          "indexed": false,
          "internalType": "uint256",
          "name": "amountClaimed",
          "type": "uint256"
        }
      ],
      "name": "ProveClaimed",
      "type": "event"
    },
    {
      "anonymous": false,
      "inputs": [],
      "name": "VestingEnabled",
      "type": "event"
    },
    {
      "inputs": [
        {
          "internalType": "address",
          "name": "_account",
          "type": "address"
        },
        {
          "internalType": "uint256",
          "name": "_tokensToVest",
          "type": "uint256"
        }
      ],
      "name": "addInvestor",
      "outputs": [],
      "stateMutability": "nonpayable",
      "type": "function"
    },
    {
      "inputs": [],
      "name": "claim",
      "outputs": [],
      "stateMutability": "nonpayable",
      "type": "function"
    },
    {
      "inputs": [],
      "name": "enableVesting",
      "outputs": [],
      "stateMutability": "nonpayable",
      "type": "function"
    },
    {
      "inputs": [
        {
          "internalType": "address",
          "name": "_account",
          "type": "address"
        }
      ],
      "name": "getAmountClaimed",
      "outputs": [
        {
          "internalType": "uint256",
          "name": "",
          "type": "uint256"
        }
      ],
      "stateMutability": "view",
      "type": "function"
    },
    {
      "inputs": [
        {
          "internalType": "address",
          "name": "_account",
          "type": "address"
        }
      ],
      "name": "getAmountToClaim",
      "outputs": [
        {
          "internalType": "uint256",
          "name": "",
          "type": "uint256"
        }
      ],
      "stateMutability": "view",
      "type": "function"
    },
    {
      "inputs": [],
      "name": "getInvestorLibrary",
      "outputs": [
        {
          "components": [
            {
              "internalType": "address",
              "name": "account",
              "type": "address"
            },
            {
              "internalType": "uint256",
              "name": "tokensToVest",
              "type": "uint256"
            },
            {
              "internalType": "uint256",
              "name": "tokensClaimed",
              "type": "uint256"
            }
          ],
          "internalType": "struct Vesting.Investor[]",
          "name": "",
          "type": "tuple[]"
        }
      ],
      "stateMutability": "view",
      "type": "function"
    },
    {
      "inputs": [
        {
          "internalType": "address",
          "name": "",
          "type": "address"
        }
      ],
      "name": "investors",
      "outputs": [
        {
          "internalType": "bool",
          "name": "",
          "type": "bool"
        }
      ],
      "stateMutability": "view",
      "type": "function"
    },
    {
      "inputs": [
        {
          "internalType": "uint256",
          "name": "time",
          "type": "uint256"
        }
      ],
      "name": "lock",
      "outputs": [],
      "stateMutability": "nonpayable",
      "type": "function"
    },
    {
      "inputs": [],
      "name": "owner",
      "outputs": [
        {
          "internalType": "address",
          "name": "",
          "type": "address"
        }
      ],
      "stateMutability": "view",
      "type": "function"
    },
    {
      "inputs": [],
      "name": "proveToken",
      "outputs": [
        {
          "internalType": "address",
          "name": "",
          "type": "address"
        }
      ],
      "stateMutability": "view",
      "type": "function"
    },
    {
      "inputs": [
        {
          "internalType": "address",
          "name": "_account",
          "type": "address"
        }
      ],
      "name": "removeInvestor",
      "outputs": [],
      "stateMutability": "nonpayable",
      "type": "function"
    },
    {
      "inputs": [],
      "name": "renounceOwnership",
      "outputs": [],
      "stateMutability": "nonpayable",
      "type": "function"
    },
    {
      "inputs": [
        {
          "internalType": "address",
          "name": "newOwner",
          "type": "address"
        }
      ],
      "name": "transferOwnership",
      "outputs": [],
      "stateMutability": "nonpayable",
      "type": "function"
    },
    {
      "inputs": [],
      "name": "vestingEnabled",
      "outputs": [
        {
          "internalType": "bool",
          "name": "",
          "type": "bool"
        }
      ],
      "stateMutability": "view",
      "type": "function"
    },
    {
      "inputs": [],
      "name": "vestingStartUnix",
      "outputs": [
        {
          "internalType": "uint256",
          "name": "",
          "type": "uint256"
        }
      ],
      "stateMutability": "view",
      "type": "function"
    },
    {
      "inputs": [
        {
          "internalType": "address",
          "name": "token",
          "type": "address"
        }
      ],
      "name": "withdrawErc20",
      "outputs": [],
      "stateMutability": "nonpayable",
      "type": "function"
    }
  ],
  "bytecode": {
    "object": "0x60a06040523480156200001157600080fd5b5060405162001ae238038062001ae28339810160408190526200003491620001b2565b600080546001600160a01b0319163390811782556040519091829160008051602062001ac2833981519152908290a3506001600160a01b0382166080526200007c8162000084565b5050620001ea565b6000546001600160a01b03163314620000e45760405162461bcd60e51b815260206004820181905260248201527f4f776e61626c653a2063616c6c6572206973206e6f7420746865206f776e657260448201526064015b60405180910390fd5b6001600160a01b0381166200014b5760405162461bcd60e51b815260206004820152602660248201527f4f776e61626c653a206e6577206f776e657220697320746865207a65726f206160448201526564647265737360d01b6064820152608401620000db565b600080546040516001600160a01b038085169392169160008051602062001ac283398151915291a3600080546001600160a01b0319166001600160a01b0392909216919091179055565b80516001600160a01b0381168114620001ad57600080fd5b919050565b60008060408385031215620001c657600080fd5b620001d18362000195565b9150620001e16020840162000195565b90509250929050565b6080516118ae62000214600039600081816101b201528181610a190152610db801526118ae6000f3fe608060405234801561001057600080fd5b50600436106101005760003560e01c806385d4cad311610097578063dd46706411610066578063dd46706414610223578063ec20b45714610236578063f02c6d8f14610249578063f2fde38b1461025257600080fd5b806385d4cad3146101ad5780638da5cb5b146101ec578063c7e42b1b146101fd578063d36862e81461021057600080fd5b80635b904cb7116100d35780635b904cb71461015d5780636f7bc9be14610165578063715018a6146101985780637f87bbd6146101a057600080fd5b80630bca8bcd14610105578063427149781461012b5780634e71d92d1461014057806350ad827a14610148575b600080fd5b610118610113366004611681565b610265565b6040519081526020015b60405180910390f35b61013e610139366004611681565b610520565b005b61013e610890565b610150610bb7565b60405161012291906116a3565b61013e610c39565b610188610173366004611681565b60066020526000908152604090205460ff1681565b6040519015158152602001610122565b61013e610d18565b6004546101889060ff1681565b6101d47f000000000000000000000000000000000000000000000000000000000000000081565b6040516001600160a01b039091168152602001610122565b6000546001600160a01b03166101d4565b61013e61020b366004611681565b610d8c565b61011861021e366004611681565b61111e565b61013e610231366004611705565b611243565b61013e61024436600461171e565b6112da565b61011860035481565b61013e610260366004611681565b61157b565b60045460009060ff166102de5760405162461bcd60e51b815260206004820152603660248201527f56657374696e672e736f6c3a3a676574416d6f756e74546f436c61696d2829206044820152751d995cdd1a5b99c81a5cc81b9bdd08195b98589b195960521b60648201526084015b60405180910390fd5b6001600160a01b03821660009081526006602052604090205460ff1615156001146103715760405162461bcd60e51b815260206004820152603a60248201527f56657374696e672e736f6c3a3a676574416d6f756e74546f436c61696d28292060448201527f6163636f756e74206973206e6f7420616e20696e766573746f7200000000000060648201526084016102d5565b6001600160a01b0382166103e55760405162461bcd60e51b815260206004820152603560248201527f56657374696e672e736f6c3a3a676574416d6f756e74546f436c61696d2829206044820152746163636f756e74206973206164647265737328302960581b60648201526084016102d5565b6000805b60055481101561044957836001600160a01b03166005828154811061041057610410611748565b60009182526020909120600390910201546001600160a01b03160361043757809150610449565b8061044181611774565b9150506103e9565b5060006005828154811061045f5761045f611748565b906000526020600020906003020160010154905060006224ea0042600354610487919061178d565b61049191906117a6565b9050600b8111156104a05750600b5b600060646104af8460086117c8565b6104b991906117a6565b6104c390836117c8565b60646104d085600c6117c8565b6104da91906117a6565b6104e491906117df565b9050600584815481106104f9576104f9611748565b90600052602060002090600302016002015481610516919061178d565b9695505050505050565b6000546001600160a01b0316331461054a5760405162461bcd60e51b81526004016102d5906117f2565b6001600160a01b0381166105c65760405162461bcd60e51b815260206004820152603a60248201527f56657374696e672e736f6c3a3a72656d6f7665496e766573746f72282920616360448201527f636f756e742063616e6e6f74206265206164647265737328302900000000000060648201526084016102d5565b6001600160a01b03811660009081526006602052604090205460ff1615156001146106595760405162461bcd60e51b815260206004820152603860248201527f56657374696e672e736f6c3a3a72656d6f7665496e766573746f72282920616360448201527f636f756e74206973206e6f7420616e20696e766573746f72000000000000000060648201526084016102d5565b6000805b6005548110156106bd57826001600160a01b03166005828154811061068457610684611748565b60009182526020909120600390910201546001600160a01b0316036106ab578091506106bd565b806106b581611774565b91505061065d565b506000600582815481106106d3576106d3611748565b600091825260209182902060408051606081018252600390930290910180546001600160a01b0316835260018082015494840194909452600201549082015260058054919350916107239161178d565b8154811061073357610733611748565b90600052602060002090600302016005838154811061075457610754611748565b60009182526020909120825460039092020180546001600160a01b0319166001600160a01b039092169190911781556001808301548183015560029283015492909101919091556005805483926107aa9161178d565b815481106107ba576107ba611748565b600091825260209182902083516003929092020180546001600160a01b0319166001600160a01b03909216919091178155908201516001820155604090910151600290910155600580548061081157610811611827565b6000828152602080822060036000199094019384020180546001600160a01b031916815560018101839055600201829055919092556001600160a01b03851680835260069091526040808320805460ff191690555190917fba0013628ccb89af5bb18edf764d3a7b35c07b894848b8e6fd3434719de39c7d91a2505050565b3360009081526006602052604090205460ff16151560011461091a5760405162461bcd60e51b815260206004820152603a60248201527f56657374696e672e736f6c3a3a6f6e6c79496e766573746f722829206d73672e60448201527f73656e646572206d75737420626520616e20696e766573746f7200000000000060648201526084016102d5565b60045460ff166109805760405162461bcd60e51b815260206004820152602b60248201527f56657374696e672e736f6c3a3a636c61696d28292076657374696e672069732060448201526a1b9bdd08195b98589b195960aa1b60648201526084016102d5565b600061098b33610265565b9050600081116109fa5760405162461bcd60e51b815260206004820152603460248201527f56657374696e672e736f6c3a3a636c61696d282920696e766573746f7220686160448201527373206e6f20746f6b656e7320746f20636c61696d60601b60648201526084016102d5565b60405163a9059cbb60e01b8152336004820152602481018290526000907f00000000000000000000000000000000000000000000000000000000000000006001600160a01b03169063a9059cbb906044016020604051808303816000875af1158015610a6a573d6000803e3d6000fd5b505050506040513d601f19601f82011682018060405250810190610a8e919061183d565b905080610af05760405162461bcd60e51b815260206004820152602a60248201527f56657374696e672e736f6c3a3a636c61696d2829207472616e7366657220756e6044820152691cdd58d8d95cdcd99d5b60b21b60648201526084016102d5565b60005b600554811015610b7957336001600160a01b031660058281548110610b1a57610b1a611748565b60009182526020909120600390910201546001600160a01b031603610b67578260058281548110610b4d57610b4d611748565b906000526020600020906003020160020181905550610b79565b80610b7181611774565b915050610af3565b5060408051338152602081018490527fc9ff33ee3842ec05cab3a4e2b17aa19694b6c461ea543be5752366f912a6539d910160405180910390a15050565b60606005805480602002602001604051908101604052809291908181526020016000905b82821015610c30576000848152602090819020604080516060810182526003860290920180546001600160a01b0316835260018082015484860152600290910154918301919091529083529092019101610bdb565b50505050905090565b6000546001600160a01b03163314610c635760405162461bcd60e51b81526004016102d5906117f2565b60045460ff1615610cdc5760405162461bcd60e51b815260206004820152603760248201527f56657374696e672e736f6c3a3a656e61626c6556657374696e6728292076657360448201527f74696e6720697320616c726561647920656e61626c656400000000000000000060648201526084016102d5565b6004805460ff19166001179055426003556040517ff78a71daf05bb8e3a2ef9c526b1bb785285cdb83a6130cd12a3bbd5c99c15fa390600090a1565b6000546001600160a01b03163314610d425760405162461bcd60e51b81526004016102d5906117f2565b600080546040516001600160a01b03909116907f8be0079c531659141344cd1fd0a4f28419497f9722a3daafe3b4186f6b6457e0908390a3600080546001600160a01b0319169055565b6000546001600160a01b03163314610db65760405162461bcd60e51b81526004016102d5906117f2565b7f00000000000000000000000000000000000000000000000000000000000000006001600160a01b0316816001600160a01b031603610e5d5760405162461bcd60e51b815260206004820152603960248201527f56657374696e672e736f6c3a3a7769746864726177457263323028292063616e60448201527f6e6f74207769746864726177202450524f564520746f6b656e0000000000000060648201526084016102d5565b6001600160a01b038116610ed95760405162461bcd60e51b815260206004820152603760248201527f56657374696e672e736f6c3a3a77697468647261774572633230282920746f6b60448201527f656e2063616e6e6f74206265206164647265737328302900000000000000000060648201526084016102d5565b6040516370a0823160e01b81523060048201526000906001600160a01b038316906370a0823190602401602060405180830381865afa158015610f20573d6000803e3d6000fd5b505050506040513d601f19601f82011682018060405250810190610f44919061185f565b905060008111610fbc5760405162461bcd60e51b815260206004820152603760248201527f56657374696e672e736f6c3a3a77697468647261774572633230282920696e7360448201527f756666696369656e7420746f6b656e2062616c616e636500000000000000000060648201526084016102d5565b6000826001600160a01b031663a9059cbb610fdf6000546001600160a01b031690565b6040516001600160e01b031960e084901b1681526001600160a01b039091166004820152602481018590526044016020604051808303816000875af115801561102c573d6000803e3d6000fd5b505050506040513d601f19601f82011682018060405250810190611050919061183d565b9050806110ba5760405162461bcd60e51b815260206004820152603260248201527f56657374696e672e736f6c3a3a776974686472617745726332302829207472616044820152711b9cd9995c881d5b9cdd58d8d95cdcd99d5b60721b60648201526084016102d5565b7f3ff9434501bb42cce78344c3420ec1273f8b404aba16aaae994c0d413b91bb4f83836110ef6000546001600160a01b031690565b604080516001600160a01b039485168152602081019390935292168183015290519081900360600190a1505050565b6001600160a01b03811660009081526006602052604081205460ff1615156001146111b15760405162461bcd60e51b815260206004820152603a60248201527f56657374696e672e736f6c3a3a676574416d6f756e74436c61696d656428292060448201527f6163636f756e74206973206e6f7420616e20696e766573746f7200000000000060648201526084016102d5565b6000805b60055481101561121557836001600160a01b0316600582815481106111dc576111dc611748565b60009182526020909120600390910201546001600160a01b03160361120357809150611215565b8061120d81611774565b9150506111b5565b506005818154811061122957611229611748565b906000526020600020906003020160020154915050919050565b6000546001600160a01b0316331461126d5760405162461bcd60e51b81526004016102d5906117f2565b60008054600180546001600160a01b03199081166001600160a01b0384161790915516905561129c81426117df565b600255600080546040516001600160a01b03909116907f8be0079c531659141344cd1fd0a4f28419497f9722a3daafe3b4186f6b6457e0908390a350565b6000546001600160a01b031633146113045760405162461bcd60e51b81526004016102d5906117f2565b6001600160a01b03821660009081526006602052604090205460ff161561138a5760405162461bcd60e51b815260206004820152603460248201527f56657374696e672e736f6c3a3a616464496e766573746f72282920696e7665736044820152731d1bdc881a5cc8185b1c9958591e48185919195960621b60648201526084016102d5565b6001600160a01b0382166114065760405162461bcd60e51b815260206004820152603860248201527f56657374696e672e736f6c3a3a616464496e766573746f722829205f6163636f60448201527f756e742063616e6e6f742062652061646472657373283029000000000000000060648201526084016102d5565b600081116114745760405162461bcd60e51b815260206004820152603560248201527f56657374696e672e736f6c3a3a616464496e766573746f722829205f746f6b6560448201527406e73546f56657374206d757374206265206774203605c1b60648201526084016102d5565b6001600160a01b0382811660008181526006602090815260408083208054600160ff1990911681179091558151606081018352858152928301878152838301858152600580549384018155865293517f036b6384b5eca791c62761152d0c79bb0604c104a5fb6f4eb0703f3154bb3db0600390930292830180546001600160a01b031916919098161790965594517f036b6384b5eca791c62761152d0c79bb0604c104a5fb6f4eb0703f3154bb3db186015590517f036b6384b5eca791c62761152d0c79bb0604c104a5fb6f4eb0703f3154bb3db290940193909355915190917f62e6a5118be03f9bfedb79b0ed7ed75ee4a9e15fc4c69d2c4976acde26fa2d5f91a25050565b6000546001600160a01b031633146115a55760405162461bcd60e51b81526004016102d5906117f2565b6001600160a01b03811661160a5760405162461bcd60e51b815260206004820152602660248201527f4f776e61626c653a206e6577206f776e657220697320746865207a65726f206160448201526564647265737360d01b60648201526084016102d5565b600080546040516001600160a01b03808516939216917f8be0079c531659141344cd1fd0a4f28419497f9722a3daafe3b4186f6b6457e091a3600080546001600160a01b0319166001600160a01b0392909216919091179055565b80356001600160a01b038116811461167c57600080fd5b919050565b60006020828403121561169357600080fd5b61169c82611665565b9392505050565b602080825282518282018190526000919060409081850190868401855b828110156116f857815180516001600160a01b03168552868101518786015285015185850152606090930192908501906001016116c0565b5091979650505050505050565b60006020828403121561171757600080fd5b5035919050565b6000806040838503121561173157600080fd5b61173a83611665565b946020939093013593505050565b634e487b7160e01b600052603260045260246000fd5b634e487b7160e01b600052601160045260246000fd5b6000600182016117865761178661175e565b5060010190565b818103818111156117a0576117a061175e565b92915050565b6000826117c357634e487b7160e01b600052601260045260246000fd5b500490565b80820281158282048414176117a0576117a061175e565b808201808211156117a0576117a061175e565b6020808252818101527f4f776e61626c653a2063616c6c6572206973206e6f7420746865206f776e6572604082015260600190565b634e487b7160e01b600052603160045260246000fd5b60006020828403121561184f57600080fd5b8151801515811461169c57600080fd5b60006020828403121561187157600080fd5b505191905056fea2646970667358221220ec3b7fe84220e84badd1739ee79702340a132087fd0ec31c1d51eb0d0f0d454264736f6c634300081100338be0079c531659141344cd1fd0a4f28419497f9722a3daafe3b4186f6b6457e0",
    "linkReferences": {}
  },
  "methodIdentifiers": {
    "addInvestor(address,uint256)": "ec20b457",
    "claim()": "4e71d92d",
    "enableVesting()": "5b904cb7",
    "getAmountClaimed(address)": "d36862e8",
    "getAmountToClaim(address)": "0bca8bcd",
    "getInvestorLibrary()": "50ad827a",
    "investors(address)": "6f7bc9be",
    "lock(uint256)": "dd467064",
    "owner()": "8da5cb5b",
    "proveToken()": "85d4cad3",
    "removeInvestor(address)": "42714978",
    "renounceOwnership()": "715018a6",
    "transferOwnership(address)": "f2fde38b",
    "vestingEnabled()": "7f87bbd6",
    "vestingStartUnix()": "f02c6d8f",
    "withdrawErc20(address)": "c7e42b1b"
  },
  "id": 16
}