{
  "abi": [
    {
      "inputs": [
        {
          "internalType": "address",
          "name": "_proveToken",
          "type": "address"
        },
        {
          "internalType": "address",
          "name": "_admin",
          "type": "address"
        }
      ],
      "stateMutability": "nonpayable",
      "type": "constructor"
    },
    {
      "anonymous": false,
      "inputs": [
        {
          "indexed": false,
          "internalType": "address",
          "name": "token",
          "type": "address"
        },
        {
          "indexed": false,
          "internalType": "uint256",
          "name": "amount",
          "type": "uint256"
        },
        {
          "indexed": false,
          "internalType": "address",
          "name": "receiver",
          "type": "address"
        }
      ],
      "name": "Erc20TokensWithdrawn",
      "type": "event"
    },
    {
      "anonymous": false,
      "inputs": [
        {
          "indexed": true,
          "internalType": "address",
          "name": "previousOwner",
          "type": "address"
        },
        {
          "indexed": true,
          "internalType": "address",
          "name": "newOwner",
          "type": "address"
        }
      ],
      "name": "OwnershipTransferred",
      "type": "event"
    },
    {
      "anonymous": false,
      "inputs": [
        {
          "indexed": false,
          "internalType": "address",
          "name": "account",
          "type": "address"
        },
        {
          "indexed": false,
          "internalType": "uint256",
          "name": "amountClaimed",
          "type": "uint256"
        }
      ],
      "name": "ProveClaimed",
      "type": "event"
    },
    {
      "anonymous": false,
      "inputs": [],
      "name": "VestingEnabled",
      "type": "event"
    },
    {
      "anonymous": false,
      "inputs": [
        {
          "indexed": false,
          "internalType": "address",
          "name": "account",
          "type": "address"
        }
      ],
      "name": "investorAdded",
      "type": "event"
    },
    {
      "inputs": [
        {
          "internalType": "address",
          "name": "_account",
          "type": "address"
        },
        {
          "internalType": "uint256",
          "name": "_tokensToVest",
          "type": "uint256"
        }
      ],
      "name": "addInvestor",
      "outputs": [],
      "stateMutability": "nonpayable",
      "type": "function"
    },
    {
      "inputs": [],
      "name": "claim",
      "outputs": [],
      "stateMutability": "nonpayable",
      "type": "function"
    },
    {
      "inputs": [],
      "name": "enableVesting",
      "outputs": [],
      "stateMutability": "nonpayable",
      "type": "function"
    },
    {
      "inputs": [
        {
          "internalType": "address",
          "name": "account",
          "type": "address"
        }
      ],
      "name": "getAmountClaimed",
      "outputs": [
        {
          "internalType": "uint256",
          "name": "",
          "type": "uint256"
        }
      ],
      "stateMutability": "view",
      "type": "function"
    },
    {
      "inputs": [
        {
          "internalType": "address",
          "name": "account",
          "type": "address"
        }
      ],
      "name": "getAmountToClaim",
      "outputs": [
        {
          "internalType": "uint256",
          "name": "",
          "type": "uint256"
        }
      ],
      "stateMutability": "view",
      "type": "function"
    },
    {
      "inputs": [],
      "name": "getInvestorLibrary",
      "outputs": [
        {
          "components": [
            {
              "internalType": "address",
              "name": "account",
              "type": "address"
            },
            {
              "internalType": "uint256",
              "name": "tokensToVest",
              "type": "uint256"
            },
            {
              "internalType": "uint256",
              "name": "tokensClaimed",
              "type": "uint256"
            }
          ],
          "internalType": "struct Vesting.Investor[]",
          "name": "",
          "type": "tuple[]"
        }
      ],
      "stateMutability": "view",
      "type": "function"
    },
    {
      "inputs": [
        {
          "internalType": "address",
          "name": "",
          "type": "address"
        }
      ],
      "name": "investors",
      "outputs": [
        {
          "internalType": "bool",
          "name": "",
          "type": "bool"
        }
      ],
      "stateMutability": "view",
      "type": "function"
    },
    {
      "inputs": [
        {
          "internalType": "address",
          "name": "account",
          "type": "address"
        }
      ],
      "name": "isInvestor",
      "outputs": [
        {
          "internalType": "bool",
          "name": "",
          "type": "bool"
        }
      ],
      "stateMutability": "view",
      "type": "function"
    },
    {
      "inputs": [
        {
          "internalType": "uint256",
          "name": "time",
          "type": "uint256"
        }
      ],
      "name": "lock",
      "outputs": [],
      "stateMutability": "nonpayable",
      "type": "function"
    },
    {
      "inputs": [],
      "name": "owner",
      "outputs": [
        {
          "internalType": "address",
          "name": "",
          "type": "address"
        }
      ],
      "stateMutability": "view",
      "type": "function"
    },
    {
      "inputs": [],
      "name": "proveToken",
      "outputs": [
        {
          "internalType": "address",
          "name": "",
          "type": "address"
        }
      ],
      "stateMutability": "view",
      "type": "function"
    },
    {
      "inputs": [
        {
          "internalType": "address",
          "name": "account",
          "type": "address"
        }
      ],
      "name": "removeInvestor",
      "outputs": [],
      "stateMutability": "nonpayable",
      "type": "function"
    },
    {
      "inputs": [],
      "name": "renounceOwnership",
      "outputs": [],
      "stateMutability": "nonpayable",
      "type": "function"
    },
    {
      "inputs": [
        {
          "internalType": "address",
          "name": "newOwner",
          "type": "address"
        }
      ],
      "name": "transferOwnership",
      "outputs": [],
      "stateMutability": "nonpayable",
      "type": "function"
    },
    {
      "inputs": [],
      "name": "vestingEnabled",
      "outputs": [
        {
          "internalType": "bool",
          "name": "",
          "type": "bool"
        }
      ],
      "stateMutability": "view",
      "type": "function"
    },
    {
      "inputs": [],
      "name": "vestingStartUnix",
      "outputs": [
        {
          "internalType": "uint256",
          "name": "",
          "type": "uint256"
        }
      ],
      "stateMutability": "view",
      "type": "function"
    },
    {
      "inputs": [
        {
          "internalType": "address",
          "name": "token",
          "type": "address"
        }
      ],
      "name": "withdrawErc20",
      "outputs": [],
      "stateMutability": "nonpayable",
      "type": "function"
    }
  ],
  "bytecode": {
    "object": "0x60a06040523480156200001157600080fd5b506040516200109c3803806200109c8339810160408190526200003491620001b2565b600080546001600160a01b031916339081178255604051909182916000805160206200107c833981519152908290a3506001600160a01b0382166080526200007c8162000084565b5050620001ea565b6000546001600160a01b03163314620000e45760405162461bcd60e51b815260206004820181905260248201527f4f776e61626c653a2063616c6c6572206973206e6f7420746865206f776e657260448201526064015b60405180910390fd5b6001600160a01b0381166200014b5760405162461bcd60e51b815260206004820152602660248201527f4f776e61626c653a206e6577206f776e657220697320746865207a65726f206160448201526564647265737360d01b6064820152608401620000db565b600080546040516001600160a01b03808516939216916000805160206200107c83398151915291a3600080546001600160a01b0319166001600160a01b0392909216919091179055565b80516001600160a01b0381168114620001ad57600080fd5b919050565b60008060408385031215620001c657600080fd5b620001d18362000195565b9150620001e16020840162000195565b90509250929050565b608051610e6f6200020d600039600081816101be015261052f0152610e6f6000f3fe608060405234801561001057600080fd5b506004361061010b5760003560e01c806385d4cad3116100a2578063d36862e811610071578063d36862e814610110578063dd4670641461022a578063ec20b4571461023d578063f02c6d8f14610250578063f2fde38b1461025957600080fd5b806385d4cad3146101b95780638da5cb5b146101f8578063c7e42b1b14610209578063cee2a9cf1461021c57600080fd5b80635b904cb7116100de5780635b904cb7146101695780636f7bc9be14610171578063715018a6146101a45780637f87bbd6146101ac57600080fd5b80630bca8bcd1461011057806342714978146101375780634e71d92d1461014c57806350ad827a14610154575b600080fd5b61012461011e366004610cdc565b50600090565b6040519081526020015b60405180910390f35b61014a610145366004610cdc565b61026c565b005b61014a6102a2565b61015c61032e565b60405161012e9190610cfe565b61014a6103b0565b61019461017f366004610cdc565b60066020526000908152604090205460ff1681565b604051901515815260200161012e565b61014a61048f565b6004546101949060ff1681565b6101e07f000000000000000000000000000000000000000000000000000000000000000081565b6040516001600160a01b03909116815260200161012e565b6000546001600160a01b03166101e0565b61014a610217366004610cdc565b610503565b61019461011e366004610cdc565b61014a610238366004610d60565b610895565b61014a61024b366004610d79565b61092c565b61012460035481565b61014a610267366004610cdc565b610bd6565b6000546001600160a01b0316331461029f5760405162461bcd60e51b815260040161029690610da3565b60405180910390fd5b50565b3360009081526006602052604090205460ff16151560011461032c5760405162461bcd60e51b815260206004820152603a60248201527f56657374696e672e736f6c3a3a6f6e6c79496e766573746f722829206d73672e60448201527f73656e646572206d75737420626520616e20696e766573746f720000000000006064820152608401610296565b565b60606005805480602002602001604051908101604052809291908181526020016000905b828210156103a7576000848152602090819020604080516060810182526003860290920180546001600160a01b0316835260018082015484860152600290910154918301919091529083529092019101610352565b50505050905090565b6000546001600160a01b031633146103da5760405162461bcd60e51b815260040161029690610da3565b60045460ff16156104535760405162461bcd60e51b815260206004820152603760248201527f56657374696e672e736f6c3a3a656e61626c6556657374696e6728292076657360448201527f74696e6720697320616c726561647920656e61626c65640000000000000000006064820152608401610296565b6004805460ff19166001179055426003556040517ff78a71daf05bb8e3a2ef9c526b1bb785285cdb83a6130cd12a3bbd5c99c15fa390600090a1565b6000546001600160a01b031633146104b95760405162461bcd60e51b815260040161029690610da3565b600080546040516001600160a01b03909116907f8be0079c531659141344cd1fd0a4f28419497f9722a3daafe3b4186f6b6457e0908390a3600080546001600160a01b0319169055565b6000546001600160a01b0316331461052d5760405162461bcd60e51b815260040161029690610da3565b7f00000000000000000000000000000000000000000000000000000000000000006001600160a01b0316816001600160a01b0316036105d45760405162461bcd60e51b815260206004820152603960248201527f56657374696e672e736f6c3a3a7769746864726177457263323028292063616e60448201527f6e6f74207769746864726177202450524f564520746f6b656e000000000000006064820152608401610296565b6001600160a01b0381166106505760405162461bcd60e51b815260206004820152603760248201527f56657374696e672e736f6c3a3a77697468647261774572633230282920746f6b60448201527f656e2063616e6e6f7420626520616464726573732830290000000000000000006064820152608401610296565b6040516370a0823160e01b81523060048201526000906001600160a01b038316906370a0823190602401602060405180830381865afa158015610697573d6000803e3d6000fd5b505050506040513d601f19601f820116820180604052508101906106bb9190610dd8565b9050600081116107335760405162461bcd60e51b815260206004820152603760248201527f56657374696e672e736f6c3a3a77697468647261774572633230282920696e7360448201527f756666696369656e7420746f6b656e2062616c616e63650000000000000000006064820152608401610296565b6000826001600160a01b031663a9059cbb6107566000546001600160a01b031690565b6040516001600160e01b031960e084901b1681526001600160a01b039091166004820152602481018590526044016020604051808303816000875af11580156107a3573d6000803e3d6000fd5b505050506040513d601f19601f820116820180604052508101906107c79190610df1565b9050806108315760405162461bcd60e51b815260206004820152603260248201527f56657374696e672e736f6c3a3a776974686472617745726332302829207472616044820152711b9cd9995c881d5b9cdd58d8d95cdcd99d5b60721b6064820152608401610296565b7f3ff9434501bb42cce78344c3420ec1273f8b404aba16aaae994c0d413b91bb4f83836108666000546001600160a01b031690565b604080516001600160a01b039485168152602081019390935292168183015290519081900360600190a1505050565b6000546001600160a01b031633146108bf5760405162461bcd60e51b815260040161029690610da3565b60008054600180546001600160a01b03199081166001600160a01b038416179091551690556108ee8142610e13565b600255600080546040516001600160a01b03909116907f8be0079c531659141344cd1fd0a4f28419497f9722a3daafe3b4186f6b6457e0908390a350565b6000546001600160a01b031633146109565760405162461bcd60e51b815260040161029690610da3565b6001600160a01b03821660009081526006602052604090205460ff16156109dc5760405162461bcd60e51b815260206004820152603460248201527f56657374696e672e736f6c3a3a616464496e766573746f72282920696e7665736044820152731d1bdc881a5cc8185b1c9958591e48185919195960621b6064820152608401610296565b6001600160a01b038216610a585760405162461bcd60e51b815260206004820152603860248201527f56657374696e672e736f6c3a3a616464496e766573746f722829205f6163636f60448201527f756e742063616e6e6f74206265206164647265737328302900000000000000006064820152608401610296565b60008111610ac65760405162461bcd60e51b815260206004820152603560248201527f56657374696e672e736f6c3a3a616464496e766573746f722829205f746f6b6560448201527406e73546f56657374206d757374206265206774203605c1b6064820152608401610296565b6001600160a01b0382811660008181526006602090815260408083208054600160ff199091168117909155815160608101835285815280840188815281840186815260058054948501815590965290517f036b6384b5eca791c62761152d0c79bb0604c104a5fb6f4eb0703f3154bb3db0600390930292830180546001600160a01b031916919098161790965594517f036b6384b5eca791c62761152d0c79bb0604c104a5fb6f4eb0703f3154bb3db186015591517f036b6384b5eca791c62761152d0c79bb0604c104a5fb6f4eb0703f3154bb3db290940193909355519081527f2c385ad016af1d5b8f4eefb8aef02929aa692e7f6d846488519f2513bd7170e0910160405180910390a15050565b6000546001600160a01b03163314610c005760405162461bcd60e51b815260040161029690610da3565b6001600160a01b038116610c655760405162461bcd60e51b815260206004820152602660248201527f4f776e61626c653a206e6577206f776e657220697320746865207a65726f206160448201526564647265737360d01b6064820152608401610296565b600080546040516001600160a01b03808516939216917f8be0079c531659141344cd1fd0a4f28419497f9722a3daafe3b4186f6b6457e091a3600080546001600160a01b0319166001600160a01b0392909216919091179055565b80356001600160a01b0381168114610cd757600080fd5b919050565b600060208284031215610cee57600080fd5b610cf782610cc0565b9392505050565b602080825282518282018190526000919060409081850190868401855b82811015610d5357815180516001600160a01b0316855286810151878601528501518585015260609093019290850190600101610d1b565b5091979650505050505050565b600060208284031215610d7257600080fd5b5035919050565b60008060408385031215610d8c57600080fd5b610d9583610cc0565b946020939093013593505050565b6020808252818101527f4f776e61626c653a2063616c6c6572206973206e6f7420746865206f776e6572604082015260600190565b600060208284031215610dea57600080fd5b5051919050565b600060208284031215610e0357600080fd5b81518015158114610cf757600080fd5b60008219821115610e3457634e487b7160e01b600052601160045260246000fd5b50019056fea2646970667358221220e40bf6bbee790ba113df14b1389c2ae31e12dfab607f03d8cab08702451f529364736f6c634300080f00338be0079c531659141344cd1fd0a4f28419497f9722a3daafe3b4186f6b6457e0",
    "linkReferences": {}
  },
  "methodIdentifiers": {
    "addInvestor(address,uint256)": "ec20b457",
    "claim()": "4e71d92d",
    "enableVesting()": "5b904cb7",
    "getAmountClaimed(address)": "d36862e8",
    "getAmountToClaim(address)": "0bca8bcd",
    "getInvestorLibrary()": "50ad827a",
    "investors(address)": "6f7bc9be",
    "isInvestor(address)": "cee2a9cf",
    "lock(uint256)": "dd467064",
    "owner()": "8da5cb5b",
    "proveToken()": "85d4cad3",
    "removeInvestor(address)": "42714978",
    "renounceOwnership()": "715018a6",
    "transferOwnership(address)": "f2fde38b",
    "vestingEnabled()": "7f87bbd6",
    "vestingStartUnix()": "f02c6d8f",
    "withdrawErc20(address)": "c7e42b1b"
  },
  "id": 14
}