{
  "abi": [
    {
      "inputs": [
        {
          "internalType": "address",
          "name": "_admin",
          "type": "address"
        },
        {
          "internalType": "address",
          "name": "_taxToken",
          "type": "address"
        },
        {
          "internalType": "address",
          "name": "_stable",
          "type": "address"
        }
      ],
      "stateMutability": "nonpayable",
      "type": "constructor"
    },
    {
      "anonymous": false,
      "inputs": [
        {
          "indexed": true,
          "internalType": "address",
          "name": "previousOwner",
          "type": "address"
        },
        {
          "indexed": true,
          "internalType": "address",
          "name": "newOwner",
          "type": "address"
        }
      ],
      "name": "OwnershipTransferred",
      "type": "event"
    },
    {
      "anonymous": false,
      "inputs": [
        {
          "indexed": true,
          "internalType": "address",
          "name": "recipient",
          "type": "address"
        },
        {
          "indexed": false,
          "internalType": "uint256",
          "name": "amount",
          "type": "uint256"
        },
        {
          "indexed": false,
          "internalType": "address",
          "name": "asset",
          "type": "address"
        }
      ],
      "name": "RoyaltiesDistributed",
      "type": "event"
    },
    {
      "anonymous": false,
      "inputs": [
        {
          "indexed": false,
          "internalType": "uint256",
          "name": "amountReceived",
          "type": "uint256"
        },
        {
          "indexed": false,
          "internalType": "uint256",
          "name": "newTotal",
          "type": "uint256"
        }
      ],
      "name": "RoyaltiesReceived",
      "type": "event"
    },
    {
      "anonymous": false,
      "inputs": [
        {
          "indexed": false,
          "internalType": "address",
          "name": "currentStable",
          "type": "address"
        },
        {
          "indexed": false,
          "internalType": "address",
          "name": "newStable",
          "type": "address"
        }
      ],
      "name": "StableUpdated",
      "type": "event"
    },
    {
      "inputs": [],
      "name": "UNIV2_ROUTER",
      "outputs": [
        {
          "internalType": "address",
          "name": "",
          "type": "address"
        }
      ],
      "stateMutability": "view",
      "type": "function"
    },
    {
      "inputs": [],
      "name": "WETH",
      "outputs": [
        {
          "internalType": "address",
          "name": "",
          "type": "address"
        }
      ],
      "stateMutability": "view",
      "type": "function"
    },
    {
      "inputs": [
        {
          "internalType": "uint256",
          "name": "",
          "type": "uint256"
        }
      ],
      "name": "WethAccruedForTaxType",
      "outputs": [
        {
          "internalType": "uint256",
          "name": "",
          "type": "uint256"
        }
      ],
      "stateMutability": "view",
      "type": "function"
    },
    {
      "inputs": [],
      "name": "admin",
      "outputs": [
        {
          "internalType": "address",
          "name": "",
          "type": "address"
        }
      ],
      "stateMutability": "view",
      "type": "function"
    },
    {
      "inputs": [],
      "name": "amountRoyaltiesWeth",
      "outputs": [
        {
          "internalType": "uint256",
          "name": "",
          "type": "uint256"
        }
      ],
      "stateMutability": "view",
      "type": "function"
    },
    {
      "inputs": [],
      "name": "distributeTaxes",
      "outputs": [
        {
          "internalType": "uint256",
          "name": "_amountToDistribute",
          "type": "uint256"
        }
      ],
      "stateMutability": "nonpayable",
      "type": "function"
    },
    {
      "inputs": [
        {
          "internalType": "address",
          "name": "",
          "type": "address"
        }
      ],
      "name": "distributionsStable",
      "outputs": [
        {
          "internalType": "uint256",
          "name": "",
          "type": "uint256"
        }
      ],
      "stateMutability": "view",
      "type": "function"
    },
    {
      "inputs": [
        {
          "internalType": "address[]",
          "name": "_path",
          "type": "address[]"
        },
        {
          "internalType": "uint256",
          "name": "_taxType",
          "type": "uint256"
        }
      ],
      "name": "exchangeRateForTaxType",
      "outputs": [
        {
          "internalType": "uint256",
          "name": "",
          "type": "uint256"
        }
      ],
      "stateMutability": "view",
      "type": "function"
    },
    {
      "inputs": [
        {
          "internalType": "address[]",
          "name": "_path",
          "type": "address[]"
        }
      ],
      "name": "exchangeRateForWethToStable",
      "outputs": [
        {
          "internalType": "uint256",
          "name": "",
          "type": "uint256"
        }
      ],
      "stateMutability": "view",
      "type": "function"
    },
    {
      "inputs": [
        {
          "internalType": "uint256",
          "name": "time",
          "type": "uint256"
        }
      ],
      "name": "lock",
      "outputs": [],
      "stateMutability": "nonpayable",
      "type": "function"
    },
    {
      "inputs": [],
      "name": "owner",
      "outputs": [
        {
          "internalType": "address",
          "name": "",
          "type": "address"
        }
      ],
      "stateMutability": "view",
      "type": "function"
    },
    {
      "inputs": [],
      "name": "renounceOwnership",
      "outputs": [],
      "stateMutability": "nonpayable",
      "type": "function"
    },
    {
      "inputs": [
        {
          "internalType": "address",
          "name": "_token",
          "type": "address"
        }
      ],
      "name": "safeWithdraw",
      "outputs": [],
      "stateMutability": "nonpayable",
      "type": "function"
    },
    {
      "inputs": [
        {
          "internalType": "uint256",
          "name": "_walletCount",
          "type": "uint256"
        },
        {
          "internalType": "address[]",
          "name": "_wallets",
          "type": "address[]"
        },
        {
          "internalType": "uint256[]",
          "name": "_percentDistribution",
          "type": "uint256[]"
        }
      ],
      "name": "setTaxDistribution",
      "outputs": [],
      "stateMutability": "nonpayable",
      "type": "function"
    },
    {
      "inputs": [],
      "name": "stable",
      "outputs": [
        {
          "internalType": "address",
          "name": "",
          "type": "address"
        }
      ],
      "stateMutability": "view",
      "type": "function"
    },
    {
      "inputs": [],
      "name": "taxSettings",
      "outputs": [
        {
          "internalType": "uint256",
          "name": "walletCount",
          "type": "uint256"
        }
      ],
      "stateMutability": "view",
      "type": "function"
    },
    {
      "inputs": [],
      "name": "taxToken",
      "outputs": [
        {
          "internalType": "address",
          "name": "",
          "type": "address"
        }
      ],
      "stateMutability": "view",
      "type": "function"
    },
    {
      "inputs": [
        {
          "internalType": "uint256",
          "name": "",
          "type": "uint256"
        }
      ],
      "name": "taxTokenAccruedForTaxType",
      "outputs": [
        {
          "internalType": "uint256",
          "name": "",
          "type": "uint256"
        }
      ],
      "stateMutability": "view",
      "type": "function"
    },
    {
      "inputs": [
        {
          "internalType": "address",
          "name": "newOwner",
          "type": "address"
        }
      ],
      "name": "transferOwnership",
      "outputs": [],
      "stateMutability": "nonpayable",
      "type": "function"
    },
    {
      "inputs": [
        {
          "internalType": "address",
          "name": "_stable",
          "type": "address"
        }
      ],
      "name": "updateStable",
      "outputs": [],
      "stateMutability": "nonpayable",
      "type": "function"
    },
    {
      "inputs": [
        {
          "internalType": "uint256",
          "name": "_amt",
          "type": "uint256"
        }
      ],
      "name": "updateTaxesAccrued",
      "outputs": [],
      "stateMutability": "nonpayable",
      "type": "function"
    },
    {
      "inputs": [],
      "name": "viewTaxSettings",
      "outputs": [
        {
          "internalType": "uint256",
          "name": "",
          "type": "uint256"
        },
        {
          "internalType": "address[]",
          "name": "",
          "type": "address[]"
        },
        {
          "internalType": "uint256[]",
          "name": "",
          "type": "uint256[]"
        }
      ],
      "stateMutability": "view",
      "type": "function"
    },
    {
      "inputs": [],
      "name": "viewTaxesAccrued",
      "outputs": [
        {
          "internalType": "uint256",
          "name": "_amountAccrued",
          "type": "uint256"
        }
      ],
      "stateMutability": "view",
      "type": "function"
    }
  ],
  "bytecode": {
    "object": "0x60806040523480156200001157600080fd5b5060405162001a1f38038062001a1f833981016040819052620000349162000270565b600080546001600160a01b03191633908117825560405190918291600080516020620019ff833981519152908290a350600380546001600160a01b038085166001600160a01b03199283161790925560048054928416929091169190911790556200009f8362000142565b737a250d5630b4cf539739df2c5dacb4c659f2488d6001600160a01b031663ad5c46486040518163ffffffff1660e01b8152600401602060405180830381865afa158015620000f2573d6000803e3d6000fd5b505050506040513d601f19601f82011682018060405250810190620001189190620002ba565b600780546001600160a01b0319166001600160a01b039290921691909117905550620002df915050565b6000546001600160a01b03163314620001a25760405162461bcd60e51b815260206004820181905260248201527f4f776e61626c653a2063616c6c6572206973206e6f7420746865206f776e657260448201526064015b60405180910390fd5b6001600160a01b038116620002095760405162461bcd60e51b815260206004820152602660248201527f4f776e61626c653a206e6577206f776e657220697320746865207a65726f206160448201526564647265737360d01b606482015260840162000199565b600080546040516001600160a01b0380851693921691600080516020620019ff83398151915291a3600080546001600160a01b0319166001600160a01b0392909216919091179055565b80516001600160a01b03811681146200026b57600080fd5b919050565b6000806000606084860312156200028657600080fd5b620002918462000253565b9250620002a16020850162000253565b9150620002b16040850162000253565b90509250925092565b600060208284031215620002cd57600080fd5b620002d88262000253565b9392505050565b61171080620002ef6000396000f3fe608060405234801561001057600080fd5b506004361061014d5760003560e01c8063838a4107116100c3578063cdb6ee381161007c578063cdb6ee38146102c3578063dd467064146102d6578063ed0ce006146102e9578063f2fde38b146102fc578063f66ed0141461030f578063f851a4401461032257600080fd5b8063838a4107146102435780638da5cb5b1461025657806395e4a6b314610267578063ad5c464814610287578063ba13f4c51461029a578063bf66dc6e146102a357600080fd5b8063676d356311610115578063676d3563146101db57806368a61804146101f6578063715018a6146101fe57806371fc737c14610208578063755965b814610210578063813db8f31461022357600080fd5b80631f72028d146101525780631fc928ae1461017257806322be3de11461019d57806331392fcb146101b057806331e912a8146101c8575b600080fd5b61015a610335565b604051610169939291906111e2565b60405180910390f35b600354610185906001600160a01b031681565b6040516001600160a01b039091168152602001610169565b600454610185906001600160a01b031681565b600b546101ba9081565b604051908152602001610169565b6101ba6101d6366004611336565b610403565b610185737a250d5630b4cf539739df2c5dacb4c659f2488d81565b6006546101ba565b6102066104b2565b005b6101ba61052f565b61020661021e366004611373565b610939565b6101ba610231366004611373565b60096020526000908152604090205481565b61020661025136600461138c565b6109a7565b6000546001600160a01b0316610185565b6101ba61027536600461138c565b600a6020526000908152604090205481565b600754610185906001600160a01b031681565b6101ba60065481565b6101ba6102b1366004611373565b60086020526000908152604090205481565b6102066102d136600461138c565b610add565b6102066102e4366004611373565b610be5565b6101ba6102f73660046113ae565b610c7c565b61020661030a36600461138c565b610d36565b61020661031d36600461143f565b610e20565b600554610185906001600160a01b031681565b6000606080600b60000154600b600101600b6002018180548060200260200160405190810160405280929190818152602001828054801561039f57602002820191906000526020600020905b81546001600160a01b03168152600190910190602001808311610381575b50505050509150808054806020026020016040519081016040528092919081815260200182805480156103f157602002820191906000526020600020905b8154815260200190600101908083116103dd575b50505050509050925092509250909192565b60065460405163d06ca61f60e01b8152600091737a250d5630b4cf539739df2c5dacb4c659f2488d9163d06ca61f916104409186906004016114b9565b600060405180830381865afa15801561045d573d6000803e3d6000fd5b505050506040513d6000823e601f3d908101601f1916820160405261048591908101906114d2565b600183516104939190611579565b815181106104a3576104a3611590565b60200260200101519050919050565b6000546001600160a01b031633146104e55760405162461bcd60e51b81526004016104dc906115a6565b60405180910390fd5b600080546040516001600160a01b03909116907f8be0079c531659141344cd1fd0a4f28419497f9722a3daafe3b4186f6b6457e0908390a3600080546001600160a01b0319169055565b600654801561093657600060065560075460405163095ea7b360e01b8152737a250d5630b4cf539739df2c5dacb4c659f2488d6004820152602481018390526001600160a01b039091169063095ea7b3906044016020604051808303816000875af11580156105a2573d6000803e3d6000fd5b505050506040513d601f19601f820116820180604052508101906105c691906115db565b6105d2576105d26115fd565b604080516002808252606082018352600092602083019080368337505060075482519293506001600160a01b03169183915060009061061357610613611590565b6001600160a01b03928316602091820292909201015260045482519116908290600190811061064457610644611590565b6001600160a01b0390921660209283029190910190910152737a250d5630b4cf539739df2c5dacb4c659f2488d6338ed1739836000843061068742617530611613565b6040518663ffffffff1660e01b81526004016106a795949392919061162b565b6000604051808303816000875af11580156106c6573d6000803e3d6000fd5b505050506040513d6000823e601f3d908101601f191682016040526106ee91908101906114d2565b50600480546040516370a0823160e01b815230928101929092526000916001600160a01b03909116906370a0823190602401602060405180830381865afa15801561073d573d6000803e3d6000fd5b505050506040513d601f19601f820116820180604052508101906107619190611667565b905060005b600c548110156109325760006064600b600201838154811061078a5761078a611590565b9060005260206000200154846107a09190611680565b6107aa919061169f565b600454600c80549293506001600160a01b039091169163a9059cbb9190859081106107d7576107d7611590565b60009182526020909120015460405160e083901b6001600160e01b03191681526001600160a01b039091166004820152602481018490526044016020604051808303816000875af1158015610830573d6000803e3d6000fd5b505050506040513d601f19601f8201168201806040525081019061085491906115db565b610860576108606115fd565b80600a6000600b600101858154811061087b5761087b611590565b60009182526020808320909101546001600160a01b03168352820192909252604001812080549091906108af908490611613565b9091555050600c8054839081106108c8576108c8611590565b60009182526020918290200154600454604080518581526001600160a01b03928316948101949094529116917f9feb579bbc7ffef3037d91ecb8e45b70c8049afa8741cd4cb398926bd98f6922910160405180910390a2508061092a816116c1565b915050610766565b5050505b90565b6003546001600160a01b0316331461095057600080fd5b80600660008282546109629190611613565b90915550506006546040805183815260208101929092527fe8f58c2c4663d8d9bab1fcd91c3bef339c90e81754e2d0ec7e888c5c0b56b08d910160405180910390a150565b6000546001600160a01b031633146109d15760405162461bcd60e51b81526004016104dc906115a6565b6007546001600160a01b03908116908216036109ed5760006006555b6040516370a0823160e01b81523060048201526001600160a01b0382169063a9059cbb90339083906370a0823190602401602060405180830381865afa158015610a3b573d6000803e3d6000fd5b505050506040513d601f19601f82011682018060405250810190610a5f9190611667565b6040516001600160e01b031960e085901b1681526001600160a01b03909216600483015260248201526044016020604051808303816000875af1158015610aaa573d6000803e3d6000fd5b505050506040513d601f19601f82011682018060405250810190610ace91906115db565b610ada57610ada6115fd565b50565b6000546001600160a01b03163314610b075760405162461bcd60e51b81526004016104dc906115a6565b6004546001600160a01b0390811690821603610b7c5760405162461bcd60e51b815260206004820152602e60248201527f54726561737572792e736f6c3a3a757064617465537461626c6528292076616c60448201526d1d5948185b1c9958591e481cd95d60921b60648201526084016104dc565b600454604080516001600160a01b03928316815291831660208301527fbe67eb17c76f052c9025267eaab09f6b7c384a42bb6830eb5f36665113cadf70910160405180910390a1600480546001600160a01b0319166001600160a01b0392909216919091179055565b6000546001600160a01b03163314610c0f5760405162461bcd60e51b81526004016104dc906115a6565b60008054600180546001600160a01b03199081166001600160a01b03841617909155169055610c3e8142611613565b600255600080546040516001600160a01b03909116907f8be0079c531659141344cd1fd0a4f28419497f9722a3daafe3b4186f6b6457e0908390a350565b60008181526008602052604080822054905163d06ca61f60e01b8152737a250d5630b4cf539739df2c5dacb4c659f2488d9163d06ca61f91610cc3919087906004016114b9565b600060405180830381865afa158015610ce0573d6000803e3d6000fd5b505050506040513d6000823e601f3d908101601f19168201604052610d0891908101906114d2565b60018451610d169190611579565b81518110610d2657610d26611590565b6020026020010151905092915050565b6000546001600160a01b03163314610d605760405162461bcd60e51b81526004016104dc906115a6565b6001600160a01b038116610dc55760405162461bcd60e51b815260206004820152602660248201527f4f776e61626c653a206e6577206f776e657220697320746865207a65726f206160448201526564647265737360d01b60648201526084016104dc565b600080546040516001600160a01b03808516939216917f8be0079c531659141344cd1fd0a4f28419497f9722a3daafe3b4186f6b6457e091a3600080546001600160a01b0319166001600160a01b0392909216919091179055565b6000546001600160a01b03163314610e4a5760405162461bcd60e51b81526004016104dc906115a6565b848314610ed05760405162461bcd60e51b815260206004820152604860248201527f54726561737572792e736f6c3a3a736574546178446973747269627574696f6e60448201527f28292c2077616c6c6574436f756e74206c656e67746820213d2077616c6c65746064820152670e65cd8cadccee8d60c31b608482015260a4016104dc565b848114610f625760405162461bcd60e51b815260206004820152605460248201527f54726561737572792e736f6c3a3a736574546178446973747269627574696f6e60448201527f28292c2077616c6c6574436f756e74206c656e67746820213d2070657263656e6064820152730e888d2e6e8e4d2c4eae8d2dedc5cd8cadccee8d60631b608482015260a4016104dc565b6000805b86811015610fa657838382818110610f8057610f80611590565b9050602002013582610f929190611613565b915080610f9e816116c1565b915050610f66565b50806064146110275760405162461bcd60e51b815260206004820152604160248201527f54726561737572792e736f6c3a3a736574546178446973747269627574696f6e60448201527f28292c2073756d50657263656e74446973747269627574696f6e20213d2031306064820152600360fc1b608482015260a4016104dc565b6040518060600160405280878152602001868680806020026020016040519081016040528093929190818152602001838360200280828437600092019190915250505090825250604080516020868102828101820190935286825292830192909187918791829185019084908082843760009201919091525050509152508051600b90815560208083015180516110c292600c9201906110e9565b50604082015180516110de91600284019160209091019061114e565b505050505050505050565b82805482825590600052602060002090810192821561113e579160200282015b8281111561113e57825182546001600160a01b0319166001600160a01b03909116178255602090920191600190910190611109565b5061114a929150611189565b5090565b82805482825590600052602060002090810192821561113e579160200282015b8281111561113e57825182559160200191906001019061116e565b5b8082111561114a576000815560010161118a565b600081518084526020808501945080840160005b838110156111d75781516001600160a01b0316875295820195908201906001016111b2565b509495945050505050565b838152600060206060818401526111fc606084018661119e565b838103604085015284518082528286019183019060005b8181101561122f57835183529284019291840191600101611213565b509098975050505050505050565b634e487b7160e01b600052604160045260246000fd5b604051601f8201601f1916810167ffffffffffffffff8111828210171561127c5761127c61123d565b604052919050565b600067ffffffffffffffff82111561129e5761129e61123d565b5060051b60200190565b80356001600160a01b03811681146112bf57600080fd5b919050565b600082601f8301126112d557600080fd5b813560206112ea6112e583611284565b611253565b82815260059290921b8401810191818101908684111561130957600080fd5b8286015b8481101561132b5761131e816112a8565b835291830191830161130d565b509695505050505050565b60006020828403121561134857600080fd5b813567ffffffffffffffff81111561135f57600080fd5b61136b848285016112c4565b949350505050565b60006020828403121561138557600080fd5b5035919050565b60006020828403121561139e57600080fd5b6113a7826112a8565b9392505050565b600080604083850312156113c157600080fd5b823567ffffffffffffffff8111156113d857600080fd5b6113e4858286016112c4565b95602094909401359450505050565b60008083601f84011261140557600080fd5b50813567ffffffffffffffff81111561141d57600080fd5b6020830191508360208260051b850101111561143857600080fd5b9250929050565b60008060008060006060868803121561145757600080fd5b85359450602086013567ffffffffffffffff8082111561147657600080fd5b61148289838a016113f3565b9096509450604088013591508082111561149b57600080fd5b506114a8888289016113f3565b969995985093965092949392505050565b82815260406020820152600061136b604083018461119e565b600060208083850312156114e557600080fd5b825167ffffffffffffffff8111156114fc57600080fd5b8301601f8101851361150d57600080fd5b805161151b6112e582611284565b81815260059190911b8201830190838101908783111561153a57600080fd5b928401925b828410156115585783518252928401929084019061153f565b979650505050505050565b634e487b7160e01b600052601160045260246000fd5b60008282101561158b5761158b611563565b500390565b634e487b7160e01b600052603260045260246000fd5b6020808252818101527f4f776e61626c653a2063616c6c6572206973206e6f7420746865206f776e6572604082015260600190565b6000602082840312156115ed57600080fd5b815180151581146113a757600080fd5b634e487b7160e01b600052600160045260246000fd5b6000821982111561162657611626611563565b500190565b85815284602082015260a06040820152600061164a60a083018661119e565b6001600160a01b0394909416606083015250608001529392505050565b60006020828403121561167957600080fd5b5051919050565b600081600019048311821515161561169a5761169a611563565b500290565b6000826116bc57634e487b7160e01b600052601260045260246000fd5b500490565b6000600182016116d3576116d3611563565b506001019056fea264697066735822122083afb4b6a1839860c5778cef5a7f10d1bb5def6021564255a58262f59ca3802464736f6c634300080f00338be0079c531659141344cd1fd0a4f28419497f9722a3daafe3b4186f6b6457e0",
    "linkReferences": {}
  },
  "methodIdentifiers": {
    "UNIV2_ROUTER()": "676d3563",
    "WETH()": "ad5c4648",
    "WethAccruedForTaxType(uint256)": "813db8f3",
    "admin()": "f851a440",
    "amountRoyaltiesWeth()": "ba13f4c5",
    "distributeTaxes()": "71fc737c",
    "distributionsStable(address)": "95e4a6b3",
    "exchangeRateForTaxType(address[],uint256)": "ed0ce006",
    "exchangeRateForWethToStable(address[])": "31e912a8",
    "lock(uint256)": "dd467064",
    "owner()": "8da5cb5b",
    "renounceOwnership()": "715018a6",
    "safeWithdraw(address)": "838a4107",
    "setTaxDistribution(uint256,address[],uint256[])": "f66ed014",
    "stable()": "22be3de1",
    "taxSettings()": "31392fcb",
    "taxToken()": "1fc928ae",
    "taxTokenAccruedForTaxType(uint256)": "bf66dc6e",
    "transferOwnership(address)": "f2fde38b",
    "updateStable(address)": "cdb6ee38",
    "updateTaxesAccrued(uint256)": "755965b8",
    "viewTaxSettings()": "1f72028d",
    "viewTaxesAccrued()": "68a61804"
  },
  "id": 17
}