{
  "abi": [
    {
      "inputs": [
        {
          "internalType": "uint256",
          "name": "totalSupplyInput",
          "type": "uint256"
        },
        {
          "internalType": "string",
          "name": "nameInput",
          "type": "string"
        },
        {
          "internalType": "string",
          "name": "symbolInput",
          "type": "string"
        },
        {
          "internalType": "uint8",
          "name": "decimalsInput",
          "type": "uint8"
        },
        {
          "internalType": "uint256",
          "name": "maxWalletSizeInput",
          "type": "uint256"
        },
        {
          "internalType": "uint256",
          "name": "maxTxAmountInput",
          "type": "uint256"
        }
      ],
      "stateMutability": "nonpayable",
      "type": "constructor"
    },
    {
      "anonymous": false,
      "inputs": [
        {
          "indexed": true,
          "internalType": "address",
          "name": "owner",
          "type": "address"
        },
        {
          "indexed": true,
          "internalType": "address",
          "name": "spender",
          "type": "address"
        },
        {
          "indexed": false,
          "internalType": "uint256",
          "name": "value",
          "type": "uint256"
        }
      ],
      "name": "Approval",
      "type": "event"
    },
    {
      "anonymous": false,
      "inputs": [
        {
          "indexed": false,
          "internalType": "address",
          "name": "",
          "type": "address"
        },
        {
          "indexed": false,
          "internalType": "address",
          "name": "",
          "type": "address"
        }
      ],
      "name": "DepositorUpdated",
      "type": "event"
    },
    {
      "anonymous": false,
      "inputs": [
        {
          "indexed": false,
          "internalType": "uint256",
          "name": "",
          "type": "uint256"
        }
      ],
      "name": "MaxTxUpdated",
      "type": "event"
    },
    {
      "anonymous": false,
      "inputs": [
        {
          "indexed": false,
          "internalType": "uint256",
          "name": "",
          "type": "uint256"
        }
      ],
      "name": "MaxWalletUpdated",
      "type": "event"
    },
    {
      "anonymous": false,
      "inputs": [
        {
          "indexed": true,
          "internalType": "address",
          "name": "previousOwner",
          "type": "address"
        },
        {
          "indexed": true,
          "internalType": "address",
          "name": "newOwner",
          "type": "address"
        }
      ],
      "name": "OwnershipTransferred",
      "type": "event"
    },
    {
      "anonymous": false,
      "inputs": [
        {
          "indexed": false,
          "internalType": "address",
          "name": "",
          "type": "address"
        }
      ],
      "name": "Paused",
      "type": "event"
    },
    {
      "anonymous": false,
      "inputs": [],
      "name": "TaxesPermanentlyRemoved",
      "type": "event"
    },
    {
      "anonymous": false,
      "inputs": [
        {
          "indexed": true,
          "internalType": "address",
          "name": "from",
          "type": "address"
        },
        {
          "indexed": true,
          "internalType": "address",
          "name": "to",
          "type": "address"
        },
        {
          "indexed": false,
          "internalType": "uint256",
          "name": "value",
          "type": "uint256"
        }
      ],
      "name": "Transfer",
      "type": "event"
    },
    {
      "anonymous": false,
      "inputs": [
        {
          "indexed": true,
          "internalType": "address",
          "name": "_treasury",
          "type": "address"
        },
        {
          "indexed": false,
          "internalType": "uint256",
          "name": "_value",
          "type": "uint256"
        }
      ],
      "name": "TransferTax",
      "type": "event"
    },
    {
      "anonymous": false,
      "inputs": [
        {
          "indexed": false,
          "internalType": "address",
          "name": "",
          "type": "address"
        },
        {
          "indexed": false,
          "internalType": "address",
          "name": "",
          "type": "address"
        }
      ],
      "name": "TreasuryUpdated",
      "type": "event"
    },
    {
      "anonymous": false,
      "inputs": [
        {
          "indexed": false,
          "internalType": "address",
          "name": "",
          "type": "address"
        }
      ],
      "name": "Unpaused",
      "type": "event"
    },
    {
      "anonymous": false,
      "inputs": [
        {
          "indexed": true,
          "internalType": "address",
          "name": "_account",
          "type": "address"
        },
        {
          "indexed": false,
          "internalType": "bool",
          "name": "_state",
          "type": "bool"
        }
      ],
      "name": "UpdatedAuthorizedWallets",
      "type": "event"
    },
    {
      "anonymous": false,
      "inputs": [
        {
          "indexed": false,
          "internalType": "address",
          "name": "",
          "type": "address"
        },
        {
          "indexed": false,
          "internalType": "address",
          "name": "",
          "type": "address"
        }
      ],
      "name": "VestingUpdated",
      "type": "event"
    },
    {
      "inputs": [],
      "name": "UNISWAP_V2_PAIR",
      "outputs": [
        {
          "internalType": "address",
          "name": "",
          "type": "address"
        }
      ],
      "stateMutability": "view",
      "type": "function"
    },
    {
      "inputs": [],
      "name": "UNIV2_ROUTER",
      "outputs": [
        {
          "internalType": "address",
          "name": "",
          "type": "address"
        }
      ],
      "stateMutability": "view",
      "type": "function"
    },
    {
      "inputs": [
        {
          "internalType": "uint8",
          "name": "_taxType",
          "type": "uint8"
        },
        {
          "internalType": "uint256",
          "name": "_bpt",
          "type": "uint256"
        }
      ],
      "name": "adjustBasisPointsTax",
      "outputs": [],
      "stateMutability": "nonpayable",
      "type": "function"
    },
    {
      "inputs": [
        {
          "internalType": "address",
          "name": "owner",
          "type": "address"
        },
        {
          "internalType": "address",
          "name": "spender",
          "type": "address"
        }
      ],
      "name": "allowance",
      "outputs": [
        {
          "internalType": "uint256",
          "name": "",
          "type": "uint256"
        }
      ],
      "stateMutability": "view",
      "type": "function"
    },
    {
      "inputs": [
        {
          "internalType": "address",
          "name": "spender",
          "type": "address"
        },
        {
          "internalType": "uint256",
          "name": "amount",
          "type": "uint256"
        }
      ],
      "name": "approve",
      "outputs": [
        {
          "internalType": "bool",
          "name": "",
          "type": "bool"
        }
      ],
      "stateMutability": "nonpayable",
      "type": "function"
    },
    {
      "inputs": [
        {
          "internalType": "address",
          "name": "",
          "type": "address"
        }
      ],
      "name": "authorized",
      "outputs": [
        {
          "internalType": "bool",
          "name": "",
          "type": "bool"
        }
      ],
      "stateMutability": "view",
      "type": "function"
    },
    {
      "inputs": [
        {
          "internalType": "address",
          "name": "account",
          "type": "address"
        }
      ],
      "name": "balanceOf",
      "outputs": [
        {
          "internalType": "uint256",
          "name": "",
          "type": "uint256"
        }
      ],
      "stateMutability": "view",
      "type": "function"
    },
    {
      "inputs": [
        {
          "internalType": "uint8",
          "name": "",
          "type": "uint8"
        }
      ],
      "name": "basisPointsTax",
      "outputs": [
        {
          "internalType": "uint256",
          "name": "",
          "type": "uint256"
        }
      ],
      "stateMutability": "view",
      "type": "function"
    },
    {
      "inputs": [
        {
          "internalType": "address",
          "name": "",
          "type": "address"
        }
      ],
      "name": "blacklist",
      "outputs": [
        {
          "internalType": "bool",
          "name": "",
          "type": "bool"
        }
      ],
      "stateMutability": "view",
      "type": "function"
    },
    {
      "inputs": [
        {
          "internalType": "address",
          "name": "_wallet",
          "type": "address"
        },
        {
          "internalType": "uint256",
          "name": "_amount",
          "type": "uint256"
        }
      ],
      "name": "burn",
      "outputs": [],
      "stateMutability": "nonpayable",
      "type": "function"
    },
    {
      "inputs": [],
      "name": "decimals",
      "outputs": [
        {
          "internalType": "uint8",
          "name": "",
          "type": "uint8"
        }
      ],
      "stateMutability": "view",
      "type": "function"
    },
    {
      "inputs": [
        {
          "internalType": "address",
          "name": "spender",
          "type": "address"
        },
        {
          "internalType": "uint256",
          "name": "subtractedValue",
          "type": "uint256"
        }
      ],
      "name": "decreaseAllowance",
      "outputs": [
        {
          "internalType": "bool",
          "name": "",
          "type": "bool"
        }
      ],
      "stateMutability": "nonpayable",
      "type": "function"
    },
    {
      "inputs": [],
      "name": "depositor",
      "outputs": [
        {
          "internalType": "address",
          "name": "",
          "type": "address"
        }
      ],
      "stateMutability": "view",
      "type": "function"
    },
    {
      "inputs": [],
      "name": "distributeRoyaltiesToTreasury",
      "outputs": [],
      "stateMutability": "nonpayable",
      "type": "function"
    },
    {
      "inputs": [],
      "name": "getContractTokenBalance",
      "outputs": [
        {
          "internalType": "uint256",
          "name": "",
          "type": "uint256"
        }
      ],
      "stateMutability": "view",
      "type": "function"
    },
    {
      "inputs": [
        {
          "internalType": "address",
          "name": "_wallet",
          "type": "address"
        }
      ],
      "name": "getIndustryTokens",
      "outputs": [
        {
          "internalType": "uint256",
          "name": "numTokens",
          "type": "uint256"
        },
        {
          "internalType": "uint256",
          "name": "numIndustryTokens",
          "type": "uint256"
        },
        {
          "internalType": "uint256",
          "name": "numDifference",
          "type": "uint256"
        },
        {
          "internalType": "uint256",
          "name": "lifetime",
          "type": "uint256"
        }
      ],
      "stateMutability": "view",
      "type": "function"
    },
    {
      "inputs": [
        {
          "internalType": "address",
          "name": "spender",
          "type": "address"
        },
        {
          "internalType": "uint256",
          "name": "addedValue",
          "type": "uint256"
        }
      ],
      "name": "increaseAllowance",
      "outputs": [
        {
          "internalType": "bool",
          "name": "",
          "type": "bool"
        }
      ],
      "stateMutability": "nonpayable",
      "type": "function"
    },
    {
      "inputs": [
        {
          "internalType": "address",
          "name": "_wallet",
          "type": "address"
        },
        {
          "internalType": "uint256",
          "name": "_amount",
          "type": "uint256"
        }
      ],
      "name": "industryBurn",
      "outputs": [],
      "stateMutability": "nonpayable",
      "type": "function"
    },
    {
      "inputs": [
        {
          "internalType": "address",
          "name": "_wallet",
          "type": "address"
        },
        {
          "internalType": "uint256",
          "name": "_amount",
          "type": "uint256"
        }
      ],
      "name": "industryMint",
      "outputs": [],
      "stateMutability": "nonpayable",
      "type": "function"
    },
    {
      "inputs": [
        {
          "internalType": "address",
          "name": "",
          "type": "address"
        }
      ],
      "name": "industryTokens",
      "outputs": [
        {
          "internalType": "uint256",
          "name": "",
          "type": "uint256"
        }
      ],
      "stateMutability": "view",
      "type": "function"
    },
    {
      "inputs": [
        {
          "internalType": "address",
          "name": "",
          "type": "address"
        }
      ],
      "name": "lifetimeIndustryTokens",
      "outputs": [
        {
          "internalType": "uint256",
          "name": "",
          "type": "uint256"
        }
      ],
      "stateMutability": "view",
      "type": "function"
    },
    {
      "inputs": [
        {
          "internalType": "uint256",
          "name": "time",
          "type": "uint256"
        }
      ],
      "name": "lock",
      "outputs": [],
      "stateMutability": "nonpayable",
      "type": "function"
    },
    {
      "inputs": [],
      "name": "maxContractTokenBalance",
      "outputs": [
        {
          "internalType": "uint256",
          "name": "",
          "type": "uint256"
        }
      ],
      "stateMutability": "view",
      "type": "function"
    },
    {
      "inputs": [],
      "name": "maxTxAmount",
      "outputs": [
        {
          "internalType": "uint256",
          "name": "",
          "type": "uint256"
        }
      ],
      "stateMutability": "view",
      "type": "function"
    },
    {
      "inputs": [],
      "name": "maxWalletSize",
      "outputs": [
        {
          "internalType": "uint256",
          "name": "",
          "type": "uint256"
        }
      ],
      "stateMutability": "view",
      "type": "function"
    },
    {
      "inputs": [
        {
          "internalType": "address",
          "name": "_wallet",
          "type": "address"
        },
        {
          "internalType": "uint256",
          "name": "_amount",
          "type": "uint256"
        }
      ],
      "name": "mint",
      "outputs": [],
      "stateMutability": "nonpayable",
      "type": "function"
    },
    {
      "inputs": [
        {
          "internalType": "address",
          "name": "_wallet",
          "type": "address"
        },
        {
          "internalType": "bool",
          "name": "_blacklist",
          "type": "bool"
        }
      ],
      "name": "modifyBlacklist",
      "outputs": [],
      "stateMutability": "nonpayable",
      "type": "function"
    },
    {
      "inputs": [
        {
          "internalType": "address",
          "name": "_wallet",
          "type": "address"
        },
        {
          "internalType": "bool",
          "name": "_whitelisted",
          "type": "bool"
        }
      ],
      "name": "modifyWhitelist",
      "outputs": [],
      "stateMutability": "nonpayable",
      "type": "function"
    },
    {
      "inputs": [],
      "name": "name",
      "outputs": [
        {
          "internalType": "string",
          "name": "",
          "type": "string"
        }
      ],
      "stateMutability": "view",
      "type": "function"
    },
    {
      "inputs": [],
      "name": "owner",
      "outputs": [
        {
          "internalType": "address",
          "name": "",
          "type": "address"
        }
      ],
      "stateMutability": "view",
      "type": "function"
    },
    {
      "inputs": [],
      "name": "pause",
      "outputs": [],
      "stateMutability": "nonpayable",
      "type": "function"
    },
    {
      "inputs": [],
      "name": "paused",
      "outputs": [
        {
          "internalType": "bool",
          "name": "",
          "type": "bool"
        }
      ],
      "stateMutability": "view",
      "type": "function"
    },
    {
      "inputs": [
        {
          "internalType": "uint256",
          "name": "_key",
          "type": "uint256"
        }
      ],
      "name": "permanentlyRemoveTaxes",
      "outputs": [],
      "stateMutability": "nonpayable",
      "type": "function"
    },
    {
      "inputs": [
        {
          "internalType": "address",
          "name": "",
          "type": "address"
        }
      ],
      "name": "receiverTaxType",
      "outputs": [
        {
          "internalType": "uint8",
          "name": "",
          "type": "uint8"
        }
      ],
      "stateMutability": "view",
      "type": "function"
    },
    {
      "inputs": [],
      "name": "renounceOwnership",
      "outputs": [],
      "stateMutability": "nonpayable",
      "type": "function"
    },
    {
      "inputs": [
        {
          "internalType": "address",
          "name": "",
          "type": "address"
        }
      ],
      "name": "senderTaxType",
      "outputs": [
        {
          "internalType": "uint8",
          "name": "",
          "type": "uint8"
        }
      ],
      "stateMutability": "view",
      "type": "function"
    },
    {
      "inputs": [
        {
          "internalType": "address",
          "name": "_depositor",
          "type": "address"
        }
      ],
      "name": "setDepositor",
      "outputs": [],
      "stateMutability": "nonpayable",
      "type": "function"
    },
    {
      "inputs": [
        {
          "internalType": "address",
          "name": "_treasury",
          "type": "address"
        }
      ],
      "name": "setTreasury",
      "outputs": [],
      "stateMutability": "nonpayable",
      "type": "function"
    },
    {
      "inputs": [
        {
          "internalType": "address",
          "name": "_vesting",
          "type": "address"
        }
      ],
      "name": "setVesting",
      "outputs": [],
      "stateMutability": "nonpayable",
      "type": "function"
    },
    {
      "inputs": [],
      "name": "symbol",
      "outputs": [
        {
          "internalType": "string",
          "name": "",
          "type": "string"
        }
      ],
      "stateMutability": "view",
      "type": "function"
    },
    {
      "inputs": [
        {
          "internalType": "uint8",
          "name": "",
          "type": "uint8"
        }
      ],
      "name": "taxesAccrued",
      "outputs": [
        {
          "internalType": "uint256",
          "name": "",
          "type": "uint256"
        }
      ],
      "stateMutability": "view",
      "type": "function"
    },
    {
      "inputs": [],
      "name": "taxesRemoved",
      "outputs": [
        {
          "internalType": "bool",
          "name": "",
          "type": "bool"
        }
      ],
      "stateMutability": "view",
      "type": "function"
    },
    {
      "inputs": [],
      "name": "totalSupply",
      "outputs": [
        {
          "internalType": "uint256",
          "name": "",
          "type": "uint256"
        }
      ],
      "stateMutability": "view",
      "type": "function"
    },
    {
      "inputs": [
        {
          "internalType": "address",
          "name": "recipient",
          "type": "address"
        },
        {
          "internalType": "uint256",
          "name": "amount",
          "type": "uint256"
        }
      ],
      "name": "transfer",
      "outputs": [
        {
          "internalType": "bool",
          "name": "",
          "type": "bool"
        }
      ],
      "stateMutability": "nonpayable",
      "type": "function"
    },
    {
      "inputs": [
        {
          "internalType": "address",
          "name": "sender",
          "type": "address"
        },
        {
          "internalType": "address",
          "name": "recipient",
          "type": "address"
        },
        {
          "internalType": "uint256",
          "name": "amount",
          "type": "uint256"
        }
      ],
      "name": "transferFrom",
      "outputs": [
        {
          "internalType": "bool",
          "name": "",
          "type": "bool"
        }
      ],
      "stateMutability": "nonpayable",
      "type": "function"
    },
    {
      "inputs": [
        {
          "internalType": "address",
          "name": "newOwner",
          "type": "address"
        }
      ],
      "name": "transferOwnership",
      "outputs": [],
      "stateMutability": "nonpayable",
      "type": "function"
    },
    {
      "inputs": [],
      "name": "treasury",
      "outputs": [
        {
          "internalType": "address",
          "name": "",
          "type": "address"
        }
      ],
      "stateMutability": "view",
      "type": "function"
    },
    {
      "inputs": [],
      "name": "unpause",
      "outputs": [],
      "stateMutability": "nonpayable",
      "type": "function"
    },
    {
      "inputs": [
        {
          "internalType": "address",
          "name": "_account",
          "type": "address"
        },
        {
          "internalType": "bool",
          "name": "_state",
          "type": "bool"
        }
      ],
      "name": "updateAuthorizedList",
      "outputs": [],
      "stateMutability": "nonpayable",
      "type": "function"
    },
    {
      "inputs": [
        {
          "internalType": "uint256",
          "name": "_amount",
          "type": "uint256"
        }
      ],
      "name": "updateMaxContractTokenBalance",
      "outputs": [],
      "stateMutability": "nonpayable",
      "type": "function"
    },
    {
      "inputs": [
        {
          "internalType": "uint256",
          "name": "_maxTxAmount",
          "type": "uint256"
        }
      ],
      "name": "updateMaxTxAmount",
      "outputs": [],
      "stateMutability": "nonpayable",
      "type": "function"
    },
    {
      "inputs": [
        {
          "internalType": "uint256",
          "name": "_maxWalletSize",
          "type": "uint256"
        }
      ],
      "name": "updateMaxWalletSize",
      "outputs": [],
      "stateMutability": "nonpayable",
      "type": "function"
    },
    {
      "inputs": [
        {
          "internalType": "address",
          "name": "_receiver",
          "type": "address"
        },
        {
          "internalType": "uint8",
          "name": "_taxType",
          "type": "uint8"
        }
      ],
      "name": "updateReceiverTaxType",
      "outputs": [],
      "stateMutability": "nonpayable",
      "type": "function"
    },
    {
      "inputs": [
        {
          "internalType": "address",
          "name": "_sender",
          "type": "address"
        },
        {
          "internalType": "uint8",
          "name": "_taxType",
          "type": "uint8"
        }
      ],
      "name": "updateSenderTaxType",
      "outputs": [],
      "stateMutability": "nonpayable",
      "type": "function"
    },
    {
      "inputs": [],
      "name": "vesting",
      "outputs": [
        {
          "internalType": "address",
          "name": "",
          "type": "address"
        }
      ],
      "stateMutability": "view",
      "type": "function"
    },
    {
      "inputs": [
        {
          "internalType": "address",
          "name": "",
          "type": "address"
        }
      ],
      "name": "whitelist",
      "outputs": [
        {
          "internalType": "bool",
          "name": "",
          "type": "bool"
        }
      ],
      "stateMutability": "view",
      "type": "function"
    }
  ],
  "bytecode": {
    "object": "0x60a06040526011805460ff191690553480156200001b57600080fd5b5060405162004499380380620044998339810160408190526200003e91620005fc565b848460036200004e83826200072c565b5060046200005d82826200072c565b50506005805460ff19166012179055506000620000773390565b60058054610100600160a81b0319166101006001600160a01b03841690810291909117909155604051919250906000907f8be0079c531659141344cd1fd0a4f28419497f9722a3daafe3b4186f6b6457e0908290a350600b805460ff19169055620000f2836005805460ff191660ff92909216919091179055565b60055460ff166200010590600a6200090b565b6200011190876200091c565b600881905550737a250d5630b4cf539739df2c5dacb4c659f2488d6001600160a01b031663c45a01556040518163ffffffff1660e01b8152600401602060405180830381865afa1580156200016a573d6000803e3d6000fd5b505050506040513d601f19601f820116820180604052508101906200019091906200093e565b6001600160a01b031663c9c6539630737a250d5630b4cf539739df2c5dacb4c659f2488d6001600160a01b031663ad5c46486040518163ffffffff1660e01b8152600401602060405180830381865afa158015620001f2573d6000803e3d6000fd5b505050506040513d601f19601f820116820180604052508101906200021891906200093e565b6040516001600160e01b031960e085901b1681526001600160a01b039283166004820152911660248201526044016020604051808303816000875af115801562000266573d6000803e3d6000fd5b505050506040513d601f19601f820116820180604052508101906200028c91906200093e565b6001600160a01b031660808190526000908152601460209081526040808320805460ff19908116600117909155601590925290912080549091166002179055620002d860055460ff1690565b620002e590600a6200090b565b620002f190836200091c565b600e5560055460ff166200030790600a6200090b565b6200031390826200091c565b600f5560055460ff166200032990600a6200090b565b620003369060016200091c565b60105530600090815260136020819052604082208054600160ff1991821681179092558380527f8fa6efc3be94b5b348b21fea823fe8d100408cee9b7f90524494500445d8ff6c805490911682179055916200039f60055461010090046001600160a01b031690565b6001600160a01b031681526020810191909152604001600020805460ff191691151591909117905562000408620003e360055461010090046001600160a01b031690565b60055460ff16620003f690600a6200090b565b6200040290896200091c565b62000414565b5050505050506200098b565b6001600160a01b0382166200046f5760405162461bcd60e51b815260206004820152601f60248201527f45524332303a206d696e7420746f20746865207a65726f206164647265737300604482015260640160405180910390fd5b6200048b816002546200051860201b620024f01790919060201c565b6002556001600160a01b03821660009081526020818152604090912054620004be918390620024f062000518821b17901c565b6001600160a01b038316600081815260208181526040808320949094559251848152919290917fddf252ad1be2c89b69c2b068fc378daa952ba7f163c4a11628f55a4df523b3ef910160405180910390a35050565b505050565b600062000526828462000970565b90505b92915050565b634e487b7160e01b600052604160045260246000fd5b600082601f8301126200055757600080fd5b81516001600160401b03808211156200057457620005746200052f565b604051601f8301601f19908116603f011681019082821181831017156200059f576200059f6200052f565b81604052838152602092508683858801011115620005bc57600080fd5b600091505b83821015620005e05785820183015181830184015290820190620005c1565b83821115620005f25760008385830101525b9695505050505050565b60008060008060008060c087890312156200061657600080fd5b865160208801519096506001600160401b03808211156200063657600080fd5b620006448a838b0162000545565b965060408901519150808211156200065b57600080fd5b506200066a89828a0162000545565b945050606087015160ff811681146200068257600080fd5b809350506080870151915060a087015190509295509295509295565b600181811c90821680620006b357607f821691505b602082108103620006d457634e487b7160e01b600052602260045260246000fd5b50919050565b601f8211156200051357600081815260208120601f850160051c81016020861015620007035750805b601f850160051c820191505b8181101562000724578281556001016200070f565b505050505050565b81516001600160401b038111156200074857620007486200052f565b62000760816200075984546200069e565b84620006da565b602080601f8311600181146200079857600084156200077f5750858301515b600019600386901b1c1916600185901b17855562000724565b600085815260208120601f198616915b82811015620007c957888601518255948401946001909101908401620007a8565b5085821015620007e85787850151600019600388901b60f8161c191681555b5050505050600190811b01905550565b634e487b7160e01b600052601160045260246000fd5b600181815b808511156200084f578160001904821115620008335762000833620007f8565b808516156200084157918102915b93841c939080029062000813565b509250929050565b600082620008685750600162000529565b81620008775750600062000529565b81600181146200089057600281146200089b57620008bb565b600191505062000529565b60ff841115620008af57620008af620007f8565b50506001821b62000529565b5060208310610133831016604e8410600b8410161715620008e0575081810a62000529565b620008ec83836200080e565b8060001904821115620009035762000903620007f8565b029392505050565b60006200052660ff84168362000857565b6000816000190483118215151615620009395762000939620007f8565b500290565b6000602082840312156200095157600080fd5b81516001600160a01b03811681146200096957600080fd5b9392505050565b60008219821115620009865762000986620007f8565b500190565b608051613aeb620009ae600039600081816107e20152611c890152613aeb6000f3fe608060405234801561001057600080fd5b50600436106103785760003560e01c80638f3f5254116101d3578063c7c4ff4611610104578063f2fde38b116100a2578063f78080601161007c578063f780806014610817578063f9079b731461082a578063f9f92be41461084a578063fb8f3cc81461086d57600080fd5b8063f2fde38b146107ca578063f40acc3d146107dd578063f5423c891461080457600080fd5b8063dd62ed3e116100de578063dd62ed3e14610757578063f0f4426014610790578063f2b6b501146107a3578063f2c098b7146107b757600080fd5b8063c7c4ff461461071e578063cc6df13814610731578063dd4670641461074457600080fd5b8063a3504e7c11610171578063a97ed4d21161014b578063a97ed4d2146106a2578063b5b44106146106b5578063b9181611146106e8578063c4bb8cbe1461070b57600080fd5b8063a3504e7c14610659578063a457c2d71461067c578063a9059cbb1461068f57600080fd5b806397a84f85116101ad57806397a84f85146105e05780639af98541146106005780639b19251a146106235780639dc29fac1461064657600080fd5b80638f3f5254146105bc5780638f3fa860146105cf57806395d89b41146105d857600080fd5b806344c63eec116102ad5780636f6ff3bc1161024b578063715018a611610225578063715018a61461058d5780638456cb59146105955780638c0b5e221461059d5780638da5cb5b146105a657600080fd5b80636f6ff3bc1461053e5780637097f7931461055157806370a082311461056457600080fd5b806361d027b31161028757806361d027b3146104e55780636256d181146104fd578063676d3563146105105780636ef8834a1461052b57600080fd5b806344c63eec1461049c5780635376b092146104c75780635c975abb146104da57600080fd5b806324887e801161031a57806339509351116102f457806339509351146104665780633b6c0334146104795780633f4ba83a1461048157806340c10f191461048957600080fd5b806324887e8014610425578063313ce56714610438578063317d94531461045157600080fd5b8063095ea7b311610356578063095ea7b3146103c7578063166cc492146103ea57806318160ddd1461040a57806323b872dd1461041257600080fd5b8063060d206e1461037d57806306fdde0314610392578063090f215c146103b0575b600080fd5b61039061038b366004613414565b61088d565b005b61039a6108f1565b6040516103a79190613452565b60405180910390f35b6103b960105481565b6040519081526020016103a7565b6103da6103d53660046134a7565b610983565b60405190151581526020016103a7565b6103b96103f83660046134e9565b60186020526000908152604090205481565b6002546103b9565b6103da610420366004613504565b61099a565b610390610433366004613545565b610a03565b60055460ff165b60405160ff90911681526020016103a7565b306000908152602081905260409020546103b9565b6103da6104743660046134a7565b610b00565b610390610b36565b610390610b90565b6103906104973660046134a7565b610c77565b600c546104af906001600160a01b031681565b6040516001600160a01b0390911681526020016103a7565b6103906104d536600461355e565b610ce5565b600b5460ff166103da565b600b546104af9061010090046001600160a01b031681565b61039061050b366004613545565b610e25565b6104af737a250d5630b4cf539739df2c5dacb4c659f2488d81565b610390610539366004613414565b610f1b565b61039061054c36600461357a565b6110bc565b61039061055f366004613597565b6112e7565b6103b961057236600461357a565b6001600160a01b031660009081526020819052604090205490565b6103906113bd565b61039061143d565b6103b9600f5481565b60055461010090046001600160a01b03166104af565b6103906105ca3660046134a7565b61154d565b6103b9600e5481565b61039a611615565b6103b96105ee3660046134e9565b60166020526000908152604090205481565b61043f61060e36600461357a565b60156020526000908152604090205460ff1681565b6103da61063136600461357a565b60136020526000908152604090205460ff1681565b6103906106543660046134a7565b611624565b61043f61066736600461357a565b60146020526000908152604090205460ff1681565b6103da61068a3660046134a7565b61168e565b6103da61069d3660046134a7565b6116dd565b6103906106b0366004613545565b6116ea565b6106c86106c336600461357a565b61173b565b6040805194855260208501939093529183015260608201526080016103a7565b6103da6106f636600461357a565b60176020526000908152604090205460ff1681565b610390610719366004613545565b6117fe565b600d546104af906001600160a01b031681565b61039061073f366004613414565b6119db565b610390610752366004613545565b611dbe565b6103b96107653660046135cc565b6001600160a01b03918216600090815260016020908152604080832093909416825291909152205490565b61039061079e36600461357a565b611e6b565b600d546103da90600160a01b900460ff1681565b6103906107c536600461357a565b61201d565b6103906107d836600461357a565b6121ba565b6104af7f000000000000000000000000000000000000000000000000000000000000000081565b6103906108123660046134a7565b612219565b610390610825366004613597565b612418565b6103b961083836600461357a565b60196020526000908152604090205481565b6103da61085836600461357a565b60126020526000908152604090205460ff1681565b6103b961087b36600461357a565b601a6020526000908152604090205481565b6005546001600160a01b036101009091041633146108c65760405162461bcd60e51b81526004016108bd906135fa565b60405180910390fd5b6001600160a01b03919091166000908152601360205260409020805460ff1916911515919091179055565b6060600380546109009061362f565b80601f016020809104026020016040519081016040528092919081815260200182805461092c9061362f565b80156109795780601f1061094e57610100808354040283529160200191610979565b820191906000526020600020905b81548152906001019060200180831161095c57829003601f168201915b5050505050905090565b6000610990338484612503565b5060015b92915050565b60006109a7848484612628565b6109f984336109f485604051806060016040528060288152602001613a69602891396001600160a01b038a1660009081526001602090815260408083203384529091529020549190612c33565b612503565b5060019392505050565b6005546001600160a01b03610100909104163314610a335760405162461bcd60e51b81526004016108bd906135fa565b60008111610aa95760405162461bcd60e51b815260206004820152603f60248201527f546178546f6b656e2e736f6c3a3a7570646174654d617857616c6c657453697a60448201527f652829205f6d617857616c6c657453697a65206d75737420626520677420300060648201526084016108bd565b60055460ff16610aba90600a613763565b610ac49082613772565b600e8190556040519081527f12528a3c61e0f3b2d6fc707a9fc58b1af86e252cad0d7f4c154ebeabb162dace906020015b60405180910390a150565b3360008181526001602090815260408083206001600160a01b038716845290915281205490916109909185906109f490866124f0565b6005546001600160a01b03610100909104163314610b665760405162461bcd60e51b81526004016108bd906135fa565b60115460ff16610b8e57610b8e610b893060009081526020819052604090205490565b612c5f565b565b6005546001600160a01b03610100909104163314610bc05760405162461bcd60e51b81526004016108bd906135fa565b600b5460ff16610c385760405162461bcd60e51b815260206004820152603d60248201527f546178546f6b656e2e736f6c3a3a7768656e50617573656428292c20436f6e7460448201527f72616374206973206e6f742063757272656e746c79207061757365642e00000060648201526084016108bd565b600b805460ff191690556040513381527f5db9ee0a495bf2e6ff9c91a7834c1ba4fdd244a5e8aa4e537bd38aeae4b073aa9060200160405180910390a1565b60055461010090046001600160a01b03166001600160a01b0316336001600160a01b03161480610cbb57503360009081526017602052604090205460ff1615156001145b610cd75760405162461bcd60e51b81526004016108bd90613791565b610ce18282612d36565b5050565b6005546001600160a01b03610100909104163314610d155760405162461bcd60e51b81526004016108bd906135fa565b6107d0811115610d8d5760405162461bcd60e51b815260206004820152603860248201527f546178546f6b656e2e736f6c3a3a61646a7573744261736973506f696e74735460448201527f617828292c205f627074203e20323030302028323025292e000000000000000060648201526084016108bd565b600d54600160a01b900460ff1615610e0f576040805162461bcd60e51b81526020600482015260248101919091527f546178546f6b656e2e736f6c3a3a61646a7573744261736973506f696e74735460448201527f617828292c205461786174696f6e20686173206265656e2072656d6f7665642e60648201526084016108bd565b60ff909116600090815260166020526040902055565b6005546001600160a01b03610100909104163314610e555760405162461bcd60e51b81526004016108bd906135fa565b60008111610ecb5760405162461bcd60e51b815260206004820152603b60248201527f546178546f6b656e2e736f6c3a3a7570646174654d61785478416d6f756e742860448201527f29205f6d61785478416d6f756e74206d7573742062652067742030000000000060648201526084016108bd565b60055460ff16610edc90600a613763565b610ee69082613772565b600f8190556040519081527fff3dd5e80294197918c284bbfc3dadd97d0b40ce92106110946329088f80068a90602001610af5565b6005546001600160a01b03610100909104163314610f4b5760405162461bcd60e51b81526004016108bd906135fa565b6001600160a01b038216610fba5760405162461bcd60e51b815260206004820152603060248201527f546178546f6b656e2e736f6c3a3a757064617465417574686f72697a65644c6960448201526f073742829205f6f776e6572203d3d20360841b60648201526084016108bd565b6001600160a01b03821660009081526017602052604090205460ff1615158115151461105d5760405162461bcd60e51b815260206004820152604660248201527f546178546f6b656e2e736f6c3a3a757064617465417574686f72697a65644c6960448201527f73742829205f6163636f756e7420697320616c72656164792073657420746f206064820152655f737461746560d01b608482015260a4016108bd565b6001600160a01b038216600081815260176020908152604091829020805460ff191685151590811790915591519182527f351731b7072c47dd7498a1db554905beb804daf2833acfabd6e954d1fac65cfd910160405180910390a25050565b6005546001600160a01b036101009091041633146110ec5760405162461bcd60e51b81526004016108bd906135fa565b600c546001600160a01b03908116908216036111705760405162461bcd60e51b815260206004820152603a60248201527f546178546f6b656e2e736f6c3a3a73657456657374696e67282920616c72656160448201527f64792073657420746f207472656173757279206164647265737300000000000060648201526084016108bd565b6001600160a01b0381166111ec5760405162461bcd60e51b815260206004820152603860248201527f546178546f6b656e2e736f6c3a3a73657456657374696e67282920747265617360448201527f7572792063616e6e6f742062652061646472657373283029000000000000000060648201526084016108bd565b600c80546001600160a01b0319166001600160a01b03831690811790915561121590600161088d565b600c546040805163022b1d8960e21b815290516000926001600160a01b0316916308ac76249160048083019260209291908290030181865afa15801561125f573d6000803e3d6000fd5b505050506040513d601f19601f8201168201806040525081019061128391906137ee565b600c5490915061129c906001600160a01b031682612d36565b600c54604080516001600160a01b03928316815291841660208301527fa596bfd2fd3f8533a574f9df13f553b4d5751c65c233b974b15fa91891857f3e910160405180910390a15050565b6005546001600160a01b036101009091041633146113175760405162461bcd60e51b81526004016108bd906135fa565b60038160ff16106113905760405162461bcd60e51b815260206004820152603e60248201527f546178546f6b656e3a3a75706461746553656e6465725461785479706528292c60448201527f205f74617854797065206d757374206265206c657373207468616e20332e000060648201526084016108bd565b6001600160a01b03919091166000908152601460205260409020805460ff191660ff909216919091179055565b6005546001600160a01b036101009091041633146113ed5760405162461bcd60e51b81526004016108bd906135fa565b60055460405160009161010090046001600160a01b0316907f8be0079c531659141344cd1fd0a4f28419497f9722a3daafe3b4186f6b6457e0908390a360058054610100600160a81b0319169055565b6005546001600160a01b0361010090910416331461146d5760405162461bcd60e51b81526004016108bd906135fa565b3361147a600b5460ff1690565b158061149e57506001600160a01b03811660009081526013602052604090205460ff165b6115105760405162461bcd60e51b815260206004820152603f60248201527f546178546f6b656e2e736f6c3a3a7768656e4e6f74506175736564556e69282960448201527f2c20436f6e74726163742069732063757272656e746c79207061757365642e0060648201526084016108bd565b600b805460ff191660011790556040513381527f62e78cea01bee320cd4e420270b5ea74000d11b0c9f74754ebdbfc544b05a25890602001610af5565b60055461010090046001600160a01b03166001600160a01b0316336001600160a01b0316148061159157503360009081526017602052604090205460ff1615156001145b6115ad5760405162461bcd60e51b81526004016108bd90613791565b6115b78282612d36565b6001600160a01b038216600090815260196020526040812080548392906115df908490613807565b90915550506001600160a01b0382166000908152601a60205260408120805483929061160c908490613807565b90915550505050565b6060600480546109009061362f565b60055461010090046001600160a01b03166001600160a01b0316336001600160a01b0316148061166857503360009081526017602052604090205460ff1615156001145b6116845760405162461bcd60e51b81526004016108bd90613791565b610ce18282612e15565b600061099033846109f485604051806060016040528060258152602001613a91602591393360009081526001602090815260408083206001600160a01b038d1684529091529020549190612c33565b6000610990338484612628565b6005546001600160a01b0361010090910416331461171a5760405162461bcd60e51b81526004016108bd906135fa565b60055460ff1661172b90600a613763565b6117359082613772565b60105550565b6040516370a0823160e01b81526001600160a01b0382166004820152600090819081908190819030906370a0823190602401602060405180830381865afa15801561178a573d6000803e3d6000fd5b505050506040513d601f19601f820116820180604052508101906117ae91906137ee565b6001600160a01b0387166000908152601960205260408120549192506117d4828461381f565b6001600160a01b03989098166000908152601a602052604090205492989197965091945092505050565b6005546001600160a01b0361010090910416331461182e5760405162461bcd60e51b81526004016108bd906135fa565b80602a146118965760405162461bcd60e51b815260206004820152602f60248201527f546178546f6b656e3a3a7065726d616e656e746c7952656d6f7665546178657360448201526e141496102fb5b2bc90109e901a191760891b60648201526084016108bd565b600d54600160a01b900460ff16156119275760405162461bcd60e51b815260206004820152604860248201527f546178546f6b656e2e736f6c3a3a61646a7573744261736973506f696e74735460448201527f617828292c205461786174696f6e2068617320616c7265616479206265656e206064820152673932b6b7bb32b21760c11b608482015260a4016108bd565b601660205260007f0263c2b778d062355049effc2dece97bc6547ff8a88a3258daa512061c2153dd8190557f4c4dc693d7db52f85fe052106f4b4b920e78e8ef37dee82878a60ab8585faf49819055600281527fcaff291fe014adc6b72a172705750b4cabe8f8667664d2924a166caab2885648819055600d805460ff60a01b1916600160a01b1790556040517fc75f57ef1bbf80f914dce2d672e5f9474567b8de900e1580de72874d08ff86b99190a150565b6005546001600160a01b03610100909104163314611a0b5760405162461bcd60e51b81526004016108bd906135fa565b8015611d93576001600160a01b03821660009081526013602052604090205460ff1615611a9d5760405162461bcd60e51b81526020600482015260466024820152600080516020613a0183398151915260448201527f2063616e6e6f7420626c61636b6c69737420612077686974656c6973746564206064820152651dd85b1b195d60d21b608482015260a4016108bd565b600b546001600160a01b03610100909104811690831603611b145760405162461bcd60e51b815260206004820152603a6024820152600080516020613a0183398151915260448201527f2063616e6e6f7420626c61636b6c69737420747265617375727900000000000060648201526084016108bd565b600d546001600160a01b0390811690831603611b865760405162461bcd60e51b815260206004820152603b6024820152600080516020613a0183398151915260448201527f2063616e6e6f7420626c61636b6c697374206465706f7369746f72000000000060648201526084016108bd565b600c546001600160a01b0390811690831603611bf85760405162461bcd60e51b81526020600482015260396024820152600080516020613a0183398151915260448201527f2063616e6e6f7420626c61636b6c6973742076657374696e670000000000000060648201526084016108bd565b737a250d5630b4cf539739df2c5dacb4c659f2488c196001600160a01b03831601611c875760405162461bcd60e51b815260206004820152604460248201819052600080516020613a01833981519152908201527f2063616e6e6f7420626c61636b6c6973742074686520556e697377617020524f6064820152632aaa22a960e11b608482015260a4016108bd565b7f00000000000000000000000000000000000000000000000000000000000000006001600160a01b0316826001600160a01b031603611d275760405162461bcd60e51b81526020600482015260426024820152600080516020613a0183398151915260448201527f2063616e6e6f7420626c61636b6c6973742074686520556e697377617020504160648201526124a960f11b608482015260a4016108bd565b306001600160a01b03831603611d935760405162461bcd60e51b815260206004820152603f6024820152600080516020613a0183398151915260448201527f2063616e6e6f7420626c61636b6c697374207468697320636f6e74726163740060648201526084016108bd565b6001600160a01b03919091166000908152601260205260409020805460ff1916911515919091179055565b6005546001600160a01b03610100909104163314611dee5760405162461bcd60e51b81526004016108bd906135fa565b60058054600680546001600160a01b0319166001600160a01b03610100840416179055610100600160a81b0319169055611e288142613807565b60075560055460405160009161010090046001600160a01b0316907f8be0079c531659141344cd1fd0a4f28419497f9722a3daafe3b4186f6b6457e0908390a350565b6005546001600160a01b03610100909104163314611e9b5760405162461bcd60e51b81526004016108bd906135fa565b600b546001600160a01b03610100909104811690821603611f245760405162461bcd60e51b815260206004820152603b60248201527f546178546f6b656e2e736f6c3a3a7365745472656173757279282920616c726560448201527f6164792073657420746f2074726561737572792061646472657373000000000060648201526084016108bd565b6001600160a01b038116611fa05760405162461bcd60e51b815260206004820152603960248201527f546178546f6b656e2e736f6c3a3a73657454726561737572792829207472656160448201527f737572792063616e6e6f7420626520616464726573732830290000000000000060648201526084016108bd565b600b8054610100600160a81b0319166101006001600160a01b0384811682029290921792839055611fd4920416600161088d565b600b54604080516001600160a01b036101009093048316815291831660208301527f4ab5be82436d353e61ca18726e984e561f5c1cc7c6d38b29d2553c790434705a9101610af5565b6005546001600160a01b0361010090910416331461204d5760405162461bcd60e51b81526004016108bd906135fa565b600d546001600160a01b03908116908216036120d15760405162461bcd60e51b815260206004820152603c60248201527f546178546f6b656e2e736f6c3a3a7365746465706f7369746f72282920616c7260448201527f656164792073657420746f20747265617375727920616464726573730000000060648201526084016108bd565b6001600160a01b03811661214d5760405162461bcd60e51b815260206004820152603a60248201527f546178546f6b656e2e736f6c3a3a7365746465706f7369746f7228292074726560448201527f61737572792063616e6e6f74206265206164647265737328302900000000000060648201526084016108bd565b600d80546001600160a01b0319166001600160a01b03831690811790915561217690600061088d565b600d54604080516001600160a01b03928316815291831660208301527f830becdc16911bd35301d7e36682bb0bf344b313f5406e9eb6d8632a349763449101610af5565b6005546001600160a01b036101009091041633146121ea5760405162461bcd60e51b81526004016108bd906135fa565b6001600160a01b0381166000908152601360205260409020805460ff1916600117905561221681612f19565b50565b60055461010090046001600160a01b03166001600160a01b0316336001600160a01b0316148061225d57503360009081526017602052604090205460ff1615156001145b6122795760405162461bcd60e51b81526004016108bd90613791565b6001600160a01b0382166122f55760405162461bcd60e51b815260206004820152603a60248201527f546178546f6b656e2e736f6c3a3a696e6475737472794275726e28292c20436160448201527f6e6e6f74206275726e20746f207a65726f20616464726573732e00000000000060648201526084016108bd565b80612315836001600160a01b031660009081526020819052604090205490565b10156123975760405162461bcd60e51b815260206004820152604560248201527f546178546f6b656e2e736f6c3a3a696e6475737472794275726e28292c20496e60448201527f73756666696369656e742062616c616e6365206f66202450524f564520746f20606482015264313ab9371760d91b608482015260a4016108bd565b6001600160a01b03821660009081526019602052604090205481116123f3576123c08282612e15565b6001600160a01b038216600090815260196020526040812080548392906123e890849061381f565b90915550610ce19050565b6123fd8282612e15565b506001600160a01b0316600090815260196020526040812055565b6005546001600160a01b036101009091041633146124485760405162461bcd60e51b81526004016108bd906135fa565b60038160ff16106124c3576040805162461bcd60e51b81526020600482015260248101919091527f546178546f6b656e3a3a7570646174655265636569766572546178547970652860448201527f292c205f74617854797065206d757374206265206c657373207468616e20332e60648201526084016108bd565b6001600160a01b03919091166000908152601560205260409020805460ff191660ff909216919091179055565b60006124fc8284613807565b9392505050565b6001600160a01b0383166125655760405162461bcd60e51b8152602060048201526024808201527f45524332303a20617070726f76652066726f6d20746865207a65726f206164646044820152637265737360e01b60648201526084016108bd565b6001600160a01b0382166125c65760405162461bcd60e51b815260206004820152602260248201527f45524332303a20617070726f766520746f20746865207a65726f206164647265604482015261737360f01b60648201526084016108bd565b6001600160a01b0383811660008181526001602090815260408083209487168084529482529182902085905590518481527f8c5be1e5ebec7d5bd14f71427d1e84f3dd0314c0f7b2291e5b200ac8c7c3b92591015b60405180910390a3505050565b6000612636600b5460ff1690565b158061265a57506001600160a01b03841660009081526013602052604090205460ff165b8061267d57506001600160a01b03831660009081526013602052604090205460ff165b8061269757503360009081526013602052604090205460ff165b6127095760405162461bcd60e51b815260206004820152603760248201527f546178546f6b656e2e736f6c3a3a5f7472616e73666572282920636f6e74726160448201527f63742069732063757272656e746c79207061757365642e00000000000000000060648201526084016108bd565b81612729856001600160a01b031660009081526020819052604090205490565b101561278a5760405162461bcd60e51b815260206004820152602a60248201527f546178546f6b656e3a3a5f7472616e73666572282920696e73756666696369656044820152696e742062616c616e636560b01b60648201526084016108bd565b600082116127f65760405162461bcd60e51b815260206004820152603360248201527f546178546f6b656e3a3a5f7472616e73666572282920616d6f756e74206d75736044820152720742062652067726561746572207468616e203606c1b60648201526084016108bd565b6001600160a01b03831660009081526013602052604090205460ff1615801561283857506001600160a01b03841660009081526013602052604090205460ff16155b801561285457503360009081526013602052604090205460ff16155b801561286957506001600160a01b0384163014155b15612c225781600f5410156128d95760405162461bcd60e51b815260206004820152603060248201527f546178546f6b656e3a3a5f7472616e73666572282920616d6f756e742065786360448201526f1959591cc81b585e151e105b5bdd5b9d60821b60648201526084016108bd565b6001600160a01b03841660009081526012602052604090205460ff16156129565760405162461bcd60e51b815260206004820152602b60248201527f546178546f6b656e3a3a5f7472616e7366657228292073656e6465722069732060448201526a189b1858dadb1a5cdd195960aa1b60648201526084016108bd565b6001600160a01b03831660009081526012602052604090205460ff16156129d55760405162461bcd60e51b815260206004820152602d60248201527f546178546f6b656e3a3a5f7472616e736665722829207265636569766572206960448201526c1cc8189b1858dadb1a5cdd1959609a1b60648201526084016108bd565b6001600160a01b03841660009081526014602052604090205460ff1615612a1457506001600160a01b03831660009081526014602052604090205460ff165b6001600160a01b03831660009081526015602052604090205460ff1615612a5357506001600160a01b03821660009081526015602052604090205460ff165b60ff811660009081526016602052604081205461271090612a749085613772565b612a7e9190613836565b90506000612a8c828561381f565b905083612a998284613807565b14612af85760405162461bcd60e51b815260206004820152602960248201527f546178546f6b656e3a3a5f7472616e73666572282920637269746963616c206d60448201526830ba341032b93937b960b91b60648201526084016108bd565b8260ff16600214158015612b1a5750600d546001600160a01b03868116911614155b15612bb757600e5481612b42876001600160a01b031660009081526020819052604090205490565b612b4c9190613807565b1115612bb75760405162461bcd60e51b815260206004820152603460248201527f546178546f6b656e3a3a5f7472616e73666572282920616d6f756e74206578636044820152731959591cc81b585e15d85b1b195d105b5bdd5b9d60621b60648201526084016108bd565b8260ff166002148015612bcd575060115460ff16155b15612c055730600090815260208190526040902054600f54811115612bf15750600f545b6010548110612c0357612c0381612c5f565b505b612c10868683613015565b612c1b863084613015565b5050612c2d565b612c2d848484613015565b50505050565b60008184841115612c575760405162461bcd60e51b81526004016108bd9190613452565b505050900390565b6011805460ff191660011790556000612c7782613198565b90508015612d2857600b54604051630eab2cb760e31b8152600481018390526101009091046001600160a01b03169063755965b890602401600060405180830381600087803b158015612cc957600080fd5b505af1158015612cdd573d6000803e3d6000fd5b5050600b546040518481526101009091046001600160a01b031692507f831f3151ac4fe05e9e25607e80c8710ed1dbc868f9edf4c2852b87d14eec373b915060200160405180910390a25b50506011805460ff19169055565b6001600160a01b038216612d8c5760405162461bcd60e51b815260206004820152601f60248201527f45524332303a206d696e7420746f20746865207a65726f20616464726573730060448201526064016108bd565b600254612d9990826124f0565b6002556001600160a01b038216600090815260208190526040902054612dbf90826124f0565b6001600160a01b038316600081815260208181526040808320949094559251848152919290917fddf252ad1be2c89b69c2b068fc378daa952ba7f163c4a11628f55a4df523b3ef91015b60405180910390a35050565b6001600160a01b038216612e755760405162461bcd60e51b815260206004820152602160248201527f45524332303a206275726e2066726f6d20746865207a65726f206164647265736044820152607360f81b60648201526084016108bd565b612eb281604051806060016040528060228152602001613a21602291396001600160a01b0385166000908152602081905260409020549190612c33565b6001600160a01b038316600090815260208190526040902055600254612ed890826133f3565b6002556040518181526000906001600160a01b038416907fddf252ad1be2c89b69c2b068fc378daa952ba7f163c4a11628f55a4df523b3ef90602001612e09565b6005546001600160a01b03610100909104163314612f495760405162461bcd60e51b81526004016108bd906135fa565b6001600160a01b038116612fae5760405162461bcd60e51b815260206004820152602660248201527f4f776e61626c653a206e6577206f776e657220697320746865207a65726f206160448201526564647265737360d01b60648201526084016108bd565b6005546040516001600160a01b0380841692610100900416907f8be0079c531659141344cd1fd0a4f28419497f9722a3daafe3b4186f6b6457e090600090a3600580546001600160a01b0390921661010002610100600160a81b0319909216919091179055565b6001600160a01b0383166130795760405162461bcd60e51b815260206004820152602560248201527f45524332303a207472616e736665722066726f6d20746865207a65726f206164604482015264647265737360d81b60648201526084016108bd565b6001600160a01b0382166130db5760405162461bcd60e51b815260206004820152602360248201527f45524332303a207472616e7366657220746f20746865207a65726f206164647260448201526265737360e81b60648201526084016108bd565b61311881604051806060016040528060268152602001613a43602691396001600160a01b0386166000908152602081905260409020549190612c33565b6001600160a01b03808516600090815260208190526040808220939093559084168152205461314790826124f0565b6001600160a01b038381166000818152602081815260409182902094909455518481529092918616917fddf252ad1be2c89b69c2b068fc378daa952ba7f163c4a11628f55a4df523b3ef910161261b565b6040805160028082526060820183526000928392919060208301908036833701905050905030816000815181106131d1576131d161386e565b60200260200101906001600160a01b031690816001600160a01b031681525050737a250d5630b4cf539739df2c5dacb4c659f2488d6001600160a01b031663ad5c46486040518163ffffffff1660e01b8152600401602060405180830381865afa158015613243573d6000803e3d6000fd5b505050506040513d601f19601f820116820180604052508101906132679190613884565b8160018151811061327a5761327a61386e565b60200260200101906001600160a01b031690816001600160a01b0316815250506132b930737a250d5630b4cf539739df2c5dacb4c659f2488d85612503565b60405163d06ca61f60e01b8152600090737a250d5630b4cf539739df2c5dacb4c659f2488d9063d06ca61f906132f590879086906004016138e5565b600060405180830381865afa158015613312573d6000803e3d6000fd5b505050506040513d6000823e601f3d908101601f1916820160405261333a9190810190613906565b600b54909150737a250d5630b4cf539739df2c5dacb4c659f2488d90635c11d795908690600090869061010090046001600160a01b031661337d4261012c613807565b6040518663ffffffff1660e01b815260040161339d9594939291906139c4565b600060405180830381600087803b1580156133b757600080fd5b505af11580156133cb573d6000803e3d6000fd5b50505050806001815181106133e2576133e261386e565b602002602001015192505050919050565b60006124fc828461381f565b6001600160a01b038116811461221657600080fd5b6000806040838503121561342757600080fd5b8235613432816133ff565b91506020830135801515811461344757600080fd5b809150509250929050565b600060208083528351808285015260005b8181101561347f57858101830151858201604001528201613463565b81811115613491576000604083870101525b50601f01601f1916929092016040019392505050565b600080604083850312156134ba57600080fd5b82356134c5816133ff565b946020939093013593505050565b803560ff811681146134e457600080fd5b919050565b6000602082840312156134fb57600080fd5b6124fc826134d3565b60008060006060848603121561351957600080fd5b8335613524816133ff565b92506020840135613534816133ff565b929592945050506040919091013590565b60006020828403121561355757600080fd5b5035919050565b6000806040838503121561357157600080fd5b6134c5836134d3565b60006020828403121561358c57600080fd5b81356124fc816133ff565b600080604083850312156135aa57600080fd5b82356135b5816133ff565b91506135c3602084016134d3565b90509250929050565b600080604083850312156135df57600080fd5b82356135ea816133ff565b91506020830135613447816133ff565b6020808252818101527f4f776e61626c653a2063616c6c6572206973206e6f7420746865206f776e6572604082015260600190565b600181811c9082168061364357607f821691505b60208210810361366357634e487b7160e01b600052602260045260246000fd5b50919050565b634e487b7160e01b600052601160045260246000fd5b600181815b808511156136ba5781600019048211156136a0576136a0613669565b808516156136ad57918102915b93841c9390800290613684565b509250929050565b6000826136d157506001610994565b816136de57506000610994565b81600181146136f457600281146136fe5761371a565b6001915050610994565b60ff84111561370f5761370f613669565b50506001821b610994565b5060208310610133831016604e8410600b841016171561373d575081810a610994565b613747838361367f565b806000190482111561375b5761375b613669565b029392505050565b60006124fc60ff8416836136c2565b600081600019048311821515161561378c5761378c613669565b500290565b6020808252603d908201527f546178546f6b656e2e736f6c3a3a6f6e6c79417574686f72697a656428292c2060408201527f6d73672e73656e646572206973206e6f7420617574686f72697a65642e000000606082015260800190565b60006020828403121561380057600080fd5b5051919050565b6000821982111561381a5761381a613669565b500190565b60008282101561383157613831613669565b500390565b60008261385357634e487b7160e01b600052601260045260246000fd5b500490565b634e487b7160e01b600052604160045260246000fd5b634e487b7160e01b600052603260045260246000fd5b60006020828403121561389657600080fd5b81516124fc816133ff565b600081518084526020808501945080840160005b838110156138da5781516001600160a01b0316875295820195908201906001016138b5565b509495945050505050565b8281526040602082015260006138fe60408301846138a1565b949350505050565b6000602080838503121561391957600080fd5b825167ffffffffffffffff8082111561393157600080fd5b818501915085601f83011261394557600080fd5b81518181111561395757613957613858565b8060051b604051601f19603f8301168101818110858211171561397c5761397c613858565b60405291825284820192508381018501918883111561399a57600080fd5b938501935b828510156139b85784518452938501939285019261399f565b98975050505050505050565b85815284602082015260a0604082015260006139e360a08301866138a1565b6001600160a01b039490941660608301525060800152939250505056fe546178546f6b656e2e736f6c3a3a6d6f64696679426c61636b6c69737428292c45524332303a206275726e20616d6f756e7420657863656564732062616c616e636545524332303a207472616e7366657220616d6f756e7420657863656564732062616c616e636545524332303a207472616e7366657220616d6f756e74206578636565647320616c6c6f77616e636545524332303a2064656372656173656420616c6c6f77616e63652062656c6f77207a65726fa26469706673582212207550000a111e503334c8b3db13a489114cd8d1b3849b7dab1d5be387a947d70464736f6c634300080f0033",
    "linkReferences": {}
  },
  "methodIdentifiers": {
    "UNISWAP_V2_PAIR()": "f40acc3d",
    "UNIV2_ROUTER()": "676d3563",
    "adjustBasisPointsTax(uint8,uint256)": "5376b092",
    "allowance(address,address)": "dd62ed3e",
    "approve(address,uint256)": "095ea7b3",
    "authorized(address)": "b9181611",
    "balanceOf(address)": "70a08231",
    "basisPointsTax(uint8)": "97a84f85",
    "blacklist(address)": "f9f92be4",
    "burn(address,uint256)": "9dc29fac",
    "decimals()": "313ce567",
    "decreaseAllowance(address,uint256)": "a457c2d7",
    "depositor()": "c7c4ff46",
    "distributeRoyaltiesToTreasury()": "3b6c0334",
    "getContractTokenBalance()": "317d9453",
    "getIndustryTokens(address)": "b5b44106",
    "increaseAllowance(address,uint256)": "39509351",
    "industryBurn(address,uint256)": "f5423c89",
    "industryMint(address,uint256)": "8f3f5254",
    "industryTokens(address)": "f9079b73",
    "lifetimeIndustryTokens(address)": "fb8f3cc8",
    "lock(uint256)": "dd467064",
    "maxContractTokenBalance()": "090f215c",
    "maxTxAmount()": "8c0b5e22",
    "maxWalletSize()": "8f3fa860",
    "mint(address,uint256)": "40c10f19",
    "modifyBlacklist(address,bool)": "cc6df138",
    "modifyWhitelist(address,bool)": "060d206e",
    "name()": "06fdde03",
    "owner()": "8da5cb5b",
    "pause()": "8456cb59",
    "paused()": "5c975abb",
    "permanentlyRemoveTaxes(uint256)": "c4bb8cbe",
    "receiverTaxType(address)": "9af98541",
    "renounceOwnership()": "715018a6",
    "senderTaxType(address)": "a3504e7c",
    "setDepositor(address)": "f2c098b7",
    "setTreasury(address)": "f0f44260",
    "setVesting(address)": "6f6ff3bc",
    "symbol()": "95d89b41",
    "taxesAccrued(uint8)": "166cc492",
    "taxesRemoved()": "f2b6b501",
    "totalSupply()": "18160ddd",
    "transfer(address,uint256)": "a9059cbb",
    "transferFrom(address,address,uint256)": "23b872dd",
    "transferOwnership(address)": "f2fde38b",
    "treasury()": "61d027b3",
    "unpause()": "3f4ba83a",
    "updateAuthorizedList(address,bool)": "6ef8834a",
    "updateMaxContractTokenBalance(uint256)": "a97ed4d2",
    "updateMaxTxAmount(uint256)": "6256d181",
    "updateMaxWalletSize(uint256)": "24887e80",
    "updateReceiverTaxType(address,uint8)": "f7808060",
    "updateSenderTaxType(address,uint8)": "7097f793",
    "vesting()": "44c63eec",
    "whitelist(address)": "9b19251a"
  },
  "id": 16
}