{
  "abi": [
    {
      "inputs": [
        {
          "internalType": "address",
          "name": "_contract",
          "type": "address"
        }
      ],
      "name": "try_enableVesting",
      "outputs": [
        {
          "internalType": "bool",
          "name": "ok",
          "type": "bool"
        }
      ],
      "stateMutability": "nonpayable",
      "type": "function"
    },
    {
      "inputs": [
        {
          "internalType": "address",
          "name": "_contract",
          "type": "address"
        },
        {
          "internalType": "address",
          "name": "token",
          "type": "address"
        }
      ],
      "name": "try_withdrawErc20",
      "outputs": [
        {
          "internalType": "bool",
          "name": "ok",
          "type": "bool"
        }
      ],
      "stateMutability": "nonpayable",
      "type": "function"
    }
  ],
  "bytecode": {
    "object": "0x608060405234801561001057600080fd5b50610322806100206000396000f3fe608060405234801561001057600080fd5b50600436106100365760003560e01c806305e31e361461003b578063dbc82daa14610062575b600080fd5b61004e61004936600461024b565b610075565b604051901515815260200160405180910390f35b61004e61007036600461027e565b61015f565b60408051808201825260168152757769746864726177457263323028616464726573732960501b602082015290516001600160a01b0383811660248301526000929190851690829060440160408051601f1981840301815290829052916100db916102d0565b60408051918290039091206020830180516001600160e01b03166001600160e01b03199092169190911790525161011291906102d0565b6000604051808303816000865af19150503d806000811461014f576040519150601f19603f3d011682016040523d82523d6000602084013e610154565b606091505b509095945050505050565b604080518082018252600f81526e656e61626c6556657374696e67282960881b602082015281516004815260248101928390526000926001600160a01b03851691906101ac9084906102d0565b60408051918290039091206020830180516001600160e01b03166001600160e01b0319909216919091179052516101e391906102d0565b6000604051808303816000865af19150503d8060008114610220576040519150601f19603f3d011682016040523d82523d6000602084013e610225565b606091505b5090949350505050565b80356001600160a01b038116811461024657600080fd5b919050565b6000806040838503121561025e57600080fd5b6102678361022f565b91506102756020840161022f565b90509250929050565b60006020828403121561029057600080fd5b6102998261022f565b9392505050565b60005b838110156102bb5781810151838201526020016102a3565b838111156102ca576000848401525b50505050565b600082516102e28184602087016102a0565b919091019291505056fea2646970667358221220804a247fbecd2480fed822d07c3db970950eeb7244c00ea311f06163722ae24f64736f6c634300080f0033",
    "linkReferences": {}
  },
  "methodIdentifiers": {
    "try_enableVesting(address)": "dbc82daa",
    "try_withdrawErc20(address,address)": "05e31e36"
  },
  "id": 18
}