{
  "abi": [
    {
      "inputs": [
        {
          "internalType": "address",
          "name": "token",
          "type": "address"
        },
        {
          "internalType": "address",
          "name": "to",
          "type": "address"
        },
        {
          "internalType": "uint256",
          "name": "amt",
          "type": "uint256"
        }
      ],
      "name": "try_transferToken",
      "outputs": [
        {
          "internalType": "bool",
          "name": "ok",
          "type": "bool"
        }
      ],
      "stateMutability": "nonpayable",
      "type": "function"
    }
  ],
  "bytecode": {
    "object": "0x608060405234801561001057600080fd5b5061022a806100206000396000f3fe608060405234801561001057600080fd5b506004361061002b5760003560e01c80633f18f68614610030575b600080fd5b61004361003e36600461016c565b610057565b604051901515815260200160405180910390f35b604080518082018252601981527f7472616e7366657228616464726573732c75696e743235362900000000000000602082015290516001600160a01b038481166024830152604482018490526000929190861690829060640160408051601f1981840301815290829052916100cb916101d8565b60408051918290039091206020830180516001600160e01b03166001600160e01b03199092169190911790525161010291906101d8565b6000604051808303816000865af19150503d806000811461013f576040519150601f19603f3d011682016040523d82523d6000602084013e610144565b606091505b50909695505050505050565b80356001600160a01b038116811461016757600080fd5b919050565b60008060006060848603121561018157600080fd5b61018a84610150565b925061019860208501610150565b9150604084013590509250925092565b60005b838110156101c35781810151838201526020016101ab565b838111156101d2576000848401525b50505050565b600082516101ea8184602087016101a8565b919091019291505056fea2646970667358221220fde0fae27ba394250aa99e3635f8496db9df88e1672d2690f53ea4bb142ac23064736f6c634300080f0033",
    "linkReferences": {}
  },
  "methodIdentifiers": {
    "try_transferToken(address,address,uint256)": "3f18f686"
  },
  "id": 20
}