{
  "abi": [
    {
      "inputs": [
        {
          "internalType": "address",
          "name": "_contract",
          "type": "address"
        },
        {
          "internalType": "address",
          "name": "account",
          "type": "address"
        },
        {
          "internalType": "uint256",
          "name": "tokensToVest",
          "type": "uint256"
        }
      ],
      "name": "try_addInvestor",
      "outputs": [
        {
          "internalType": "bool",
          "name": "ok",
          "type": "bool"
        }
      ],
      "stateMutability": "nonpayable",
      "type": "function"
    },
    {
      "inputs": [
        {
          "internalType": "address",
          "name": "_contract",
          "type": "address"
        }
      ],
      "name": "try_enableVesting",
      "outputs": [
        {
          "internalType": "bool",
          "name": "ok",
          "type": "bool"
        }
      ],
      "stateMutability": "nonpayable",
      "type": "function"
    },
    {
      "inputs": [
        {
          "internalType": "address",
          "name": "_contract",
          "type": "address"
        },
        {
          "internalType": "address",
          "name": "account",
          "type": "address"
        }
      ],
      "name": "try_removeInvestor",
      "outputs": [
        {
          "internalType": "bool",
          "name": "ok",
          "type": "bool"
        }
      ],
      "stateMutability": "nonpayable",
      "type": "function"
    },
    {
      "inputs": [
        {
          "internalType": "address",
          "name": "_contract",
          "type": "address"
        },
        {
          "internalType": "address",
          "name": "token",
          "type": "address"
        }
      ],
      "name": "try_withdrawErc20",
      "outputs": [
        {
          "internalType": "bool",
          "name": "ok",
          "type": "bool"
        }
      ],
      "stateMutability": "nonpayable",
      "type": "function"
    }
  ],
  "bytecode": {
    "object": "0x608060405234801561001057600080fd5b506104df806100206000396000f3fe608060405234801561001057600080fd5b506004361061004c5760003560e01c806305e31e36146100515780636c4f94dc14610078578063d0b940f41461008b578063dbc82daa1461009e575b600080fd5b61006461005f3660046103d8565b6100b1565b604051901515815260200160405180910390f35b61006461008636600461040b565b61019c565b6100646100993660046103d8565b610295565b6100646100ac366004610447565b6102ec565b60408051808201825260168152757769746864726177457263323028616464726573732960501b602082015290516001600160a01b038381166024830152600092919085169082906044015b60408051601f1981840301815290829052916101189161048d565b60408051918290039091206020830180516001600160e01b03166001600160e01b03199092169190911790525161014f919061048d565b6000604051808303816000865af19150503d806000811461018c576040519150601f19603f3d011682016040523d82523d6000602084013e610191565b606091505b509095945050505050565b604080518082018252601c81527f616464496e766573746f7228616464726573732c75696e743235362900000000602082015290516001600160a01b038481166024830152604482018490526000929190861690829060640160408051601f1981840301815290829052916102109161048d565b60408051918290039091206020830180516001600160e01b03166001600160e01b031990921691909117905251610247919061048d565b6000604051808303816000865af19150503d8060008114610284576040519150601f19603f3d011682016040523d82523d6000602084013e610289565b606091505b50909695505050505050565b604080518082018252601781527f72656d6f7665496e766573746f72286164647265737329000000000000000000602082015290516001600160a01b038381166024830152600092919085169082906044016100fd565b604080518082018252600f81526e656e61626c6556657374696e67282960881b602082015281516004815260248101928390526000926001600160a01b038516919061033990849061048d565b60408051918290039091206020830180516001600160e01b03166001600160e01b031990921691909117905251610370919061048d565b6000604051808303816000865af19150503d80600081146103ad576040519150601f19603f3d011682016040523d82523d6000602084013e6103b2565b606091505b5090949350505050565b80356001600160a01b03811681146103d357600080fd5b919050565b600080604083850312156103eb57600080fd5b6103f4836103bc565b9150610402602084016103bc565b90509250929050565b60008060006060848603121561042057600080fd5b610429846103bc565b9250610437602085016103bc565b9150604084013590509250925092565b60006020828403121561045957600080fd5b610462826103bc565b9392505050565b60005b8381101561048457818101518382015260200161046c565b50506000910152565b6000825161049f818460208701610469565b919091019291505056fea264697066735822122089b0024b4ca4dc7b7088f635159d622d27062c2dea658c02a9863daa67ed049164736f6c63430008110033",
    "linkReferences": {}
  },
  "methodIdentifiers": {
    "try_addInvestor(address,address,uint256)": "6c4f94dc",
    "try_enableVesting(address)": "dbc82daa",
    "try_removeInvestor(address,address)": "d0b940f4",
    "try_withdrawErc20(address,address)": "05e31e36"
  },
  "id": 20
}