{
  "abi": [
    {
      "inputs": [
        {
          "internalType": "address",
          "name": "_contract",
          "type": "address"
        },
        {
          "internalType": "address",
          "name": "account",
          "type": "address"
        },
        {
          "internalType": "uint256",
          "name": "tokensToVest",
          "type": "uint256"
        }
      ],
      "name": "try_addInvestor",
      "outputs": [
        {
          "internalType": "bool",
          "name": "ok",
          "type": "bool"
        }
      ],
      "stateMutability": "nonpayable",
      "type": "function"
    },
    {
      "inputs": [
        {
          "internalType": "address",
          "name": "_contract",
          "type": "address"
        }
      ],
      "name": "try_enableVesting",
      "outputs": [
        {
          "internalType": "bool",
          "name": "ok",
          "type": "bool"
        }
      ],
      "stateMutability": "nonpayable",
      "type": "function"
    },
    {
      "inputs": [
        {
          "internalType": "address",
          "name": "_contract",
          "type": "address"
        },
        {
          "internalType": "address",
          "name": "token",
          "type": "address"
        }
      ],
      "name": "try_withdrawErc20",
      "outputs": [
        {
          "internalType": "bool",
          "name": "ok",
          "type": "bool"
        }
      ],
      "stateMutability": "nonpayable",
      "type": "function"
    }
  ],
  "bytecode": {
    "object": "0x608060405234801561001057600080fd5b50610469806100206000396000f3fe608060405234801561001057600080fd5b50600436106100415760003560e01c806305e31e36146100465780636c4f94dc1461006d578063dbc82daa14610080575b600080fd5b610059610054366004610362565b610093565b604051901515815260200160405180910390f35b61005961007b366004610395565b61017d565b61005961008e3660046103d1565b610276565b60408051808201825260168152757769746864726177457263323028616464726573732960501b602082015290516001600160a01b0383811660248301526000929190851690829060440160408051601f1981840301815290829052916100f991610417565b60408051918290039091206020830180516001600160e01b03166001600160e01b0319909216919091179052516101309190610417565b6000604051808303816000865af19150503d806000811461016d576040519150601f19603f3d011682016040523d82523d6000602084013e610172565b606091505b509095945050505050565b604080518082018252601d81527f616464496e766573746f7228616464726573732c2075696e7432353629000000602082015290516001600160a01b038481166024830152604482018490526000929190861690829060640160408051601f1981840301815290829052916101f191610417565b60408051918290039091206020830180516001600160e01b03166001600160e01b0319909216919091179052516102289190610417565b6000604051808303816000865af19150503d8060008114610265576040519150601f19603f3d011682016040523d82523d6000602084013e61026a565b606091505b50909695505050505050565b604080518082018252600f81526e656e61626c6556657374696e67282960881b602082015281516004815260248101928390526000926001600160a01b03851691906102c3908490610417565b60408051918290039091206020830180516001600160e01b03166001600160e01b0319909216919091179052516102fa9190610417565b6000604051808303816000865af19150503d8060008114610337576040519150601f19603f3d011682016040523d82523d6000602084013e61033c565b606091505b5090949350505050565b80356001600160a01b038116811461035d57600080fd5b919050565b6000806040838503121561037557600080fd5b61037e83610346565b915061038c60208401610346565b90509250929050565b6000806000606084860312156103aa57600080fd5b6103b384610346565b92506103c160208501610346565b9150604084013590509250925092565b6000602082840312156103e357600080fd5b6103ec82610346565b9392505050565b60005b8381101561040e5781810151838201526020016103f6565b50506000910152565b600082516104298184602087016103f3565b919091019291505056fea264697066735822122074fb1352409c443f893283b692208e953d146cba2d9e3957029fb66757b3de7c64736f6c63430008110033",
    "linkReferences": {}
  },
  "methodIdentifiers": {
    "try_addInvestor(address,address,uint256)": "6c4f94dc",
    "try_enableVesting(address)": "dbc82daa",
    "try_withdrawErc20(address,address)": "05e31e36"
  },
  "id": 20
}