{
  "abi": [
    {
      "inputs": [
        {
          "internalType": "address",
          "name": "_contract",
          "type": "address"
        },
        {
          "internalType": "address",
          "name": "account",
          "type": "address"
        },
        {
          "internalType": "uint256",
          "name": "tokensToVest",
          "type": "uint256"
        }
      ],
      "name": "try_addInvestor",
      "outputs": [
        {
          "internalType": "bool",
          "name": "ok",
          "type": "bool"
        }
      ],
      "stateMutability": "nonpayable",
      "type": "function"
    },
    {
      "inputs": [
        {
          "internalType": "address",
          "name": "_contract",
          "type": "address"
        }
      ],
      "name": "try_claim",
      "outputs": [
        {
          "internalType": "bool",
          "name": "ok",
          "type": "bool"
        }
      ],
      "stateMutability": "nonpayable",
      "type": "function"
    },
    {
      "inputs": [
        {
          "internalType": "address",
          "name": "_contract",
          "type": "address"
        }
      ],
      "name": "try_enableVesting",
      "outputs": [
        {
          "internalType": "bool",
          "name": "ok",
          "type": "bool"
        }
      ],
      "stateMutability": "nonpayable",
      "type": "function"
    },
    {
      "inputs": [
        {
          "internalType": "address",
          "name": "_contract",
          "type": "address"
        },
        {
          "internalType": "address",
          "name": "account",
          "type": "address"
        }
      ],
      "name": "try_getAmountToClaim",
      "outputs": [
        {
          "internalType": "bool",
          "name": "ok",
          "type": "bool"
        }
      ],
      "stateMutability": "nonpayable",
      "type": "function"
    },
    {
      "inputs": [
        {
          "internalType": "address",
          "name": "_contract",
          "type": "address"
        },
        {
          "internalType": "address",
          "name": "account",
          "type": "address"
        }
      ],
      "name": "try_removeInvestor",
      "outputs": [
        {
          "internalType": "bool",
          "name": "ok",
          "type": "bool"
        }
      ],
      "stateMutability": "nonpayable",
      "type": "function"
    },
    {
      "inputs": [
        {
          "internalType": "address",
          "name": "_contract",
          "type": "address"
        },
        {
          "internalType": "address",
          "name": "token",
          "type": "address"
        }
      ],
      "name": "try_withdrawErc20",
      "outputs": [
        {
          "internalType": "bool",
          "name": "ok",
          "type": "bool"
        }
      ],
      "stateMutability": "nonpayable",
      "type": "function"
    }
  ],
  "bytecode": {
    "object": "0x608060405234801561001057600080fd5b506105b7806100206000396000f3fe608060405234801561001057600080fd5b50600436106100625760003560e01c806305e31e36146100675780636c4f94dc1461008e57806370fa62a3146100a15780637188a084146100b4578063d0b940f4146100c7578063dbc82daa146100da575b600080fd5b61007a6100753660046104b0565b6100ed565b604051901515815260200160405180910390f35b61007a61009c3660046104e3565b6101d8565b61007a6100af3660046104b0565b6102d1565b61007a6100c236600461051f565b610328565b61007a6100d53660046104b0565b6103f0565b61007a6100e836600461051f565b610447565b60408051808201825260168152757769746864726177457263323028616464726573732960501b602082015290516001600160a01b038381166024830152600092919085169082906044015b60408051601f19818403018152908290529161015491610565565b60408051918290039091206020830180516001600160e01b03166001600160e01b03199092169190911790525161018b9190610565565b6000604051808303816000865af19150503d80600081146101c8576040519150601f19603f3d011682016040523d82523d6000602084013e6101cd565b606091505b509095945050505050565b604080518082018252601c81527f616464496e766573746f7228616464726573732c75696e743235362900000000602082015290516001600160a01b038481166024830152604482018490526000929190861690829060640160408051601f19818403018152908290529161024c91610565565b60408051918290039091206020830180516001600160e01b03166001600160e01b0319909216919091179052516102839190610565565b6000604051808303816000865af19150503d80600081146102c0576040519150601f19603f3d011682016040523d82523d6000602084013e6102c5565b606091505b50909695505050505050565b604080518082018252601981527f676574416d6f756e74546f436c61696d28616464726573732900000000000000602082015290516001600160a01b03838116602483015260009291908516908290604401610139565b6040805180820182526007815266636c61696d282960c81b602082015281516004815260248101928390526000926001600160a01b038516919061036d908490610565565b60408051918290039091206020830180516001600160e01b03166001600160e01b0319909216919091179052516103a49190610565565b6000604051808303816000865af19150503d80600081146103e1576040519150601f19603f3d011682016040523d82523d6000602084013e6103e6565b606091505b5090949350505050565b604080518082018252601781527f72656d6f7665496e766573746f72286164647265737329000000000000000000602082015290516001600160a01b03838116602483015260009291908516908290604401610139565b604080518082018252600f81526e656e61626c6556657374696e67282960881b602082015281516004815260248101928390526000926001600160a01b038516919061036d908490610565565b80356001600160a01b03811681146104ab57600080fd5b919050565b600080604083850312156104c357600080fd5b6104cc83610494565b91506104da60208401610494565b90509250929050565b6000806000606084860312156104f857600080fd5b61050184610494565b925061050f60208501610494565b9150604084013590509250925092565b60006020828403121561053157600080fd5b61053a82610494565b9392505050565b60005b8381101561055c578181015183820152602001610544565b50506000910152565b60008251610577818460208701610541565b919091019291505056fea2646970667358221220843b2a7925f054aa4267ccb704b85ca5db3172d6fe2b6977a4bbeadddcd28f0164736f6c63430008110033",
    "linkReferences": {}
  },
  "methodIdentifiers": {
    "try_addInvestor(address,address,uint256)": "6c4f94dc",
    "try_claim(address)": "7188a084",
    "try_enableVesting(address)": "dbc82daa",
    "try_getAmountToClaim(address,address)": "70fa62a3",
    "try_removeInvestor(address,address)": "d0b940f4",
    "try_withdrawErc20(address,address)": "05e31e36"
  },
  "id": 28
}