{
  "abi": [
    {
      "inputs": [
        {
          "internalType": "address",
          "name": "_contract",
          "type": "address"
        }
      ],
      "name": "try_enableVesting",
      "outputs": [
        {
          "internalType": "bool",
          "name": "ok",
          "type": "bool"
        }
      ],
      "stateMutability": "nonpayable",
      "type": "function"
    }
  ],
  "bytecode": {
    "object": "0x608060405234801561001057600080fd5b506101d9806100206000396000f3fe608060405234801561001057600080fd5b506004361061002b5760003560e01c8063dbc82daa14610030575b600080fd5b61004361003e366004610127565b610057565b604051901515815260200160405180910390f35b604080518082018252600f81526e656e61626c6556657374696e67282960881b602082015281516004815260248101928390526000926001600160a01b03851691906100a4908490610187565b60408051918290039091206020830180516001600160e01b03166001600160e01b0319909216919091179052516100db9190610187565b6000604051808303816000865af19150503d8060008114610118576040519150601f19603f3d011682016040523d82523d6000602084013e61011d565b606091505b5090949350505050565b60006020828403121561013957600080fd5b81356001600160a01b038116811461015057600080fd5b9392505050565b60005b8381101561017257818101518382015260200161015a565b83811115610181576000848401525b50505050565b60008251610199818460208701610157565b919091019291505056fea26469706673582212200df1c6eabc0998071ed66162575b4bd9bfdb151cd0a28938fac95164cf0a3ca064736f6c634300080f0033",
    "linkReferences": {}
  },
  "methodIdentifiers": {
    "try_enableVesting(address)": "dbc82daa"
  },
  "id": 18
}